S011000075686B2D72696768742E7372656380
S3150000C00000FF0020C9C4000029C500002DC500009E
S3150000C01025C5000025C5000025C50000000000005C
S3150000C02000000000000000000000000031C5000014
S3150000C03025C500000000000035C5000039C5000018
S3150000C0403DC5000041C5000045C5000049C50000CA
S3150000C0504DC5000051C5000055C5000059C500007A
S3150000C0605DC5000061C5000065C5000069C500002A
S3150000C0706DC5000071C5000075C5000079C50000DA
S3150000C0807DC5000025C5000025C5000025C50000AA
S3150000C09025C5000025C5000025C5000025C50000F2
S3150000C0A081C5000085C5000089C500008DC500005A
S3150000C0B091C5000095C5000099C500009DC500000A
S3150000C0C0A1C50000A5C50000A9C50000ADC50000BA
S3150000C0D0B1C5000025C5000025C5000025C5000026
S3150000C0E025C5000025C5000025C5000025C50000A2
S3150000C0F025C5000025C5000025C5000025C5000092
S3150000C10095FF000025C5000025C5000025C50000D7
S3150000C11025C500004508010025C5000025C500000D
S3150000C12025C5000025C5000025C5000025C5000061
S3150000C13025C5000025C5000025C5000025C5000051
S3150000C14025C5000025C5000025C5000025C5000041
S3150000C15025C5000025C5000025C5000025C5000031
S3150000C3C06B636667FFFFFFFFFFFFFFFFFFFFFFFFD8
S3150000C3D010FF8813FFFFFFFFFFFFFFFF00FFFEFFB9
S3150000C3E0FFFFFFFFFFFFFFFFFFFFFFFFFFFFFFFF57
S3150000C3F0FFFFFFFFFFFFFFFFFFFFFFFFFFFFFFFF47
S3150000C40010B5054C237833B9044B13B10448AFF388
S3150000C41000800123237010BDBC29FF1F000000000F
S3150000C420D03E010008B5064B1BB106480649AFF3DE
S3150000C43000800648036813B1054B03B1984708BD51
S3150000C44000000000D03E0100C029FF1FB829FF1FD1
S3150000C45000000000154B002B08BF134B9D46A3F5AB
S3150000C460803A00218B460F461348144A121A06F0EA
S3150000C47099F90F4B002B00D098470E4B002B00D09C
S3150000C48098470020002104000D000D48002802D026
S3150000C4900C48AFF3008006F047F92000290004F0AD
S3150000C4A0ABF806F01BF900BF0000080000FF0020F3
S3150000C4B00000000000000000BC29FF1F04BAFF1F97
S3150000C4C0000000000000000072B60D480D49016032
S3150000C4D00D4880470D490E4A0E4B9A42BEBF51F891
S3150000C4E0040B42F8040BF8E70B490C4A0020914272
S3150000C4F0BCBF41F8040BFAE762B609488047000062
S3150000C50008ED00E000C0000095D70000F83E0100ED
S3150000C5100000FF1FBC29FF1FBC29FF1F04BAFF1F15
S3150000C52055C40000FFF7FEBF2248004722480047D7
S3150000C5302248004722480047224800472248004731
S3150000C5402248004722480047224800472248004721
S3150000C5502248004722480047224800472248004711
S3150000C5602248004722480047224800472248004701
S3150000C57022480047224800472248004722480047F1
S3150000C58022480047224800472248004722480047E1
S3150000C59022480047224800472248004722480047D1
S3150000C5A022480047224800472248004722480047C1
S3150000C5B02248004729C500002DC5000031C50000EE
S3150000C5C035C5000039C5000025C5000025C5000099
S3150000C5D025C5000025C5000025C5000025C50000AD
S3150000C5E025C5000025C5000025C5000025C500009D
S3150000C5F025C5000025C5000025C5000025C500008D
S3150000C60025C5000025C5000025C50000E52501005B
S3150000C610F925010025C5000025C5000025C5000037
S3150000C62025C5000025C5000025C5000025C500005C
S3150000C63025C5000025C5000025C5000025C500004C
S3150000C6404BB942B9002908BF002802D04FF0FF318C
S3150000C650084600F03BB882B0EC462DE9005000F0E9
S3150000C6601DF8DDF804E002B00CBC70472DE97043FC
S3150000C670069E14461D468046894600F029F804FBAE
S3150000C68001F300FB0533A4FB00451D44B8EB04048D
S3150000C69069EB0505C6E90045BDE870832DE97043E1
S3150000C6A0069E1446804689461D4600F05DF900FB4D
S3150000C6B005F504FB0153A0FB04451D44B8EB040437
S3150000C6C069EB0505C6E90045BDE87083704700BF04
S3150000C6D000292DE9F00FC0F29F800024002BC0F244
S3150000C6E09680154606460F46002B3ED18A4257D9FC
S3150000C6F0B2FA82F34BB1C3F1200201FA03F720FA32
S3150000C70002F29D40174300FA03F6290CB7FBF1F23B
S3150000C710330C01FB127CA8B243EA0C4700FB02F380
S3150000C720BB4209D97F1902F1FF3C80F00181BB426F
S3150000C73040F2FE80023A2F44FF1AB7FBF1F3B6B27D
S3150000C74001FB137146EA014100FB03F0884208D958
S3150000C750491903F1FF3780F0ED80884240F2EA8004
S3150000C760023B43EA0242002303E08B420AD900233C
S3150000C7701A461046194614B1404261EB4101BDE824
S3150000C780F00F7047B3FA83F8B8F1000F40F08480D9
S3150000C7908B4202D3824200F2DE8000230122E8E7C8
S3150000C7A012B90123B3FBF2F5B5FA85F2002A39D1A5
S3150000C7B07F1B280C1FFA85FC0123B7FBF0F1320C16
S3150000C7C000FB117742EA07470CFB01F2BA4207D990
S3150000C7D07F1901F1FF3802D2BA4200F2C180414608
S3150000C7E0BF1AB7FBF0F2B6B200FB127046EA004081
S3150000C7F00CFB02FC844507D9401902F1FF3702D22F
S3150000C800844500F2AB803A4642EA0142B1E7E4438E
S3150000C810524263EB430364E7404261EB41014FF050
S3150000C820FF345BE79540C2F1200327FA03F1280C99
S3150000C83026FA03F39740B1FBF0F81F433B0C00FBCD
S3150000C84018111FFA85FC43EA01410CFB08F38B42E1
S3150000C85006FA02F608D9491908F1FF3279D28B4255
S3150000C86077D9A8F102082944C91AB1FBF0F3BFB27F
S3150000C87000FB131147EA01470CFB03F2BA4207D942
S3150000C8807F1903F1FF3160D2BA425ED9023B2F44D1
S3150000C890BF1A43EA084390E7C8F1200203FA08FCEE
S3150000C8A025FA02F343EA0C0C4FEA1C4921FA02F37B
S3150000C8B001FA08F720FA02F2B3FBF9F1174309FB74
S3150000C8C011333A0C1FFA8CFB42EA03430BFB01FAC5
S3150000C8D09A4505FA08F008D913EB0C0301F1FF326B
S3150000C8E035D29A4533D902396344CAEB0303B3FB05
S3150000C8F0F9F209FB1233BFB247EA03470BFB02F911
S3150000C900B94508D917EB0C0702F1FF331BD2B9451D
S3150000C91019D9023A674442EA0145A5FB0001C9EB71
S3150000C92007078F424FF000030AD305D02A4620E7B7
S3150000C930624601E73B4614E706FA08F68642F5D258
S3150000C9406A1E002315E71A46E5E70B46A0E71146DF
S3150000C950CBE7904688E7434642460AE7023A53E762
S3150000C96002392F443CE700BF2DE9F00F1446054677
S3150000C9700E46002B43D18A4253D9B2FA82F757B1F9
S3150000C980C7F1200620FA06F601FA07F302FA07F4C1
S3150000C9901E4300FA07F5210CB6FBF1F22B0C01FB46
S3150000C9A01267A0B243EA074600FB02F3B34209D975
S3150000C9B0361902F1FF3780F0F680B34240F2F38079
S3150000C9C0023A2644F61AB6FBF1F3ADB201FB136147
S3150000C9D045EA014100FB03F0884208D9091903F131
S3150000C9E0FF3680F0E280884240F2DF80023B43EA75
S3150000C9F00242002310461946BDE8F00F70478B42ED
S3150000CA004AD8B3FA83F6002E4DD18B4202D3824226
S3150000CA1000F2D6800023012210461946BDE8F00F29
S3150000CA20704712B90124B4FBF2F4B4FA84F2002A76
S3150000CA307CD1091B260CA7B20123B1FBF6F02A0C08
S3150000CA4006FB101142EA014107FB00F28A4207D9B0
S3150000CA50091900F1FF3C02D28A4200F2C380604607
S3150000CA60891AB1FBF6F2ADB206FB121145EA014591
S3150000CA7007FB02F7AF4208D92C1902F1FF3180F00B
S3150000CA809680A74240F29380023A42EA004210465C
S3150000CA901946BDE8F00F704700231A46104619469E
S3150000CAA0BDE8F00F7047C6F1200522FA05F4B34041
S3150000CAB01C434FEA144821FA05F301FA06F720FA57
S3150000CAC005F5B3FBF8FC2F4308FB1C333D0C1FFA9E
S3150000CAD084FA45EA03430AFB0CF9994502FA06FB78
S3150000CAE004D91B190CF1FF326DD39446C9EB03032D
S3150000CAF0B3FBF8F508FB1533BFB247EA03470AFB59
S3150000CB0005F8B84504D93F1905F1FF3361D31D4631
S3150000CB1045EA0C4CACFB0B23C8EB07079F424FF0D2
S3150000CB20000549D345D062462B4663E79440C2F1DF
S3150000CB30200321FA03FC260C20FA03F301FA02F57E
S3150000CB40BCFBF6F843EA05010B0C06FB18CCA7B2B2
S3150000CB5043EA0C4C07FB08F3634500FA02F509D9D2
S3150000CB601CEB040C08F1FF323AD2634538D9A8F120
S3150000CB700208A444C3EB0C0CBCFBF6F389B206FB1B
S3150000CB8013CC41EA0C4107FB03F28A4207D9091983
S3150000CB9003F1FF3022D28A4220D9023B2144891A6E
S3150000CBA043EA084349E73A460CE733461FE70A4695
S3150000CBB06BE7B0409042B6D20CF1FF32002319E782
S3150000CBC03346324616E799458FD9ACF1020C234419
S3150000CBD08CE7B8459BD9023D274499E70346DEE733
S3150000CBE09046C7E7023821443AE700BF38B50D46FC
S3150000CBF040B1446844B12D064CBFA468E46800689F
S3150000CC00A04738BD032038BD062038BD08B528B179
S3150000CC1043682BB15B690068984708BD032008BDCF
S3150000CC20062008BD30B5044685B0002937D0002857
S3150000CC3035D08368002B34D00B7A102B03F00F020B
S3150000CC4019D10B210022FFF7E1FF022384F87E3081
S3150000CC50002384F87C300E2523460022013DDA604D
S3150000CC601A6103F10803F8D1A368204601212A4678
S3150000CC709847284616E0062A13D8DB0943EA4202FB
S3150000CC8000EBC204E56865B10B6801934B6802933B
S3150000CC904B7A8DF80C3001A92269A84702E00320DF
S3150000CCA000E0012005B030BD00210A46FFF7AEBF07
S3150000CCB038B5044680B1436823B15B68006898477D
S3150000CCC000236360002504F0F3F9256084F87D50A5
S3150000CCD004F0F8F9284638BD032038BD2DE9F041A7
S3150000CCE0064688461746002A48D004F0E1F9254B47
S3150000CCF01D681C4645B193F87D30B34212D104F04D
S3150000CD00E1F90120BDE8F08183F87D6004F0DAF9ED
S3150000CD10C4F8088084F87D6084F87C50234604F1CA
S3150000CD20700204E004F0CEF90220BDE8F08100258F
S3150000CD30DD601D6108339342F9D1012E0DD8114DE6
S3150000CD40114B6360304629462A4600F0A1FB044693
S3150000CD5068B12846FFF7ACFF0DE004F0A9F925609D
S3150000CD6084F87D5004F0AEF90620BDE8F081022378
S3150000CD7085F87E303D602046BDE8F0810320BDE8A1
S3150000CD80F08100BF00B4FF1F3836010001F00F012B
S3150000CD9041F08001FFF72ABF01F00F01FFF726BF20
S3150000CDA0F0B50B46A8B1B1B1AAB18D7805F00F0464
S3150000CDB0062C10D8E90941EA440100EBC1011668C6
S3150000CDC0CE6052680A61BDE8F04002211A46FFF7BC
S3150000CDD01DBF0320F0BD0420F0BD73B50D468DF8D0
S3150000CDE00710064688B101F00F040DF10702032172
S3150000CDF0FFF70CFF062C0AD8ED0945EA440406EBBA
S3150000CE00C4040023E360236102E0032000E0042061
S3150000CE1002B070BD07B58DF8071001F00F010629A5
S3150000CE2005D804210DF10702FFF7F0FE00E004200B
S3150000CE3003B05DF804FB07B58DF8071001F00F018C
S3150000CE40062905D805210DF10702FFF7DFFE00E0F0
S3150000CE50042003B05DF804FBDAB1023906291AD8BA
S3150000CE60DFE801F004061012080B14000C210EE096
S3150000CE700D210CE090F87E3001E090F87C301370C4
S3150000CE8000207047062102E0072100E00921FFF794
S3150000CE90BDBE0420704701207047033906291ED8FD
S3150000CEA0DFE801F0041D1D06091D1A000E2114E01D
S3150000CEB0AAB1137808E090F87E30032B08D072B13F
S3150000CEC0137880F87C30032380F87E30002070478A
S3150000CED0082100F17C0200E00A21FFF797BE01203D
S3150000CEE0704730B58368FF2283F88820836893F8FB
S3150000CEF0942042F0020283F894208368002283F88B
S3150000CF009820416821F4FF71540121F00101214369
S3150000CF1041F0080500230B602B6041F0100541F03D
S3150000CF2018012B600B60510141F0100104440144CB
S3150000CF30E362CB6202F1300481680132072A01F80C
S3150000CF402430DED1826880F8003192F8941001F026
S3150000CF50FD0182F894108268FF2182F88C108268A5
S3150000CF60892182F8841080F80131836893F894202F
S3150000CF7002F0DF0283F8942030BD2DE9F04105462A
S3150000CF8042EA410405EB04140E469846174604F09F
S3150000CF908FF894F82D3043F0400384F82D306868FC
S3150000CFA0069A20F4FF7007F0010720F0010040EA1E
S3150000CFB0071006F00F06DBB240EA4610C3F3001373
S3150000CFC040EAC303C2F30902C3F8048094F82D3083
S3150000CFD0C3F30016C3F3C0039B0140EAC60043F047
S3150000CFE0880343EA0242026004F06CF8AB6893F8E7
S3150000CFF0942002F0DF0283F894200020BDE8F0813F
S3150000D00037B590F82D50C5F30013002100EBC3038C
S3150000D01045F020050C33082461F3C30503628162E1
S3150000D020446280F82D500A460094FFF7A6FF03B02D
S3150000D03030BD70B501F00F03C90941EA43052D0162
S3150000D040044628440E0190F82D2002F0FB026FF3EF
S3150000D050C30280F82D20626822F4FF7246EA431666
S3150000D06022F00102324328301668760706D58088FA
S3150000D070C0F30900000440F00800106042F0080206
S3150000D0801068400707D52544A88DC0F309000004A1
S3150000D09040F008001060A26802EB830292F8C0001C
S3150000D0A000F0FD0082F8C0001BB911B92046FFF759
S3150000D0B0A7FFA36893F8942002F0DF0283F8942078
S3150000D0C0002070BDC0B18368FF2283F8802082688B
S3150000D0D092F88430002382F88430826882F898308F
S3150000D0E0826882F89430826892F8001141F0C0019B
S3150000D0F082F8001118467047032070472DE9F34166
S3150000D10001F00F054FEA450C4CF0010C4FEA0C16E6
S3150000D1100446304490F82D70C7F3801747B9026271
S3150000D12090F82D20876242F02002436280F82D207D
S3150000D130A219978DC7F30907BB4238BF1F4694F85B
S3150000D14001316BB904EB0C132046D3F820E0936A47
S3150000D1500097294601227344FFF70FFF804601E03E
S3150000D1604FF001082644B36A23B91FB915B9204602
S3150000D170FFF746FF404602B0BDE8F0812DE9F341D6
S3150000D18001F00F0500EB4511044691F82D00C0F3A0
S3150000D19080106F0010B988620A624B623F01E01985
S3150000D1A000F1280190F82D6046F0200680F82D60E9
S3150000D1B0868DC6F30906B34238BF1E46836A1344FA
S3150000D1C0E2698AB194F8000170B9402E0CD843EA9E
S3150000D1D0060C1CF0030F07D04B7960F345134B7117
S3150000D1E0012384F80031134694F8012132B90096E0
S3150000D1F020462946FFF7C1FE804601E04FF00108B0
S3150000D20086B97DB92744204697F82D30C3F300121E
S3150000D21082F0010262F3041365F3861387F82D305A
S3150000D220FFF7EEFE404602B0BDE8F0811FB5CB0920
S3150000D23001F00F0243EA420200EB021328335C7945
S3150000D240640613D500EB02128DF80C10126A0192D7
S3150000D25000214FF0FF348DF80D1002945A7961F3D6
S3150000D26086125A71006801A9FFF7DCFC002004B0A1
S3150000D27010BD70B5044601F00F05CB0943EA45061B
S3150000D280FFF7D4FF3035A268002002F8250004EB32
S3150000D2900614A38D60F30903A38570BDF8B5044693
S3150000D2A0002800F0F1800C2900F2F080DFE811F090
S3150000D2B00D00260036007F008600B300BA00BE00CF
S3150000D2C0D000EE00EE00D600E8008368002283F866
S3150000D2D0002183681A7F510703D51A7F42F0800226
S3150000D2E01A77A36893F8082142F0100283F8082100
S3150000D2F0A36893F8942042F0010289E083681A7FBC
S3150000D300520703D51A7F02F07F021A77A36893F8B3
S3150000D310082102F0EF0283F8082197E0002A00F0C6
S3150000D320B58095781688D27805F00F00012A4FEA65
S3150000D330D51545EA400301B205D140F2FF329642C7
S3150000D34028BF16460BE0A26802EB8102402E28BFDA
S3150000D350402692F8C07047F0010782F8C07004EBCF
S3150000D3600313012D93F82D206FF3861283F82D20D9
S3150000D3709A8D66F309029A854FEA122202F0F702A5
S3150000D3806FF3820283F82D20A36803EB810314BF99
S3150000D3900821042193F8C0200A4383F8C0200028FE
S3150000D3A054D1002D73D12046FFF72AFE4EE0002A05
S3150000D3B06CD01178BDE8F840FFF75BBF002A65D056
S3150000D3C0117801F00F06CD0945EA4607FFF72EFF53
S3150000D3D004EB071328335A7942F004025A71616844
S3150000D3E09B88C2F3001021F4FF7222F0010242EA88
S3150000D3F0C00242EA4616C3F3090346EA05151B04B2
S3150000D40043F08C032B60A36893F8942002F0DF02AC
S3150000D41083F894201AE0002A38D01178BDE8F84045
S3150000D420FFF707BE012092B310800FE072B31178A8
S3150000D43001F00F03062B29D8C90941EA430300EB83
S3150000D440031494F82D30C3F3800353800020F8BDF5
S3150000D450E2B18368127883F89820F7E70025EEB2E8
S3150000D46046F080012046FFF704FF0135204631468D
S3150000D470FFF7FFFE072DF2D12046FFF732FDE5E765
S3150000D48022B100201070F8BD0320F8BD0120F8BDC0
S3150000D490F8B50E461746054620BB134C134B84F8C9
S3150000D4A0020104F58272E261FF22A360012183F882
S3150000D4B0802020462A46FFF7F1FE0D4BA0686360E8
S3150000D4C0C3F3072280F89C20C3F307421B0E80F8A3
S3150000D4D0B02080F8B4302046FFF703FD3C602846B4
S3150000D4E02660F8BD0620F8BD80B4FF1F0020074067
S3150000D4F000B2FF1F2DE9F04F87B0002800F04781EA
S3150000D5000468A36893F880905FFA89F919F0080F08
S3150000D51000F0098193F890200821D2B283F8801098
S3150000D520C2F3C000636815095FFA80FA23F4FF733B
S3150000D5304AEA450823F001034FEA081643EA451173
S3150000D540A319C2F3800241EA001093F82D3040EA95
S3150000D550C2005B06076840F1E680C7F3830BBBF1A8
S3150000D5600D00D0F1000B5BEB000BBBF1000F01D0FF
S3150000D57084F80321C7F30947BAF1000F4CD0A2196A
S3150000D58002F12801936A3B44936291F805E0CEF3D9
S3150000D590C00C8CF0010C6CF3C30E04EB08125FFA9E
S3150000D5A08EFE506ACEF3001C8CF0010C6CF3041E48
S3150000D5B0C31A81F805E004D08988C1F30901B9428C
S3150000D5C023D92644B36A0493136A039396F82D303D
S3150000D5D06FF3861386F82D30B38DC3F309039F428C
S3150000D5E040F09080002D40F08D8094F8033104EBDC
S3150000D5F0C303598A536A994240F2848020682946B7
S3150000D6002A462B46FFF7C2FB8DE0204645F08001F7
S3150000D610126AFFF773FD86E01DB917B904950395E5
S3150000D62070E0A01990F82D20C2F34013B3B9C2F3ED
S3150000D630001241EAC2014A6804EB0811D1F820E061
S3150000D640816A7144914203D1002384F8003105E0D8
S3150000D650BB42F9D0985CC8540133F9E7A21904EB30
S3150000D6600818936A3B449362D8F82420BDB9BBF1ED
S3150000D670000F14D0802120468DE80C00FFF7D6FD60
S3150000D68094F82D1041F0080184F82D1094F83D10FF
S3150000D69041F0080184F83D109DE80C000AE0A1194C
S3150000D6A091F82D00C0F3C00E8EF0010E6EF3C3008C
S3150000D6B081F82D00A11928314879C0F3001E8EF09B
S3150000D6C0010E6EF304104871D8F8240030B1D31A55
S3150000D6D004D08A88C2F30902BA420CD92644B26A37
S3150000D6E00492D8F82020039296F82D206FF3861224
S3150000D6F086F82D2006E020462946D8F82020FFF798
S3150000D7003DFD10E045EACA158DF815B08DF81450A8
S3150000D710206803A9FFF786FAA36893F8942002F01D
S3150000D720DF0283F8942019F0010F11D0A2680123BB
S3150000D73084F8013182F880300023102203938DF89B
S3150000D74014208DF815302068049303A9FFF76AFAB0
S3150000D75019F0800F13D0A368802283F8802094F8F4
S3150000D7603D305A0703D494F82D305B0707D5802146
S3150000D7702046FFF75EFC20460021FFF75AFCA3680F
S3150000D78093F85C2102F0FF010AB183F85C1107B03F
S3150000D790BDE8F08F084BD3F8882042F47002C3F836
S3150000D7A08820064B4CF22052DA814DF62812DA8197
S3150000D7B04FF4E9721A80704700ED00E00020054042
S3150000D7C0554A137813F0C00F75D15379580665D4AE
S3150000D7D01378590731D4137B13F0030305D04F494F
S3150000D7E0012B08BF4FF4004100E04D494A4A5378E7
S3150000D7F013F0300F134613D0107B00F003000128FE
S3150000D8000ED0137803F03803302B11D0382B02D109
S3150000D8104FF4C0630EE013782022C3F3C20303E083
S3150000D8201B780122C3F3C20302FA03F39BB201E0A1
S3150000D8304FF4A063B1FBF3F301E04FF40043364A23
S3150000D840D27802F0E002602A1ED008D8202A15D02D
S3150000D850402A16D0002A53D14FF420721CE0A02A89
S3150000D86015D004D8802A4BD14FF4377214E0C02A61
S3150000D87010D0E02A44D140F671320DE04FF4A06298
S3150000D8800AE04FF4F06207E04FF4206204E04FF440
S3150000D890B76201E040F69502534331E01179204B1F
S3150000D8A001F01F010131B3FBF1F1537903F01F03BE
S3150000D8B018334B4324E0137803F0C003402B0CD1FC
S3150000D8C05378DB071AD5137A0122C3F3420302FA0F
S3150000D8D003F3144AB2FBF3F312E0137803F0C00328
S3150000D8E0802B17D1137B13F0030305D0012B0B4BB1
S3150000D8F008BF4FF4004303E0094B01E04FF4004337
S3150000D90041F2440208498A58120F0132B3FBF2F37E
S3150000D910064A1360704700BF00400640006CDC02F8
S3150000D92000127A0000093D00007004400000FF1F4D
S3150000D930034B04481B68834208BF03F10800704785
S3150000D9400C00FF1FD929FF1F074B10B59C68FFF776
S3150000D950EFFF032102460823204601F080F9034B1E
S3150000D96001221A7010BD00BFB4B1FF1FD829FF1FD6
S3150000D97008B5FFF7DDFF014B186008BD0C00FF1F5F
S3150000D980024B0821186804F0A1BE00BF0C00FF1F5F
S3150000D990013908290DD8DFE801F0050C0A0C0C0A3C
S3150000D9A00C0C0A00044B1B7E1BB1FFF7CDBF0520F4
S3150000D9B070470120704700BFB4B1FF1F012901D194
S3150000D9C0FFF7C2BF01207047012901D1FFF7BCBF95
S3150000D9D001207047034B044AD8680221402301F016
S3150000D9E04EB900BFB4B1FF1F292AFF1F023908B57F
S3150000D9F0072905D8DFE801F006130404130404130D
S3150000DA00012008BD03F0D6F8064B074AD868012165
S3150000DA10402301F024F9BDE80840FFF7DBBF0520ED
S3150000DA2008BD00BFB4B1FF1FE929FF1F012901D1BD
S3150000DA30FFF7D0BF0120704709B9FFF7CBBF012020
S3150000DA4070470000034B04481B68834208BF03F17C
S3150000DA50080070477C00FF1F692AFF1F074B10B59F
S3150000DA601C69FFF7EFFF052102460823204601F057
S3150000DA70F6F8034B01221A7010BD00BFB4B1FF1FA8
S3150000DA80792AFF1F08B5FFF7DDFF014B186008BDB7
S3150000DA907C00FF1F024B0821186804F017BE00BF68
S3150000DAA07C00FF1F013908290DD8DFE801F0050CBD
S3150000DAB00A0C0C0A0C0C0A00044B1B7E1BB1FFF768
S3150000DAC0CDBF052070470120704700BFB4B1FF1FCE
S3150000DAD0012901D1FFF7C2BF01207047032901D1F7
S3150000DAE0FFF7BCBF01207047034B044A5868042166
S3150000DAF0072301F0B4B800BFB4B1FF1F7A2AFF1F95
S3150000DB00013908290DD8DFE801F0050C0A0C0C0ACA
S3150000DB100C0C0A00044B1B7E1BB1FFF7E5BF05206A
S3150000DB2070470120704700BFB4B1FF1F012901D122
S3150000DB30FFF7DABF01207047022901D1FFF7D4BFF2
S3150000DB4001207047034B04481B68834208BF581CDA
S3150000DB50704700BFE000FF1F822AFF1F074B10B56A
S3150000DB605C69FFF7EFFF062102460123204601F01C
S3150000DB7076F8034B01221A7010BD00BFB4B1FF1F27
S3150000DB80812AFF1F08B5FFF7DDFF014B186008BDAE
S3150000DB90E000FF1F024B0121186804F097BD00BF8B
S3150000DBA0E000FF1F013908290DD8DFE801F0050C58
S3150000DBB00A0C0C0A0C0C0A00044B1B7E1BB1FFF767
S3150000DBC0CDBF052070470120704700BFB4B1FF1FCD
S3150000DBD0012901D1FFF7C2BF01207047042901D1F5
S3150000DBE0FFF7BCBF01207047087A20B9034B0B60D2
S3150000DBF08D234B6070470520704700BF4301FF1F10
S3150000DC00024B0B6012234B6000207047D001FF1FB0
S3150000DC1005207047087A022803D10F4B0B60792341
S3150000DC200EE0012803D10D4B0B603F2308E00328CB
S3150000DC3001D10B4B02E0042805D10A4B0B601723D8
S3150000DC404B600020704720B9074B0B601F234B60C9
S3150000DC5070470520704700BF1802FF1F0401FF1F11
S3150000DC600102FF1F2003FF1FE201FF1F052070476F
S3150000DC70887A20B90B4B0B6004234B6070470A89E6
S3150000DC8040F209439A420BD1022809D8064B53F8B1
S3150000DC9020300B60054B53F820304B600020704756
S3150000DCA0052070470E03FF1F1403FF1FC802FF1F46
S3150000DCB02DE9F0474FF49B76654F4643BC19BB5D93
S3150000DCC094F82251052B7BD8DFE803F003111A22C2
S3150000DCD02B5F012803D15F4B1B7B002B70D028469E
S3150000DCE05D49022202F032F90123054606E0284684
S3150000DCF05A49022202F02AF902230546BB55A3E03F
S3150000DD0028465749022202F021F903230546F5E782
S3150000DD10284604F22311132202F018F904230546BB
S3150000DD20ECE794F82131DFF83CA1C3F19008B8F193
S3150000DD30080FA8BF4FF00808504603F12402E11867
S3150000DD405FFA88F900F8012B01314A4604F021FDFB
S3150000DD502846514609F1010202F0F8F894F82131FB
S3150000DD6098445FFA88F8B8F18F0F054602D884F810
S3150000DD70218169E0002384F8213104F19100611CBE
S3150000DD80902204F006FD0523B8E794F82131601CC3
S3150000DD9004F1910C882B28BF88239022C65C1CF8BE
S3150000DDA003108E421F460ED10133DBB2902B02F1D7
S3150000DDB0FF3228BF002312F0FF02EFD184F82121A1
S3150000DDC06FF0630540E0C3F190015A1E0829D4BFE5
S3150000DDD0521808321E46D2B21946914209D810F896
S3150000DDE001801CF801E0F04518BF0B460131C9B2AD
S3150000DDF0F3E7DFF8708006F12402C6F101061E443F
S3150000DE00404604EB0709F6B209F1010900F8012BB7
S3150000DE104946324604F0BDFCE01932464946913087
S3150000DE2004F0B7FC2846721C414602F08FF894F8BD
S3150000DE3021311E44F6B28F2E88BF0023054694BFBB
S3150000DE4084F8216184F821312846BDE8F08700BFB7
S3150000DE503703FF1FD028FF1FA505FF1FA305FF1FC0
S3150000DE603503FF1F842AFF1F38B5074D0446214698
S3150000DE70681C902204F096FC05F237102146902289
S3150000DE80BDE8384004F08EBC3703FF1F08B54FF4D9
S3150000DE909B720B4B5043191800221A5481F821210A
S3150000DEA093F8602242F0020283F86022FF20FFF717
S3150000DEB0DBFF03200349BDE8084002F0E7B900BFD5
S3150000DEC03703FF1F50360100044B03EB40020121CC
S3150000DED05170642203F81020704700BF8D2AFF1F7F
S3150000DEE070B5204C204D2378064605EB4002032BE7
S3150000DEF034D8DFE803F0020B12271C490023082060
S3150000DF0001220B7002F022F8012325E008201849AF
S3150000DF10072202F02DF802231EE01548052103F022
S3150000DF201FF820B112481349232202F0E9FF0F49D6
S3150000DF3015F816304B70022208200A7002F006F817
S3150000DF40032309E0094901230B70082053784B701D
S3150000DF50022201F0FBFF0023237070BD6FF0630007
S3150000DF6070BD00BF9A2AFF1F8D2AFF1F9B2AFF1F25
S3150000DF70932AFF1FE8B0FF1F1FB5104B104C1A68FD
S3150000DF8042F480621A600F4B1A6822F4E0621A604B
S3150000DF9001A803F01BF9204601A903F0ADF8236A96
S3150000DFA023F040032362204603F036F9064B08228D
S3150000DFB01A6000221A715A7104B010BD38800440EC
S3150000DFC000B0034000A00440A02AFF1F10B5074878
S3150000DFD0074A002103F068F9044C0021204603F0AB
S3150000DFE08BF90306F8D5206910BD00BF00B00340C9
S3150000DFF0A02AFF1F0E4B1A6842F4007213B51A606E
S3150000E000D3F8D02F0B4C22F4E06242F48072C3F8AE
S3150000E010D02F01238DF8043020460023022101AAC7
S3150000E0208DF8053003F0CCFE0423636002B010BD0A
S3150000E0303880044000F00F40064B1A6842F48062B4
S3150000E0401A6001224FF0030362F30A23024A938106
S3150000E050704700BF3880044000A00440064B1A6891
S3150000E06042F480621A6001224FF0030362F30A232E
S3150000E070024A1381704700BF3880044000A0044064
S3150000E0800D4B1A6842F4805213B51A600B4B0C4CB8
S3150000E090DA6922F4E06242F48072DA61094B2046C2
S3150000E0A01B88ADF80430072101AA03F089FE8023FE
S3150000E0B0636002B010BD00BF3880044000C0044059
S3150000E0C0C0F00F40343601002DE9FF414E8804466A
S3150000E0D00D469046006806210DF103021F46FEF725
S3150000E0E0BBFE9DF80330022B3DD8310AEB88029324
S3150000E0F0012902D1206809212AE00229F0B204D1BF
S3150000E1008DF80C000A21206822E0032907D1AB888C
S3150000E1108DF80E00ADF80C3020680B2118E021298F
S3150000E12005D1AB888DF80C3020680C2110E022292F
S3150000E13005D1AB888DF80C3020680D2108E0232925
S3150000E1400AD18DF80C00AB8820688DF80D300E21B1
S3150000E15001AA00F031FB00E00520019BC8F8003061
S3150000E160029B3B6000E0052004B0BDE8F08137B5B6
S3150000E17004460D46006806210DF10702FEF76CFE07
S3150000E1809DF80730032B0AD0013B012B17D86B886B
S3150000E1908DF80730072120680DEB01020CE020689E
S3150000E1A007210022FEF779FE50B9012320688DF879
S3150000E1B0073006210DF10702FEF76FFE00E005208D
S3150000E1C003B030BD37B50D460621002304460DEBDE
S3150000E1D0010200688DF80730FEF73EFE9DF8063016
S3150000E1E0012B01D9052037E06B78032B04BF0123EF
S3150000E1F08DF807302B7813F01F0309D16B88012B9C
S3150000E200F0D1206810210DF1070200F0D5FA23E0C5
S3150000E210022BE7D16B88002BE4D1AB8813F00F02F9
S3150000E22010D19DF80710DB0931B143EA02012068DD
S3150000E230C9B2FEF7EFFD05E043EA02012068C9B264
S3150000E240FEF7F9FD9DF8073020682A1D0BB1052160
S3150000E25000E0062100F070FA03B030BDF7B50546C0
S3150000E2600C461746006806210DF107021E46FEF70A
S3150000E270F3FD9DF8073063B9A38828682C4608216A
S3150000E28024F8103F2246FEF7E7FD02233C60336088
S3150000E29000E0052003B0F0BD2DE9F74304468846AB
S3150000E2A09146006806210DF103021D46FEF7D4FDD6
S3150000E2B09DF80330012B30D898F8006016F01F0641
S3150000E2C004F1100709D1206804213A46FEF7C4FD7F
S3150000E2D0238A03F00303238203E0012E04D10020E6
S3150000E2E0208202232B6015E0022E12D1B8F80430EA
S3150000E2F08DF8043020680023052101AAADF8063008
S3150000E300FEF7AAFDBDF8063003F0030323822E6054
S3150000E31000E00520C9F8007000E0052003B0BDE864
S3150000E320F08337B505460C46006806210DF1070255
S3150000E330FEF792FD9DF807308BB9A288A37828686E
S3150000E3402C4643EA022324F8103F0421224600F01B
S3150000E350F3F928680821224600F02EFA00E005208D
S3150000E36003B030BDF7B504460D46164600680621D3
S3150000E3700DF107021F46FEF76FFD9DF8073063B9E2
S3150000E38001233B6004F1100333602A79228220685E
S3150000E39012211A4600F010FA00E0052003B0F0BD85
S3150000E3A073B504461546006806210DF107021E46A0
S3150000E3B0FEF752FD9DF80730012B88BF052008D8CF
S3150000E3C0012304F1100233602A602068112100F055
S3150000E3D0F3F902B070BD37B504460D460068062154
S3150000E3E00DF10702FEF738FD9DF80730012B88BFB7
S3150000E3F005201ED8002320688DF8073006210DF170
S3150000E4000702FEF74AFD6B8843B9012320688DF8A1
S3150000E410073006210DF10702FEF73FFD0235032105
S3150000E4202A46206800F088F9206807212A4600F06D
S3150000E430C3F903B030BD2DE9F041052A05460C4667
S3150000E440069F079E12D10A7812F0600F07D01206B7
S3150000E45005D4CA881AB1191C18BF012100E0012190
S3150000E4602846C901BDE8F041FEF7D4BCCB88326826
S3150000E4709A4288BF336000213A683368FEF786FC0B
S3150000E480014650B994F90030002B06DA28460A46B0
S3150000E4900B46BDE8F041FEF77FBC0846BDE8F081BB
S3150000E4A02DE9F0414B688AB04FF00008013306466B
S3150000E4B00F461446CDF81080CDF8148001D1052002
S3150000E4C0C6E0002AFBD0062102F108050DF10F0275
S3150000E4D0FEF7C2FC397A002976D07B68082BEED18C
S3150000E4E03B68002BEBD05A8862819A885978A281C2
S3150000E4F0DA881B78E28113F0600F617223720BD108
S3150000E500554B53F82170002F55D004AA20462946B2
S3150000E51005ABB84702464FE003F020014AB31806A0
S3150000E52027D459B101210892304606AACDF81C809D
S3150000E5308DF82410069500F0FFF80DE05F063AD539
S3150000E540002307930892012330460F2106AA8DF86F
S3150000E5502430069500F030F9089B0593079B049339
S3150000E560024648BB11463046049AE389FEF714FC7E
S3150000E5706EE001F0FF0059B10023012108923046F8
S3150000E58006AA07938DF82410069500F0D5F80CE03E
S3150000E5905C0610D507900123089230460F2106AA83
S3150000E5A08DF82430069500F007F9089B0593079B24
S3150000E5B00493024600E0052204AB009305AB0193E9
S3150000E5C030462946002341E09DF80F30032B09D140
S3150000E5D0627A214B204653F82260294604AA05ABED
S3150000E5E0B04735E07B68002B3FF469AFE289002A2B
S3150000E5F03FF465AF227A10063FF561AF02F02000C6
S3150000E60000F0FF0458B13A6807928DF8241030469E
S3150000E610012106AA0695089300F08EF80CE0520632
S3150000E6200CD53A68079230460F2106AA8DF8244089
S3150000E6300695089300F0C0F8024600E0052204ABF8
S3150000E640009305AB0193304629460123FFF7F3FEFD
S3150000E6500AB0BDE8F08100BF543601007FB5134B08
S3150000E660029301238DF8043004AC002303918DF846
S3150000E670033080254023694602AA06468DF80250DB
S3150000E68024F8103DFEF78CFB68B98DF80200694648
S3150000E690304602AAFEF784FB044618B130462946E6
S3150000E6A0FEF79BFB204604B070BD00BFA1E400004E
S3150000E6B010B5044602F0FCFC084B1A6812B19A7CAD
S3150000E6C0A24203D002F0FEFC042010BD00241C6010
S3150000E6D05C609C7402F0F6FC204610BDC4B5FF1FBA
S3150000E6E038B505460C4602F0E3FC074B1A6812B132
S3150000E6F09A7CAA4203D002F0E5FC042038BD2360D0
S3150000E70002F0E0FC002038BDC4B5FF1F38B5054651
S3150000E7100C4602F0CDFC074A136813B1927CAA425C
S3150000E72003D002F0CFFC042038BD236002F0CAFCFF
S3150000E730002038BDC4B5FF1F2DE9F04104460F4641
S3150000E74016467AB302F0B4FC194B1A6894429846FE
S3150000E75002D002F0B7FC25E002F0B4FC002501244B
S3150000E760D8F80430197AEAB291421ED91B680C21F6
S3150000E77001FB02339A681279012A01D1002201E0D5
S3150000E78072B901220B49586801EB02123946D2F8D8
S3150000E79008C03246E047052808D0002808BF0024F4
S3150000E7A00135DDE70420BDE8F0812046BDE8F081B3
S3150000E7B0C4B5FF1F88360100F8B5104D04460E4655
S3150000E7C0174602F075FC2B689C4203D002F07AFCD7
S3150000E7D00420F8BD02F076FC012E08D12946204619
S3150000E7E0FFF73CFF204602212A46FFF7A5FF6B688C
S3150000E7F020465B6831463A469847F8BDC4B5FF1FC8
S3150000E8002DE9F04105460E461746002A50D000294C
S3150000E8104ED04B68002B4BD0274C02F049FC2368A6
S3150000E820A04663B1A37CAB4204D102F04BFC0120AD
S3150000E830BDE8F08102F046FC0220BDE8F081A57437
S3150000E84002F040FC666028461C492246FEF746FA5E
S3150000E850064640B12068FEF72BFA2846FFF728FF48
S3150000E8603046BDE8F0810446D8F80430197AE2B2A1
S3150000E870914217D919680C26564331448B681B7987
S3150000E880012B03D128460A1D00F0B6F9D8F804304A
S3150000E890196831448B681B7913B928460A1D9847B5
S3150000E8A00134E1E7044B1B683B600020BDE8F081C2
S3150000E8B00420BDE8F08100BFC4B5FF1FB9E7000022
S3150000E8C073B501A90646FFF70BFF28BB0446019B5B
S3150000E8D05A68107AE1B2884215D913680C254D435F
S3150000E8E02B449A681279012A02D1586800F0AAF9D5
S3150000E8F0019B5B681B681D44AB681B790BB9686894
S3150000E90098470134E3E71868FEF7D2F9044610B9D0
S3150000E9103046FFF7CDFE204602B070BD10B510465A
S3150000E9200C464AB10023537453683BB11B682BB1A4
S3150000E93001212246984710BD032010BD012010BDBD
S3150000E94010B510460C464AB10023937453683BB188
S3150000E9501B682BB102212246984710BD032010BD2B
S3150000E960012010BD38B58368054673B10024012027
S3150000E970AB681A79944207DA9B68286813F8241062
S3150000E980FEF72BFA0134F3E738BD012038BD00004D
S3150000E9907FB54268037B926851799942044601D259
S3150000E9A001204BE01268002AFAD003F10053013B24
S3150000E9B002EBC30612F833500023AB42F0DA0C2107
S3150000E9C0594370684218415C032915D1157A002312
S3150000E9D0AB4208DA190150684618405CA17B8842B0
S3150000E9E002D00133F4E70026D3786373002ED7D024
S3150000E9F0A6600025012001E00133DEE733799D4260
S3150000EA001CDA00238DF80430B368206803EB850216
S3150000EA1013F825308DF802305188ADF80010527881
S3150000EA208DF80320DB0914BF054B064B029369469C
S3150000EA3002AA03940135FEF7B3F9DFE704B070BD0F
S3150000EA401DE9000041E900007FB504461546002A8D
S3150000EA5000F0CA80002800F0C7800139052900F2BD
S3150000EA60C580DFE801F0600308192F49002303730E
S3150000EA7043748374BAE04368002B00F0B780037BCD
S3150000EA8012789A4200F0B2800BB1FFF76BFF2B7839
S3150000EA9023730023A37311E04368002B00F0A680C4
S3150000EAA01588437BB3EB152F40F0A080837BEDB236
S3150000EAB0AB4200F09B80FFF755FFA5732046FFF79A
S3150000EAC067FF96E04368002B00F090808368002B78
S3150000EAD000F08C8000260120A3681A79964280F205
S3150000EAE088809B682A7813F82610914202D1206804
S3150000EAF0FEF790F90136EFE74368002B76D083687E
S3150000EB00002B73D000260120A3681A79964270DA8A
S3150000EB109B682A7813F82610914202D12068FEF7E6
S3150000EB208AF90136F0E71368187800F01F0001280B
S3150000EB305CD11979627B91425BD15A78013A0A2AF3
S3150000EB4056D8DFE802F006121555555555551F3DA6
S3150000EB5047005A88120A8DF80C205B888DF80D3014
S3150000EB60636820461B6803211BE004F10F0601E0E1
S3150000EB7004F11006636820461B6804213246984754
S3150000EB806E6036E05A88297B120A8DF80C205B8865
S3150000EB908DF80D30AA68636851B11B680292204651
S3150000EBA0092101AA9847019B6B60029BAB6020E09C
S3150000EBB06968019102921B682046062101AA11E0AC
S3150000EBC05B881B0AE3732A68636820461B68072173
S3150000EBD0023207E05B88237463681B6820460821BD
S3150000EBE004F11002984704E0032002E0012000E04F
S3150000EBF0052004B070BD00002DE9F04100230F464A
S3150000EC00904614250E4E5D43AC5934B9741921460D
S3150000EC10FFF77CFD38B1BDE8F0810133052BF0D15B
S3150000EC200220BDE8F08173593BB1FF232073A37323
S3150000EC306760C8F80040BDE8F0810320BDE8F081B8
S3150000EC40D8B5FF1F10B5044638B1FFF78BFE002379
S3150000EC502373A3732360636010BD032010BD10B53A
S3150000EC60044640B1407C40B92068FEF78FF828B9C9
S3150000EC700123637410BD032010BD022010BD10B522
S3150000EC80044640B1807C40B92068FEF785F828B973
S3150000EC900123A37410BD032010BD022010BD83887C
S3150000ECA00268591C8180D05C704738B50546FFF76D
S3150000ECB0F6FF04462846FFF7F2FF44EA002080B23A
S3150000ECC038BD08B5FFF7F1FF00B208BD08B5FFF77C
S3150000ECD0E6FF003018BF012008BD10B50446FFF757
S3150000ECE0DEFFFF2804D12046BDE81040FFF7DDBF58
S3150000ECF010BD38B504460D46FFF7EFFF2880A38800
S3150000ED0022681844A080D01838BD0000F8B5044623
S3150000ED10FFF7CBFF2046FFF7E0FFFF2806463CD86B
S3150000ED200025EBB2B342204605F101050BD2FFF7F1
S3150000ED30B6FF2046FFF7B3FF2046FFF7B0FF204699
S3150000ED40FFF7ADFFEDE7FFF7C8FFFF28054626D81A
S3150000ED500026F1B2A942204605D200F0FDF901369F
S3150000ED600028F6D020E0FFF7B8FFFF28064618D89F
S3150000ED700027F9B2B14208D22046F2B2EBB200F057
S3150000ED801BF801370028F4D00EE0084B187850B96C
S3150000ED90074B1E70074B1D70F8BD0920F8BD0C20EF
S3150000EDA0F8BD0A20F8BD0020F8BD00BFA82AFF1F45
S3150000EDB086ACFF1FA3B0FF1F2DE9F04F89B00C46AC
S3150000EDC00DF11201994605461746B0F804B0FFF753
S3150000EDD090FF82462846FFF779FF05A98046284618
S3150000EDE0FFF787FF0DF116012846FFF782FF284639
S3150000EDF0FFF773FFBDF812104B1E022B00F2FA80CC
S3150000EE00042840F0F980824B1A7862B9814E46F8A0
S3150000EE1034A006EBC406B171A6F804B0B8F1000F31
S3150000EE2001D07D4B1C707D497D4A0F7082F80090A1
S3150000EE3000262846FFF751FF0428814600F2E480A9
S3150000EE400027FBB24B4580F0D9802846FFF727FF05
S3150000EE5003902846FFF723FF2846FFF73EFF40288A
S3150000EE60824600F2C1804FF000085FFA88F35345EE
S3150000EE7080F0B88066490A786AB9039A4FF4C0747C
S3150000EE805443062202FB03434FF4C064654A04FB65
S3150000EE900634144400E006AC2846FFF700FF20289D
S3150000EEA0834636D002D840B9207098E0222847D051
S3150000EEB03DD3232800F084808FE00121C0F3C102F6
S3150000EEC021701AB1022A04D9032A01D0002100E0D8
S3150000EED002211BF00100617007D0022A284602D1E8
S3150000EEE0FFF7E3FE01E0FFF7DAFE0BF00202A08077
S3150000EEF002F0FF0012B12846FFF7D1FE0BF0040323
S3150000EF00E07003F0FF0013B12846FFF7C8FEA070BB
S3150000EF1065E02846FFF7C3FE034628460193FFF740
S3150000EF20D5FE03222270019B0133A37051E02846CF
S3150000EF30FFF7B5FE39490B78834248D8082054E0DC
S3150000EF402846FFF7ACFE034620464FF0020C00F8B9
S3150000EF5001CB002103220193CDF808C003F022FC67
S3150000EF60019BDDF808C00C2B28D8DFE803F0070961
S3150000EF700C0F111416181A1D1F222400012300E07D
S3150000EF80042363702BE084F801C028E0012313E01A
S3150000EF9084F803C023E004230EE008230CE00123D9
S3150000EFA005E084F802C01AE0042300E00823A370F9
S3150000EFB015E0102300E02023E37010E0022014E0A7
S3150000EFC02846FFF76CFE16490B78834203D90423C3
S3150000EFD02370607003E00D2007E0032005E008F1D0
S3150000EFE0010842E7002000E00620013700283FF430
S3150000EFF028AF0AE00B2008E0042006E00136042EC4
S3150000F0007FF417AF002000E0052009B0BDE8F08FBF
S3150000F010A82AFF1FA81FFF1F84ACFF1FAAAAFF1F55
S3150000F020A9AAFF1FA807FF1F2DE9F843960806F0B7
S3150000F0300308B60806F0020381460C4602F00307F1
S3150000F04003F0FF0513B1FFF72AFE054616F0010F80
S3150000F0504FF0000603D04846FFF721FE00E0304699
S3150000F060E070277084F80180A570A6710020BDE8C5
S3150000F070F88338B50C461546FFF711FEA5F1400298
S3150000F080012360702270A371002038BD70B50C4654
S3150000F0900546FFF716FE06462846FFF712FE022330
S3150000F0A060802680A371002070BD70B50C460546B1
S3150000F0B0FFF707FE06462846FFF703FE0323608098
S3150000F0C02680A371002070BD13B50C460DF1060114
S3150000F0D0FFF70FFE0523A371BDF806302060002060
S3150000F0E0A38002B010BD38B505460C46FFF7D7FD24
S3150000F0F04228024607D8402812D228462146BDE8B3
S3150000F1003840FFF791BF442816D00FD3452819D0B1
S3150000F11046281FD128462146BDE83840FFF7D4BF10
S3150000F12028462146BDE83840FFF7A3BF28462146BA
S3150000F130BDE83840FFF7AABF28462146BDE838405B
S3150000F140FFF7B3BF2846FFF7BCFD04232080A37159
S3150000F150002038BD072038BD7FB504460D46FFF7B1
S3150000F160B5FD2046FFF7B2FD0DF106012046FFF77B
S3150000F170C0FD2046FFF7B1FD0C4BA2881B78064662
S3150000F1802BB90B4B23F8252003EB8505688000255A
S3150000F190ABB2B34207D2204602A9FFF7A4FF01355E
S3150000F1A00028F5D000E0002004B070BDA82AFF1F9B
S3150000F1B096ACFF1F184A41F23C0310B5D15841F4F2
S3150000F1C00001D150154B012400214FF0FF32196088
S3150000F1D0C3F81021C3F81811C3F81C41D3F818114D
S3150000F1E041F00401C3F81811D3F818112143C3F8EC
S3150000F1F01811C3F80021C3F80C41C3F8084100F008
S3150000F200D9FA074BC000B0FBF3F0064B002808BF45
S3150000F2102046186010BD00BF007004400070034017
S3150000F22040420F00ACAAFF1F10B5074BD3F814419C
S3150000F230D3F80421D3F804319A42F6D300201043C0
S3150000F240C043E14310BD00BF0070034038B504461B
S3150000F250FFF7EAFF084B1B68A4FB0345E20842EAF6
S3150000F2604572EB08841841EB0305FFF7DDFFA94261
S3150000F27008BFA042F9D338BDACAAFF1F013938B583
S3150000F2801446082929D8DFE801F005142144442A48
S3150000F290442850005368013B033348D8254B18686F
S3150000F2A08369002B43DD90F84630012B3FD118309F
S3150000F2B009E053685A1E033239D81E4A1068C361E2
S3150000F2C001230373143000F021FD30E0194B186858
S3150000F2D000212030242203F065FA012038BD9378FE
S3150000F2E0144D3BB9D3782BB91078012802D12B687D
S3150000F2F0587338BD286862682146203003F049FA01
S3150000F30028686268C26101240473143000F0FEFCB0
S3150000F310E3E7084C20680021143000F0EBFC20687D
S3150000F3200021183000F0E6FCD7E7052038BD0020A4
S3150000F33038BD00BFB0AAFF1F012938B50C460DD154
S3150000F340074D2A68242382F846109068022120324D
S3150000F350FFF795FC2B6883F8474038BD002038BD81
S3150000F360B0AAFF1F51B9064B1B68022183F848203B
S3150000F370986803F120022423FFF781BC0020704720
S3150000F380B0AAFF1F014B186000207047B0AAFF1FEC
S3150000F390024B18600023836018467047B0AAFF1F0F
S3150000F3A005207047087A20B9034B0B604C234B604D
S3150000F3B070470520704700BF8006FF1F0520704775
S3150000F3C0024B0B6012234B60002070475407FF1F4F
S3150000F3D0087A20B9034B0B6029234B607047052040
S3150000F3E0704700BFE405FF1F887A0E4B10B520B9A1
S3150000F3F01A685B680A604B6010BD9B680C891A89A5
S3150000F400944201D1032801D9052010BD1A685B6812
S3150000F41000B252F8202053F820300A604B600020DA
S3150000F42010BD00BF0807FF1F10B5036900219C68C7
S3150000F4300A460B46A04710BD0020704720207047A3
S3150000F44038B5084D05F114042046002100F052FCA1
S3150000F45005F11800002100F04DFC204600F056FC96
S3150000F460002038BDE0AAFF1F08B50020FFF728FAE4
S3150000F47098B90A48FFF78CFF094A41F23403D1587C
S3150000F48049030AD507494FF40010C1F88400C1F8B2
S3150000F4908401D15821F48021D15008BDE0AAFF1F74
S3150000F4A00070044000E100E0154B41F248020021E3
S3150000F4B0995041F204020120995841F4E0219950F3
S3150000F4C041F23402995841F4802199501A6842F069
S3150000F4D000421A601A6822F440221A6003F52C339F
S3150000F4E0032283F8442193F8402142F0800283F8F6
S3150000F4F0402193F8402142F0200283F840217047D2
S3150000F5000070044070B5164C164D0021502220465E
S3150000F51003F048F9FFF7C8FF134B144A1A6000209E
S3150000F5202946224684F84C0084F84D00A0602060ED
S3150000F530FFF766F9064688B92B6820465B68A36024
S3150000F540FFF720FF0A4B302283F835234FF40012D1
S3150000F5505A602068FDF7A8FB304670BD012070BDDB
S3150000F560E0AAFF1FCC05FF1FB4AAFF1F0807FF1F55
S3150000F57000E100E0034B93F84D0000B1187B00F06A
S3150000F58001007047E0AAFF1F2DE9F8431646894699
S3150000F590002946D0002A44D0002232601BB1012B3C
S3150000F5A039D1022700E00127FFF7E4FF002839D010
S3150000F5B01D4DAB7B33B1A868022105F1200224233F
S3150000F5C0FFF75DFB184C4FF0010804F114004FF0F3
S3150000F5D0FF3185F80E8000F08FFB95F82030BB4296
S3150000F5E008D047451AD1022B0CBF4FF0FF304046DA
S3150000F5F0BDE8F88394F8232094F8223043EA0223E6
S3150000F600E269043A9A4209D32434C9F8004000203A
S3150000F6103360BDE8F8830120BDE8F8834046BDE8C5
S3150000F620F8830420BDE8F883E0AAFF1F2DE9F04126
S3150000F6300F4615461C46FFF79DFF00283AD0202DA1
S3150000F6403BD824B1012C3BD14FF0040801E04FF028
S3150000F650030800F061FB1C4B5E7B1C463EB100229A
S3150000F6605A7300F061FB4FF0FF30BDE8F08100F007
S3150000F6705BFB84F8208084F8216084F8225084F8AB
S3150000F680236037B12DB104F1240039462A4603F030
S3150000F69080F894F846100C4D01290BD1A86805F1A5
S3150000F6A020022423FFF7DBFA05F118004FF0FF31A3
S3150000F6B000F022FB0020BDE8F0810420BDE8F081C7
S3150000F6C00120BDE8F08100BFE0AAFF1F013910B597
S3150000F6D011291BD8DFE801F0091A1A1A1A1A0E1C8A
S3150000F6E040474E555C631A1A2C33314B002283F87F
S3150000F6F04D200BE052B12E4B012183F84D101178AD
S3150000F70083F84E1098681178FFF716FE002010BD9A
S3150000F710274B93F84D100029F8D01088040AF5D12C
S3150000F720C2B22146986883F84F20FFF71BFEEDE72B
S3150000F730002AEBD01E4B93F84E301370E6E7002AF2
S3150000F740E4D01388190A31D1194890F84F0023F0F4
S3150000F750FF0303431380D9E7002AD7D01146BDE83B
S3150000F7601040FFF72DBE002AD0D01146BDE810404C
S3150000F770FFF72EBE002AC9D01146BDE81040FFF79C
S3150000F78033BE002AC2D01146BDE81040FFF708BEBE
S3150000F790002ABBD01146BDE81040FFF703BE002A81
S3150000F7A0B4D01146BDE81040FFF708BE052010BDD5
S3150000F7B0E0AAFF1F054A41F24403D358044AC3F3A3
S3150000F7C0036310680133B0FBF3F070470070044028
S3150000F7D00000FF1F08B5FFF7EDFC002205480649AB
S3150000F7E0134602F05BFE05480021BDE80840FFF71E
S3150000F7F089BE00BF00600640B8AAFF1FCC360100D4
S3150000F800014B1870704700BF9007FF1F014B5880CF
S3150000F810704700BF9007FF1F10B586B00A4B0490D3
S3150000F820059106A900241B7841F8184D07488DF864
S3150000F830043069468DF8054002948DF80C4002F0BC
S3150000F84093FD204606B010BD9007FF1F00600640DE
S3150000F85010B586B00B4B0490059106A900241B78C1
S3150000F8608DF8043041F8184D0123694606488DF895
S3150000F870053002948DF80C4002F076FD204606B065
S3150000F88010BD00BF9007FF1F0060064037B5044655
S3150000F89001A80D4601F045FB01A82146042201F00E
S3150000F8A043FB01A82946628801F03EFB01A80DF141
S3150000F8B0060101F051FBBDF8060003B030BD0000A3
S3150000F8C0034B1B78012B01D1FFF7C2BF0120704704
S3150000F8D030ABFF1F73B506464FF47A700D46FFF73F
S3150000F8E0B5FC80240DF107000121FFF7E9FF9DF823
S3150000F8F007305A2B03D101203370286007E04FF4FC
S3150000F900FA70FFF7A3FC013CECD12C60204602B054
S3150000F91070BD0000034B1B78012B01D1FFF77CBFA4
S3150000F9200120704730ABFF1F1FB5A02302228DF8C0
S3150000F93004308DF807200023029003910C2201A9C0
S3150000F94004488DF805308DF80630FFF76FFE05B0D8
S3150000F9505DF804FBCC3601001B4B002273B55A61DF
S3150000F9601A6104461E4648BB1848184D01A9FFF700
S3150000F970B1FF012809D1019B012B06D1681C052185
S3150000F980FFF79EFF041C18BF012469881048C9B2FE
S3150000F990FFF796FF002818BF01245A23012C8DF883
S3150000F9A000304FF47A700CBFA223A1238DF80130EA
S3150000F9B0FFF74CFC68460221FFF7ACFF2046317F7B
S3150000F9C0FFF7B2FF02B070BD34ABFF1F54ABFF1F91
S3150000F9D05AABFF1F2DE9F041AD4E3368022B8EB0B6
S3150000F9E0344600F0A780032B00F0E180012B00F0E5
S3150000F9F03E81A848311D06F108020023FFF7C4FD29
S3150000FA000546002840F06781B368002B00F063814B
S3150000FA1076683778C12F0DD13079FFF7F1FEB068DF
S3150000FA20FFF7F4FE9C4B01221A7028463178FFF747
S3150000FA307BFF50E1032F0BD104F10C002946142261
S3150000FA4002F0B0FEB368236173686361277701E053
S3150000FA50102F01D102230FE0082F01D0042F0CD163
S3150000FA608E480021142202F09DFEB368236173685C
S3150000FA70636104232377032323605A23A2688DF846
S3150000FA801030A42361688DF81130ADF812201AB138
S3150000FA900DF1160002F07DFE0DF1160104A8FFF728
S3150000FAA0F5FEBDF81210ADF81400063104A8FFF7F4
S3150000FAB031FF002840F0DE80212601A802A9FFF7C9
S3150000FAC009FF012840F0D6800299012940F0D28032
S3150000FAD09DF804305A2B21D10DF10500FFF7F0FEF9
S3150000FAE0002840F0C7809DF80570A12F40F0C28025
S3150000FAF06B4C03A92046FFF7EDFE012840F0BA80C3
S3150000FB00DDF80C80B8F1010F40F0B480601C0521CF
S3150000FB10FFF7D6FE002840F0AD80ADE0013E16F0BE
S3150000FB20FF06CAD15B485F4932460023FFF77EFDD8
S3150000FB300546D0E03669002E00F08A8004A806212A
S3150000FB40D4F81480202E34BF35462025FFF7B8FEA2
S3150000FB5038B904A82946FFF7B3FE071C18BF0127CA
S3150000FB6000E001275A238DF80C300FB1A22300E0E4
S3150000FB70A12303A802218DF80D30FFF7CBFE37B184
S3150000FB8004A9002201234348FFF750FD63E0761BDA
S3150000FB90404804A92A460123FFF748FD002E5BD002
S3150000FBA0002859D145442661656102235CE0356928
S3150000FBB00DB9002050E0002302933648D6F8148091
S3150000FBC001A902AA0123FFF7DFFC0646002843D15C
S3150000FBD0029A002AEDD05A23AA4228BF2A468DF857
S3150000FBE0103001990292A5230DF116008DF81130FF
S3150000FBF0ADF8122002F0CDFD0DF1160104A8FFF7B5
S3150000FC0045FEBDF81210ADF81400063104A8FFF742
S3150000FC1081FE08B1012618E02127684603A9FFF7EF
S3150000FC2059FE01284ED1039901294BD10DF101004E
S3150000FC30FFF746FE002845D19DF800305A2B04D028
S3150000FC409DF80160A13E18BF0126029BED1A01D165
S3150000FC50304601E026B10120FFF77EFE002303E0D7
S3150000FC6043446361256103232360002533E00025B7
S3150000FC70356030E001252EE06688F6B2A01D3146DB
S3150000FC80FFF71EFE80B1A2238DF8053045460DE034
S3150000FC9034ABFF1FCC36010030ABFF1F40ABFF1F5C
S3150000FCA054ABFF1F5AABFF1F8DF805704FF47A70E7
S3150000FCB0FFF7CCFA01A80221FFF72CFE002D3FF436
S3150000FCC031AF08E09DF800305A2BA3D0013F17F062
S3150000FCD0FF07A2D19EE728460EB0BDE8F08100BF1F
S3150000FCE008B5034B00221A60FFF774FEFCE700BF5D
S3150000FCF034ABFF1F0160704772B6036801330360BF
S3150000FD0062B60368002BFCD10120704772B6036807
S3150000FD10013B036062B6704772B6024B1A68013245
S3150000FD201A60704794ABFF1F054B1A68012A03D867
S3150000FD3000221A6062B670471A68013A1A60704764
S3150000FD4094ABFF1F38B5144A144B12881B88144C09
S3150000FD50144D1A4492B2110A6270134A2170128825
S3150000FD601249D21A0968402AA8BF40222A701944AB
S3150000FD70A01CD2B202F00DFD0D4A2B781461502161
S3150000FD80023311710021517153610A480A49BDE8D5
S3150000FD90384002F0BDBB00BF06ACFF1F10ACFF1F12
S3150000FDA098ABFF1F34ACFF1F14ACFF1F0CACFF1F3A
S3150000FDB01CACFF1F00700640DCABFF1FF8B51F4BE5
S3150000FDC01F4E1B7832601F4C032B34D8DFE803F03C
S3150000FDD0021F021F1C4A1178174600292BD11BB996
S3150000FDE01A4B1968402303E0194B196847F6C0738C
S3150000FDF0184A50200125116110711749174855718D
S3150000FE00536102F085FB257030603D70F8BD144BE0
S3150000FE1022B9144A11781A880A441A801A88124B91
S3150000FE201B889A422CBF0023012323702BB1FFF7B6
S3150000FE3089FF3060F8BD00232370F8BD35ACFF1F85
S3150000FE4018ACFF1F12ACFF1F04ACFF1FA805FF1F55
S3150000FE50B005FF1F1CACFF1FDCABFF1F0070064088
S3150000FE6010ACFF1F34ACFF1F14ACFF1F0248034940
S3150000FE70034A002302F012BB00700640DCABFF1FF2
S3150000FE80BDFD000070B5234D297800293FD1224BD6
S3150000FE90224A187001288CBF00230123002B0CBFB7
S3150000FEA04024002414801E4A5470117016461D4CBE
S3150000FEB0032825D8DFE800F0021002101A4B1B4A6F
S3150000FEC0197050231371517102231949194816618B
S3150000FED0536102F01DFB12E00BB1174A00E0174A0E
S3150000FEE0174912680A60174A00218B421180164B87
S3150000FEF047F6C07218BF40221A80FFF723FF206022
S3150000FF002068D0F1010338BF00232B7070BD40F28A
S3150000FF104C4070BD12ACFF1F35ACFF1F06ACFF1F77
S3150000FF2008ACFF1F18ACFF1F04ACFF1F1CACFF1F63
S3150000FF30DCABFF1F00700640A805FF1FB005FF1FC2
S3150000FF400CACFF1F10ACFF1F14ACFF1F054B187144
S3150000FF500020196158715A61034804491A4602F093
S3150000FF60D7BA00BF60ACFF1F0060064038ACFF1F69
S3150000FF70054B18710120196158715A6103480449EB
S3150000FF801A4602F0C5BA00BF60ACFF1F006006400B
S3150000FF9038ACFF1F144B1A68013230B51A60134A89
S3150000FFA0134B10681968884285B015461C4613D154
S3150000FFB0104908680130086001A801F081FF0E4869
S3150000FFC001F06EFF022001F075FB01A902460A4806
S3150000FFD001F0CCFF00F082FB2A68084B2260012268
S3150000FFE0C3F80C2105B030BD80ACFF1FF0B1FF1F78
S3150000FFF078ACFF1F7CACFF1F00600640007003401A
S3150001000013B5134C02A9002301F8043D204602F062
S3150001001011FB022001F04EFB0E4B0F4AA0FB030120
S315000100200023FCF70DFBC4F80001D4F8083143F0B6
S315000100300203C4F80831094B4FF480325A60D4F8F0
S31500010040083143F00103C4F8083102B010BD00BF06
S3150001005000700340A086010040420F0000E100E06D
S3150001006038B5354CAA232370344B1B6958071AD46B
S3150001007041F24403324A3349D15002F581521C32CE
S31500010080136843F0005313602F4B1969C90511D446
S31500010090196921F4705141F4C0511961196941F48A
S315000100A08071196106E0204602F0ECFAE378802BB4
S315000100B0FCD1DDE718692449214D20F4007018614F
S315000100C022484FF4004404605B69214CDB0744BFBE
S315000100D00B680B601368A17823F000531360E27874
S315000100E0607801F067FB1B4B22791978D20001F089
S315000100F0C70102F038020A431A70002104F108020E
S31500010100E07901F0E7FB144801F0E4F9134B144AD6
S315000101101A6041F2040400202B59124923F01003FE
S315000101202B5101F0F5F92B5923F0E0032B512B59F3
S3150001013043F480532B5138BD00E0074040F00F4097
S31500010140007004400000230100D00340E0B1FF1F0E
S315000101509407FF1F00400640A007FF1F0000FF1F76
S31500010160000E2707006CDC0230B51B4C85B001A8D8
S3150001017001F0A6FE2368194A43F4805323602368DD
S3150001018043F48053236040F2237393811D46138108
S315000101900220134B029301F08DFA01A90246114880
S315000101A001F0E4FE236843F400632360236843F40B
S315000101B00063236002200C4B60F30A259D851D8593
S315000101C00A4B029301F076FA01A90246084801F0AA
S315000101D0CDFE05B030BD00BF3880044000C00440EC
S315000101E0A08601000060064000B0044040420F00B6
S315000101F00070064008B5FDF7FDFEFDF72FFFFDF780
S315000102001BFFFDF7B9FEFFF7AFFFFDF739FF00F062
S31500010210B5F8FFF7F5FEBDE80840FFF727BE000079
S3150001022070B50B4D0B4B044605EBC40618700A4816
S31500010230B3888380094B1A78094B21461B78FEF750
S31500010240BBFDB07955F83410BDE8704000F01EB81A
S31500010250A81FFF1F85ACFF1FB005FF1F86ACFF1F40
S31500010260A3B0FF1F30280BDB392804DD41381928DC
S3150001027006D8044B01E0044B303833F810007047C0
S31500010280002070470C370100F836010002282DE9DD
S31500010290F84388460ED0032804D001281DD1002634
S315000102A0002711E091F90200FFF7DCFF80B2070990
S315000102B0060701E00026002798F90100FFF7D2FFA3
S315000102C08003064347EAE07798F90000FFF7CAFF83
S315000102D0002180B23043394301E000200021012290
S315000102E01B4E0240524286F842214B084FEA300229
S315000102F002F00102524286F84321820842EA8172E3
S315000103008B0806F1180706F1980C00264FF0010933
S3150001031009FA06F903EAE97102EA090007EB060898
S3150001032050EA010906F101060CBF00216FF0000138
S31500010330052E88F83711E9D15409103744EAC36408
S315000103405D09674522462B46DFD1BDE8F88300BF2C
S315000103503703FF1F084B002283F8442183F85421F9
S3150001036083F86421421E022A04D803EB0013FF22FC
S3150001037083F83421704700BF3703FF1F1A4B1A68F1
S3150001038042F4805270B51A60184B194C9A6922F4DE
S31500010390E0628AB042F480629A6104A801F0ECFB43
S315000103A004A9204601F0CAFA0025062301260220E7
S315000103B08DF80C308DF80D608DF80E508DF80F50BC
S315000103C001F078F945F6C053009301902B4620467B
S315000103D003A9324601F0F0FB236823F0180343F02A
S315000103E0080323600AB070BD3880044000C0044091
S315000103F00080034010B5074CC0F16403DBB2204610
S315000104000621002201F0A2FCA36D43F08003A3653F
S3150001041010BD00BF0080034010B590B10023094A0A
S31500010420D1188978814211460BD00133062BF6D1BA
S315000104300023CA1894780CB9907010BD0133062BAD
S31500010440F7D110BD8EACFF1F58B10023054A1A44DF
S315000104509178814202D10023937070470133062BB4
S31500010460F4D170478EACFF1F024B1A7810431870F7
S31500010470704700BF8EACFF1F024B1A7822EA0000BC
S31500010480187070478EACFF1F28B1034B1A78824251
S3150001049001D002B918707047A2B0FF1F28B1034BF3
S315000104A01A78824204BF00221A707047A2B0FF1F59
S315000104B070B5234C2378012B2ED002D3022B1CD0EE
S315000104C03BE0204BE0781A787AB901251D70FFF7D9
S315000104D0CBFF63782BB1022B2DD1A078FFF7D4FF88
S315000104E029E0A078FFF798FF25E000251D70FFF7AA
S315000104F0C3FF667866B1022E05E0E078FFF7BCFF20
S3150001050065782DB1022D18D1A078FFF7C7FF14E049
S31500010510A078FFF799FF10E0E078FFF7A5FF65786F
S315000105202DB1022D09D1A078FFF7AEFF05E0A07825
S31500010530FFF772FF01E0284670BD002070BD00BFC5
S315000105409BB0FF1FA4B0FF1F034B9B790BB9FFF7AD
S31500010550AFBF0020704700BF9BB0FF1F08B5FFF774
S31500010560F3FFA8B90B4A138801339BB213800A4AD9
S3150001057011780A4A02EB810252889A4202D1084B4B
S31500010580187008BD07480849BDE80840FEF7ABBD2D
S3150001059008BD00BFA6B0FF1FA5B0FF1F96ACFF1F89
S315000105A092B0FF1FB005FF1F9BB0FF1F10B50E4C89
S315000105B02378BBB1FDF7E4F9FDF76CFAFDF7EAFA2A
S315000105C00A4800F044FD0A490A48402202F0E1F8CF
S315000105D000F0D6FBFDF7CCF9FDF754FAFDF7D2FA98
S315000105E00023237010BD00BFD829FF1F6028FF1FFD
S315000105F06C28FF1FA8B0FF1F10B5174CFFF730FD81
S31500010600FFF7F8FDD4E9002311A1D1E900018B42DE
S3150001061008BF82420CD1237A032B09D10022002381
S31500010620C4E90023FFF7D6F8BDE81040FFF758BB31
S3150001063000F054F8094800F0AFFCFFF7B7FF00F0EF
S3150001064011F9FFF7B3FF30BFFBE700BFAFF300803F
S315000106509A1F52949ECD043B00FF00206028FF1F85
S315000106602DE9F8439146194B194F1A68DFF868804E
S31500010670184D98F8006001321A603B78D9F10102F1
S3150001068005EB03134FEA061605EB060438BF0022F5
S315000106901A73237B13B96368A85D9847A368A85D9D
S315000106A09847643018BF012008B10123237398F8D5
S315000106B000203A700132D2B2074B022A88BF0022CB
S315000106C01A700028CFD0BDE8F88300BFACB1FF1F78
S315000106D0B0B1FF1FD028FF1FA8B1FF1F38B50B4AC5
S315000106E00B4C0C4D0C480D490023137023732377D3
S315000106F084F82C300A4A2B7001F0D0FE2B781B01AE
S31500010700E218E05C9268904738BD00BFB0B1FF1FA8
S31500010710D028FF1FA8B1FF1F0060064038ACFF1F9D
S315000107206106010070B514462AB9012911D00829BC
S3150001073040F081802FE0013911297CD8DFE801F0F2
S31500010740097B7B7B7B7B0D2B5D62676C71767B7B8B
S3150001075027503B4B0020187670BD394D01232B766F
S3150001076013786B761178E868FDF760F92178A86847
S31500010770FDF724F921786868FDF7D8F92178286909
S31500010780FDF7A6F968692178FDF722FA33E02C4BCB
S315000107905B7E13702FE02A4D2B7E002B4BD02688D3
S315000107A0340A042C47D8F6B22B1921463246E8689A
S315000107B09E76FDF741F921463246A868FDF704F910
S315000107C0214632466868FDF7B7F92146324628695F
S315000107D0FDF784F9686921463246FDF7FFF90AE01B
S315000107E013881A0A042A28D815490A4423F0FF0354
S315000107F0927E13432380002070BD1146BDE87040F0
S31500010800FDF7FEB91146BDE87040FDF7EDB9114699
S31500010810BDE87040FDF72CBA1146BDE87040FDF702
S31500010820F7B91146BDE87040FDF7F4B91146BDE8C8
S315000108307040FDF71BBA012070BD052070BD00BFD9
S31500010840B4B1FF1F044B1B7A032B0CBF034B044BA4
S315000108501868FCF74FBE00BF00FF0020E0AAFF1F8B
S31500010860B4B1FF1F38B5134C134DFCF7A9FF13495B
S315000108704FF4E02000F04CFE224600202946207667
S31500010880FDF7BEFF2B685A68E2601A69A260DA6951
S3150001089062609A6A5B6B6361094B2261302283F85D
S315000108A035234FF400125A602068BDE83840FCF742
S315000108B0FBB900BFB4B1FF1F0029FF1F006CDC02AA
S315000108C000E100E00C4B5A780C4B052A11D8DFE801
S315000108D002F003030303060A01225A7070474022FD
S315000108E05A70002203E06FF03F025A707F229A701D
S315000108F0704701221A707047292AFF1FE929FF1F35
S315000109000BA3D3E900230649C1E90023054B064A97
S315000109105B780B72054BDA60FEE700BFAFF3008030
S3150001092000FF0020292AFF1F0400FA0500ED00E060
S315000109309A1F52949ECD043B064B074A5B78802151
S315000109400BB9916000E051600033044A18BF0123DE
S3150001095053707047292AFF1FC0F00F408D2AFF1FD1
S31500010960044B1A69044BC2F3C00282F001025A70A9
S31500010970704700BF40F00F40E929FF1F2DE9F347FB
S315000109802C4D2D4E2D4C4FF000084FF0010A2846F4
S3150001099086F800A0A5F80480FEF7B8F9AB88637065
S315000109A01B0A07462070A37084F8038000283ED1F5
S315000109B0DFF89C90DFF8908099F80030032258F810
S315000109C0331001A801F0E5FE99F80030377008EB05
S315000109D0C3031B4E93F8069032682B68336030468A
S315000109E02A60B780FEF792F9B38863701B0A2070FC
S315000109F0A37084F803A0D0B90546124B1B78ECB25C
S31500010A00A34210D908EBC4039B794B4509D10E4B80
S31500010A1001A853F834104A4601F0ACFE08B9204645
S31500010A2003E00135E9E7094B1878FFF7F9FB02B056
S31500010A30BDE8F087B805FF1FA82AFF1FE929FF1F98
S31500010A40B005FF1F86ACFF1FA81FFF1F84ACFF1F49
S31500010A5085ACFF1F10B5044B5C782046FFF7CAFC36
S31500010A60024B1C7010BD00BF292AFF1F8D2AFF1FD4
S31500010A7008B5FDF7ABFA044B020A18705A70020C5E
S31500010A80000E9A70D87008BDE929FF1F014B5878EE
S31500010A90FFF7F8B9292AFF1F10B50E4B5A785B8864
S31500010AA03F2A01D901220CE018B10B4940200968FF
S31500010AB003E00A49096847F6C0709C18844203DDC1
S31500010AC00222074B1A7010BD06481944BDE81040B2
S31500010AD001F05FBE292AFF1FA805FF1FB005FF1FF2
S31500010AE0E929FF1FEA29FF1F10B50E4B5A785B88CB
S31500010AF03C2A01D901220CE018B10B4908684021B2
S31500010B0003E00A49086847F6C0719C188C4203DD68
S31500010B100222074B1A7010BD18440649BDE8104061
S31500010B2001F037BE292AFF1FA805FF1FB805FF1FC1
S31500010B30E929FF1F2D2AFF1F024B1A78024B5A7013
S31500010B40704700BF12ACFF1FE929FF1F144A154B5E
S31500010B50116859701168090A997011681268120EA4
S31500010B601A71114A12685A71090CD970110A9971D0
S31500010B70110C120E1A720D4AD97112685A72110AA3
S31500010B809972110C120E1A73094AD97212685A73A4
S31500010B90110A9973110C120ED9731A74704700BF9A
S31500010BA0F0B1FF1FE929FF1FACB1FF1F80ACFF1F8A
S31500010BB07CACFF1F08B52448402101F087FD234B7B
S31500010BC01B78112B3ED8DFE803F0090D0F3D3D3DA3
S31500010BD03D1317191D2125292B303539BDE808404C
S31500010BE0FFF770BEFFF78CFEBDE80840FFF7A4BE15
S31500010BF0BDE80840FFF7B4BE002012E0BDE808409A
S31500010C00FFF7BCBEBDE80840FFF724BFBDE80840BA
S31500010C10FFF72EBFBDE80840FFF738BF012005E00A
S31500010C200120BDE80840FFF75FBF0020BDE808408E
S31500010C30FFF732BFBDE80840FFF77EBFBDE80840B9
S31500010C40FFF784BF08BD00BFE929FF1F292AFF1F3F
S31500010C50F7B502AB03E903009DF802109DF80140C8
S31500010C609DF8033029B133B9D4F1010238BF00220E
S31500010C7002E00A4600E0002212F001062B4805D0E8
S31500010C8002781AB12A4A157801351570294A69B1CF
S31500010C90274D2F78042F09D100272F70CF0744BF86
S31500010CA0012555718D0744BFFF21517113F0300F96
S31500010CB01AD021490D780135EDB2322D01D00D70D2
S31500010CC02DE000250D70D90605D51C490D78092D95
S31500010CD09CBF01350D709B0621D5184B197801294A
S31500010CE01DD9013919701AE0CBB15F0704D5134933
S31500010CF009784942A2F801101D0703D50F49097861
S31500010D00A2F80110D90704D50C4909784942A2F87D
S31500010D1003109B0703D5094B1B78A2F80330137800
S31500010D2006701C43147003B0F0BD00BFD5B1FF1FA0
S31500010D30D8B1FF1F7A2AFF1FD6B1FF1F4829FF1F0F
S31500010D4030B500220C49104600230C4C1444E45CD7
S31500010D503CB106245C430D190C5DAD78032C08BF2C
S31500010D6028460133402BF0D14032B2F5807F01F5A0
S31500010D70C071E9D130BD00BFA807FF1FA8B0FF1F92
S31500010D802DE9F04F514885B0072101F09FFC504BEA
S31500010D901C78C4B1FFF7E2FB4E494C48072201F02B
S31500010DA0F8FC4D494D48082201F0F3FC4C494D48E9
S31500010DB0082201F0EEFC4C484C49012205B0BDE881
S31500010DC0F04F01F0E6BCFFF7BBFF0746FFF7C2FA9B
S31500010DD04FF4C0637B4301930094A1462646019BD1
S31500010DE0434D1D44062303FB04554FF00008414BB8
S31500010DF0234413F80830002B49D02B78A98828689A
S31500010E00029002AA022B9180687895F803C08B465E
S31500010E101FFA81FA2CD0042B37D0012B37D12F4A58
S31500010E201268117801284CEA010C82F800C00BD037
S31500010E3002D3022814D02AE0052E28D8731C1644A2
S31500010E4086F802A0DEB222E0B9F1030F1FD8254AC7
S31500010E50126809F1010322F819B05FFA83F916E065
S31500010E60009AA2B9204A0093126882F800A00EE007
S31500010E708DF808308DF809008DF80BC0ADF80C100F
S31500010E8092E80300FFF7E4FE01E0FFF7C9F908F174
S31500010E900108B8F1400F05F10605A8D14034B4F5B3
S31500010EA0807F9CD10D4A1449144B47B10878B8424A
S31500010EB005D126B910681D7804782C430470126890
S31500010EC00F7012781A7005B0BDE8F08F7A2AFF1FED
S31500010ED092B0FF1F87ACFF1F8EACFF1F0C00FF1FD8
S31500010EE093B0FF1F7C00FF1FE000FF1FA2B0FF1F92
S31500010EF0A807FF1FA8B0FF1FD7B1FF1FD4B1FF1F5F
S31500010F0030B50023DCB294420AD2E50804F00704A6
S31500010F10455D45FA04F404F00104CC540133F1E7CC
S31500010F2030BD002303807047038870B500249442C6
S31500010F3010D00D5D082683EA05256B002D0444BFFC
S31500010F4083F4815383F00103013E01D01D46F4E78A
S31500010F500134ECE7038070BD03880B807047000005
S31500010F60F8B50C4E05460C46224629460027304662
S31500010F703780FFF7D9FF3388295DDAB2914207D16D
S31500010F802C446278B2EB132F14BF00200120F8BD68
S31500010F903846F8BDDAB1FF1FF7B5846805466978AA
S31500010FA0AB6803EB01139C4204F1100421D254F8FF
S31500010FB0082C130C03F1804303F58E2391B21868B4
S31500010FC0012202FA01F101431960002354F8106C61
S31500010FD054F8041C184662F30A2026F8210054F836
S31500010FE00C0C8DF800206A468DF8013000F0E8FE01
S31500010FF0D5E76C6829786B6803EB01139C4204F111
S31500011000100422D254F8082C130C03F1804303F583
S315000110108E2391B21868012202FA01F101430026DA
S3150001102019600227334667F3010354F8100C54F88C
S31500011030041C62F30A2302AA20F8213054F80C0C8E
S3150001104022F8046D00F0BCFED4E703B0F0BD2DE933
S31500011050F3418368477800F10C0103EB0717BB42A4
S3150001106022D2DA685C68012595406560426890F88D
S3150001107000C002EB0C1C62450BD25668D6F81080F4
S31500011080D66828FA06F808F0010601F8016B103255
S31500011090F1E7A56000220192019A632A02D8019A1A
S315000110A00132F8E71033DAE702B0BDE8F08100005B
S315000110B0034A137803B972B601331370704700BF40
S315000110C03CB6FF1F044B1A780AB1013A1A701B7815
S315000110D003B962B6704700BF3CB6FF1F08B50348A7
S315000110E0034A044B442101F0D5FA00BFB037010091
S315000110F04B3701001438010038B541B12E4B9842E7
S315000111000BD0A3F5A033984209D0FFF7E7FF2B4890
S315000111102B4A2C4B4B2101F0BDFA002300E00123A1
S31500011120294A52F82320130C03F1804303F58E2339
S3150001113092B21C68012505FA02F222431A600B7964
S315000111404A789B0002F0030203F00C0313434A7929
S31500011150042A01D043F01003CC78640104F0600442
S315000111602343CC790CB143F080038360C368042A1E
S3150001117018BF02F0030223F00F0318BF13438A7945
S315000111800AB143F004038A780AB143F00803C36045
S31500011190026A0B7822F0030203F00303134303628E
S315000111A00B7A1BB1436A43F0080302E0436A23F05A
S315000111B00803436238BD00BF00B00340B0370100E9
S315000111C0403701003B380100A837010008B528B9AE
S315000111D009480A4A0A4B872101F05CFA01220023D9
S315000111E0032182700271042203704170C170427141
S315000111F08371C371037208BDB037010090370100D6
S315000112003B3801000346006A5B6A00F080005B061A
S3150001121048BF40F040007047F8B5066A16F0400630
S31500011220044604D0036A23F0400303620126636A7D
S3150001123043F0C003636223681A0606D42046FFF70B
S31500011240E1FF4106F7D5012500E000251EB1236A1D
S3150001125043F0400323622046FFF7D4FF430620D420
S31500011260FDB9E36CA76C666C206CE16BA26B3B4429
S31500011270334403440B4413445B0843F40043E362E1
S31500011280E36EA76E666E206EE16DA26D3B4433443C
S3150001129003440B4413445B0843F400432363284689
S315000112A0F8BD0120F8BD0000012910B505D90E4889
S315000112B00E4A0F4B4FF4A67105E032B90A480B4AA4
S315000112C00C4B40F24D1101F0E5F91368547903F026
S315000112D01F030CB143F0200312790AB143F0400316
S315000112E040F8213010BD00BFB03701005D37010065
S315000112F04A3801003B380100012908B506D90648DC
S31500011300064A074B4FF4B17101F0C4F950F82100B8
S3150001131000F0800008BD00BFB0370100743701003E
S315000113204A380100074B9A79D20702D4064B18684E
S315000113307047187A054B1B68C0F3420023FA00F088
S31500011340704700BF004006404C29FF1F5029FF1F70
S3150001135008B50F4B1B7B03F00303012B0DD004D300
S315000113600C48022B18BF002008BD0B4B186868B942
S315000113700A480B4A0B4BD62106E00B4B186828B9D5
S315000113800648074A094BDB2101F084F908BD00BF75
S3150001139000400640006CDC02DCB1FF1FC2380100D0
S315000113A08138010026390100E0B1FF1F3239010001
S315000113B010B5124CA379DB061DD4FFF7C9FFE0B1C6
S315000113C023786178227BC3F3C20311F0300F20FA30
S315000113D003F002F0030200D00AB1022A0DD1062B56
S315000113E003D0072B03D0400910BD142300E00C23C2
S315000113F0B0FBF3F010BD024B186810BD004006406B
S315000114004C29FF1F08B5084B1B781B0609D5074B4E
S31500011410186838B90648074A074B40F2671101F0C8
S3150001142039F9002008BD00BF00500640DCB1FF1F9E
S31500011430C2380100613901002639010008B50A4A9E
S3150001144013781B060ED5094B1B6833B90848094AA0
S31500011450094B40F2751101F01DF99078800923FAC4
S3150001146000F008BD002008BD00500640DCB1FF1F9A
S31500011470C2380100673801002639010008B5104B52
S315000114801B68C3F38143022B0ED0032B09D0ABB9E2
S31500011490FFF7B8FFB0F5004F14BF00204FF400402E
S315000114A008BD4FF47A7008BD064B186838B906486E
S315000114B0064A074B40F2891101F0ECF8002008BDFD
S315000114C000700440E0B1FF1FC2380100AC380100D2
S315000114D0323901000D4B426841F2440110B55A50B0
S315000114E041F2040201789C58090401F4403124F4C4
S315000114F040342143995042781968920402F44022FB
S3150001150021F440210A431A6010BD00BF0070044057
S31500011510244B1A6822F4802230B51A601A46224BEF
S3150001152038B941F204015C5824F480245C5001234B
S3150001153024E01E4CA14212D004D81D4CA14214D164
S3150001154000240DE01B4CA14207D004F1B77404F549
S315000115505854A14209D1092402E0022400E00524DD
S3150001156041F248015C50012300E000230E4C41F298
S315000115700401655825F4E025054365501168B0F569
S31500011580E02F41F48021116009D10B4A032182F831
S31500011590441192F8401141F0800182F84011184639
S315000115A030BD00BF348004400070044000A24A04EC
S315000115B0006CDC0200D8B8050020074010B50D4CC0
S315000115C0637803F0020303F0FF008BB9A3799B064E
S315000115D00FD4FFF7EDFE60B1E278E378C2F3411272
S315000115E0520002EBD312044B33F81230584310BDAC
S315000115F0002010BD0040064040390100044B1B7815
S3150001160003F0020303F0FF000BB1FFF78BBE704737
S315000116100040064010B50A4CA37903F0400303F0DD
S31500011620FF0063B1FFF794FE237903F01F03013333
S31500011630B0FBF3F3607900F01F001830584310BD7A
S315000116400040064041F20403074AD358C3F301435D
S31500011650012B07D004D30548032B18BF0020704780
S31500011660FFF7ACBFFFF7D6BF00700440006CDC0289
S31500011670084B9B79C3F38103022B09D0032B03D0BB
S31500011680012B03D0FFF79ABFFFF7C4BFFFF74ABE8E
S31500011690FFF75EBE0040064010B5FFF789FE04461F
S315000116A038B1FFF7E5FFB4EBD00F94BF2046002019
S315000116B010BD10BD08B5132853D8DFE800F00C0C97
S315000116C01420295232364E524A3A3E42465252521C
S315000116D00A54264808BDFFF7CBFF41F24403244ACA
S315000116E0D3581B0F07E0FFF7C3FF41F24403204A1B
S315000116F0D358C3F303630133B0FBF3F008BDFFF71F
S31500011700B7FF41F244031A4AD358C3F30353F2E72E
S31500011710FFF7AEFF41F24403154AD358C3F303431F
S31500011720E9E7BDE80840FFF78DBFBDE80840FFF7D0
S31500011730A5BEBDE80840FFF7AFBFBDE80840FFF70B
S315000117405DBFBDE80840FFF739BFBDE80840FFF7B8
S3150001175061BFBDE80840FFF755BEBDE80840FFF789
