S011000075686B2D72696768742E7372656380
S3150000C00000FF0020C9C4000029C500002DC500009E
S3150000C01025C5000025C5000025C50000000000005C
S3150000C02000000000000000000000000031C5000014
S3150000C03025C500000000000035C5000039C5000018
S3150000C0403DC5000041C5000045C5000049C50000CA
S3150000C0504DC5000051C5000055C5000059C500007A
S3150000C0605DC5000061C5000065C5000069C500002A
S3150000C0706DC5000071C5000075C5000079C50000DA
S3150000C0807DC5000025C5000025C5000025C50000AA
S3150000C09025C5000025C5000025C5000025C50000F2
S3150000C0A081C5000085C5000089C500008DC500005A
S3150000C0B091C5000095C5000099C500009DC500000A
S3150000C0C0A1C50000A5C50000A9C50000ADC50000BA
S3150000C0D0B1C5000025C5000025C5000025C5000026
S3150000C0E025C5000025C5000025C5000025C50000A2
S3150000C0F025C5000025C5000025C5000025C5000092
S3150000C1007501010025C5000025C5000025C50000F4
S3150000C11025C50000910B010025C5000025C50000BE
S3150000C12025C5000025C5000025C5000025C5000061
S3150000C13025C5000025C5000025C5000025C5000051
S3150000C14025C5000025C5000025C5000025C5000041
S3150000C15025C5000025C5000025C5000025C5000031
S3150000C3C06B636667FFFFFFFFFFFFFFFFFFFFFFFFD8
S3150000C3D010FF8813FFFFFFFFFFFFFFFF00FFFEFFB9
S3150000C3E0FFFFFFFFFFFFFFFFFFFFFFFFFFFFFFFF57
S3150000C3F0FFFFFFFFFFFFFFFFFFFFFFFFFFFFFFFF47
S3150000C40010B5054C237833B9044B13B10448AFF388
S3150000C41000800123237010BDDC28FF1F00000000F0
S3150000C420D042010008B5064B1BB106480649AFF3DA
S3150000C43000800648036813B1054B03B1984708BD51
S3150000C44000000000D0420100E028FF1FD828FF1F8F
S3150000C45000000000154B002B08BF134B9D46A3F5AB
S3150000C460803A00218B460F461348144A121A06F0EA
S3150000C47093FB0F4B002B00D098470E4B002B00D0A0
S3150000C48098470020002104000D000D48002802D026
S3150000C4900C48AFF3008006F041FB2000290004F0B1
S3150000C4A023FA06F015FB00BF0000080000FF00207D
S3150000C4B00000000000000000DC28FF1F04C0FF1F72
S3150000C4C0000000000000000072B60D480D49016032
S3150000C4D00D4880470D490E4A0E4B9A42BEBF51F891
S3150000C4E0040B42F8040BF8E70B490C4A0020914272
S3150000C4F0BCBF41F8040BFAE762B609488047000062
S3150000C50008ED00E000C0000095D70000F8420100E9
S3150000C5100000FF1FDC28FF1FDC28FF1F04C0FF1FD1
S3150000C52055C40000FFF7FEBF2248004722480047D7
S3150000C5302248004722480047224800472248004731
S3150000C5402248004722480047224800472248004721
S3150000C5502248004722480047224800472248004711
S3150000C5602248004722480047224800472248004701
S3150000C57022480047224800472248004722480047F1
S3150000C58022480047224800472248004722480047E1
S3150000C59022480047224800472248004722480047D1
S3150000C5A022480047224800472248004722480047C1
S3150000C5B02248004729C500002DC5000031C50000EE
S3150000C5C035C5000039C5000025C5000025C5000099
S3150000C5D025C5000025C5000025C5000025C50000AD
S3150000C5E025C5000025C5000025C5000025C500009D
S3150000C5F025C5000025C5000025C5000025C500008D
S3150000C60025C5000025C5000025C50000D929010063
S3150000C610ED29010025C5000025C5000025C500003F
S3150000C62025C5000025C5000025C5000025C500005C
S3150000C63025C5000025C5000025C5000025C500004C
S3150000C6404BB942B9002908BF002802D04FF0FF318C
S3150000C650084600F03BB882B0EC462DE9005000F0E9
S3150000C6601DF8DDF804E002B00CBC70472DE97043FC
S3150000C670069E14461D468046894600F029F804FBAE
S3150000C68001F300FB0533A4FB00451D44B8EB04048D
S3150000C69069EB0505C6E90045BDE870832DE97043E1
S3150000C6A0069E1446804689461D4600F05DF900FB4D
S3150000C6B005F504FB0153A0FB04451D44B8EB040437
S3150000C6C069EB0505C6E90045BDE87083704700BF04
S3150000C6D000292DE9F00FC0F29F800024002BC0F244
S3150000C6E09680154606460F46002B3ED18A4257D9FC
S3150000C6F0B2FA82F34BB1C3F1200201FA03F720FA32
S3150000C70002F29D40174300FA03F6290CB7FBF1F23B
S3150000C710330C01FB127CA8B243EA0C4700FB02F380
S3150000C720BB4209D97F1902F1FF3C80F00181BB426F
S3150000C73040F2FE80023A2F44FF1AB7FBF1F3B6B27D
S3150000C74001FB137146EA014100FB03F0884208D958
S3150000C750491903F1FF3780F0ED80884240F2EA8004
S3150000C760023B43EA0242002303E08B420AD900233C
S3150000C7701A461046194614B1404261EB4101BDE824
S3150000C780F00F7047B3FA83F8B8F1000F40F08480D9
S3150000C7908B4202D3824200F2DE8000230122E8E7C8
S3150000C7A012B90123B3FBF2F5B5FA85F2002A39D1A5
S3150000C7B07F1B280C1FFA85FC0123B7FBF0F1320C16
S3150000C7C000FB117742EA07470CFB01F2BA4207D990
S3150000C7D07F1901F1FF3802D2BA4200F2C180414608
S3150000C7E0BF1AB7FBF0F2B6B200FB127046EA004081
S3150000C7F00CFB02FC844507D9401902F1FF3702D22F
S3150000C800844500F2AB803A4642EA0142B1E7E4438E
S3150000C810524263EB430364E7404261EB41014FF050
S3150000C820FF345BE79540C2F1200327FA03F1280C99
S3150000C83026FA03F39740B1FBF0F81F433B0C00FBCD
S3150000C84018111FFA85FC43EA01410CFB08F38B42E1
S3150000C85006FA02F608D9491908F1FF3279D28B4255
S3150000C86077D9A8F102082944C91AB1FBF0F3BFB27F
S3150000C87000FB131147EA01470CFB03F2BA4207D942
S3150000C8807F1903F1FF3160D2BA425ED9023B2F44D1
S3150000C890BF1A43EA084390E7C8F1200203FA08FCEE
S3150000C8A025FA02F343EA0C0C4FEA1C4921FA02F37B
S3150000C8B001FA08F720FA02F2B3FBF9F1174309FB74
S3150000C8C011333A0C1FFA8CFB42EA03430BFB01FAC5
S3150000C8D09A4505FA08F008D913EB0C0301F1FF326B
S3150000C8E035D29A4533D902396344CAEB0303B3FB05
S3150000C8F0F9F209FB1233BFB247EA03470BFB02F911
S3150000C900B94508D917EB0C0702F1FF331BD2B9451D
S3150000C91019D9023A674442EA0145A5FB0001C9EB71
S3150000C92007078F424FF000030AD305D02A4620E7B7
S3150000C930624601E73B4614E706FA08F68642F5D258
S3150000C9406A1E002315E71A46E5E70B46A0E71146DF
S3150000C950CBE7904688E7434642460AE7023A53E762
S3150000C96002392F443CE700BF2DE9F00F1446054677
S3150000C9700E46002B43D18A4253D9B2FA82F757B1F9
S3150000C980C7F1200620FA06F601FA07F302FA07F4C1
S3150000C9901E4300FA07F5210CB6FBF1F22B0C01FB46
S3150000C9A01267A0B243EA074600FB02F3B34209D975
S3150000C9B0361902F1FF3780F0F680B34240F2F38079
S3150000C9C0023A2644F61AB6FBF1F3ADB201FB136147
S3150000C9D045EA014100FB03F0884208D9091903F131
S3150000C9E0FF3680F0E280884240F2DF80023B43EA75
S3150000C9F00242002310461946BDE8F00F70478B42ED
S3150000CA004AD8B3FA83F6002E4DD18B4202D3824226
S3150000CA1000F2D6800023012210461946BDE8F00F29
S3150000CA20704712B90124B4FBF2F4B4FA84F2002A76
S3150000CA307CD1091B260CA7B20123B1FBF6F02A0C08
S3150000CA4006FB101142EA014107FB00F28A4207D9B0
S3150000CA50091900F1FF3C02D28A4200F2C380604607
S3150000CA60891AB1FBF6F2ADB206FB121145EA014591
S3150000CA7007FB02F7AF4208D92C1902F1FF3180F00B
S3150000CA809680A74240F29380023A42EA004210465C
S3150000CA901946BDE8F00F704700231A46104619469E
S3150000CAA0BDE8F00F7047C6F1200522FA05F4B34041
S3150000CAB01C434FEA144821FA05F301FA06F720FA57
S3150000CAC005F5B3FBF8FC2F4308FB1C333D0C1FFA9E
S3150000CAD084FA45EA03430AFB0CF9994502FA06FB78
S3150000CAE004D91B190CF1FF326DD39446C9EB03032D
S3150000CAF0B3FBF8F508FB1533BFB247EA03470AFB59
S3150000CB0005F8B84504D93F1905F1FF3361D31D4631
S3150000CB1045EA0C4CACFB0B23C8EB07079F424FF0D2
S3150000CB20000549D345D062462B4663E79440C2F1DF
S3150000CB30200321FA03FC260C20FA03F301FA02F57E
S3150000CB40BCFBF6F843EA05010B0C06FB18CCA7B2B2
S3150000CB5043EA0C4C07FB08F3634500FA02F509D9D2
S3150000CB601CEB040C08F1FF323AD2634538D9A8F120
S3150000CB700208A444C3EB0C0CBCFBF6F389B206FB1B
S3150000CB8013CC41EA0C4107FB03F28A4207D9091983
S3150000CB9003F1FF3022D28A4220D9023B2144891A6E
S3150000CBA043EA084349E73A460CE733461FE70A4695
S3150000CBB06BE7B0409042B6D20CF1FF32002319E782
S3150000CBC03346324616E799458FD9ACF1020C234419
S3150000CBD08CE7B8459BD9023D274499E70346DEE733
S3150000CBE09046C7E7023821443AE700BF38B50D46FC
S3150000CBF040B1446844B12D064CBFA468E46800689F
S3150000CC00A04738BD032038BD062038BD08B528B179
S3150000CC1043682BB15B690068984708BD032008BDCF
S3150000CC20062008BD30B5044685B0002937D0002857
S3150000CC3035D08368002B34D00B7A102B03F00F020B
S3150000CC4019D10B210022FFF7E1FF022384F87E3081
S3150000CC50002384F87C300E2523460022013DDA604D
S3150000CC601A6103F10803F8D1A368204601212A4678
S3150000CC709847284616E0062A13D8DB0943EA4202FB
S3150000CC8000EBC204E56865B10B6801934B6802933B
S3150000CC904B7A8DF80C3001A92269A84702E00320DF
S3150000CCA000E0012005B030BD00210A46FFF7AEBF07
S3150000CCB038B5044680B1436823B15B68006898477D
S3150000CCC000236360002504F0E5FB256084F87D50B1
S3150000CCD004F0EAFB284638BD032038BD2DE9F041B3
S3150000CCE0064688461746002A48D004F0D3FB254B53
S3150000CCF01D681C4645B193F87D30B34212D104F04D
S3150000CD00D3FB0120BDE8F08183F87D6004F0CCFB05
S3150000CD10C4F8088084F87D6084F87C50234604F1CA
S3150000CD20700204E004F0C0FB0220BDE8F08100259B
S3150000CD30DD601D6108339342F9D1012E0DD8114DE6
S3150000CD40114B6360304629462A4600F0A1FB044693
S3150000CD5068B12846FFF7ACFF0DE004F09BFB2560A9
S3150000CD6084F87D5004F0A0FB0620BDE8F081022384
S3150000CD7085F87E303D602046BDE8F0810320BDE8A1
S3150000CD80F08100BF00BAFF1F2C3A010001F00F012D
S3150000CD9041F08001FFF72ABF01F00F01FFF726BF20
S3150000CDA0F0B50B46A8B1B1B1AAB18D7805F00F0464
S3150000CDB0062C10D8E90941EA440100EBC1011668C6
S3150000CDC0CE6052680A61BDE8F04002211A46FFF7BC
S3150000CDD01DBF0320F0BD0420F0BD73B50D468DF8D0
S3150000CDE00710064688B101F00F040DF10702032172
S3150000CDF0FFF70CFF062C0AD8ED0945EA440406EBBA
S3150000CE00C4040023E360236102E0032000E0042061
S3150000CE1002B070BD07B58DF8071001F00F010629A5
S3150000CE2005D804210DF10702FFF7F0FE00E004200B
S3150000CE3003B05DF804FB07B58DF8071001F00F018C
S3150000CE40062905D805210DF10702FFF7DFFE00E0F0
S3150000CE50042003B05DF804FBDAB1023906291AD8BA
S3150000CE60DFE801F004061012080B14000C210EE096
S3150000CE700D210CE090F87E3001E090F87C301370C4
S3150000CE8000207047062102E0072100E00921FFF794
S3150000CE90BDBE0420704701207047033906291ED8FD
S3150000CEA0DFE801F0041D1D06091D1A000E2114E01D
S3150000CEB0AAB1137808E090F87E30032B08D072B13F
S3150000CEC0137880F87C30032380F87E30002070478A
S3150000CED0082100F17C0200E00A21FFF797BE01203D
S3150000CEE0704730B58368FF2283F88820836893F8FB
S3150000CEF0942042F0020283F894208368002283F88B
S3150000CF009820416821F4FF71540121F00101214369
S3150000CF1041F0080500230B602B6041F0100541F03D
S3150000CF2018012B600B60510141F0100104440144CB
S3150000CF30E362CB6202F1300481680132072A01F80C
S3150000CF402430DED1826880F8003192F8941001F026
S3150000CF50FD0182F894108268FF2182F88C108268A5
S3150000CF60892182F8841080F80131836893F894202F
S3150000CF7002F0DF0283F8942030BD2DE9F04105462A
S3150000CF8042EA410405EB04140E469846174604F09F
S3150000CF9081FA94F82D3043F0400384F82D30686808
S3150000CFA0069A20F4FF7007F0010720F0010040EA1E
S3150000CFB0071006F00F06DBB240EA4610C3F3001373
S3150000CFC040EAC303C2F30902C3F8048094F82D3083
S3150000CFD0C3F30016C3F3C0039B0140EAC60043F047
S3150000CFE0880343EA0242026004F05EFAAB6893F8F3
S3150000CFF0942002F0DF0283F894200020BDE8F0813F
S3150000D00037B590F82D50C5F30013002100EBC3038C
S3150000D01045F020050C33082461F3C30503628162E1
S3150000D020446280F82D500A460094FFF7A6FF03B02D
S3150000D03030BD70B501F00F03C90941EA43052D0162
S3150000D040044628440E0190F82D2002F0FB026FF3EF
S3150000D050C30280F82D20626822F4FF7246EA431666
S3150000D06022F00102324328301668760706D58088FA
S3150000D070C0F30900000440F00800106042F0080206
S3150000D0801068400707D52544A88DC0F309000004A1
S3150000D09040F008001060A26802EB830292F8C0001C
S3150000D0A000F0FD0082F8C0001BB911B92046FFF759
S3150000D0B0A7FFA36893F8942002F0DF0283F8942078
S3150000D0C0002070BDC0B18368FF2283F8802082688B
S3150000D0D092F88430002382F88430826882F898308F
S3150000D0E0826882F89430826892F8001141F0C0019B
S3150000D0F082F8001118467047032070472DE9F34166
S3150000D10001F00F054FEA450C4CF0010C4FEA0C16E6
S3150000D1100446304490F82D70C7F3801747B9026271
S3150000D12090F82D20876242F02002436280F82D207D
S3150000D130A219978DC7F30907BB4238BF1F4694F85B
S3150000D14001316BB904EB0C132046D3F820E0936A47
S3150000D1500097294601227344FFF70FFF804601E03E
S3150000D1604FF001082644B36A23B91FB915B9204602
S3150000D170FFF746FF404602B0BDE8F0812DE9F341D6
S3150000D18001F00F0500EB4511044691F82D00C0F3A0
S3150000D19080106F0010B988620A624B623F01E01985
S3150000D1A000F1280190F82D6046F0200680F82D60E9
S3150000D1B0868DC6F30906B34238BF1E46836A1344FA
S3150000D1C0E2698AB194F8000170B9402E0CD843EA9E
S3150000D1D0060C1CF0030F07D04B7960F345134B7117
S3150000D1E0012384F80031134694F8012132B90096E0
S3150000D1F020462946FFF7C1FE804601E04FF00108B0
S3150000D20086B97DB92744204697F82D30C3F300121E
S3150000D21082F0010262F3041365F3861387F82D305A
S3150000D220FFF7EEFE404602B0BDE8F0811FB5CB0920
S3150000D23001F00F0243EA420200EB021328335C7945
S3150000D240640613D500EB02128DF80C10126A0192D7
S3150000D25000214FF0FF348DF80D1002945A7961F3D6
S3150000D26086125A71006801A9FFF7DCFC002004B0A1
S3150000D27010BD70B5044601F00F05CB0943EA45061B
S3150000D280FFF7D4FF3035A268002002F8250004EB32
S3150000D2900614A38D60F30903A38570BDF8B5044693
S3150000D2A0002800F0F1800C2900F2F080DFE811F090
S3150000D2B00D00260036007F008600B300BA00BE00CF
S3150000D2C0D000EE00EE00D600E8008368002283F866
S3150000D2D0002183681A7F510703D51A7F42F0800226
S3150000D2E01A77A36893F8082142F0100283F8082100
S3150000D2F0A36893F8942042F0010289E083681A7FBC
S3150000D300520703D51A7F02F07F021A77A36893F8B3
S3150000D310082102F0EF0283F8082197E0002A00F0C6
S3150000D320B58095781688D27805F00F00012A4FEA65
S3150000D330D51545EA400301B205D140F2FF329642C7
S3150000D34028BF16460BE0A26802EB8102402E28BFDA
S3150000D350402692F8C07047F0010782F8C07004EBCF
S3150000D3600313012D93F82D206FF3861283F82D20D9
S3150000D3709A8D66F309029A854FEA122202F0F702A5
S3150000D3806FF3820283F82D20A36803EB810314BF99
S3150000D3900821042193F8C0200A4383F8C0200028FE
S3150000D3A054D1002D73D12046FFF72AFE4EE0002A05
S3150000D3B06CD01178BDE8F840FFF75BBF002A65D056
S3150000D3C0117801F00F06CD0945EA4607FFF72EFF53
S3150000D3D004EB071328335A7942F004025A71616844
S3150000D3E09B88C2F3001021F4FF7222F0010242EA88
S3150000D3F0C00242EA4616C3F3090346EA05151B04B2
S3150000D40043F08C032B60A36893F8942002F0DF02AC
S3150000D41083F894201AE0002A38D01178BDE8F84045
S3150000D420FFF707BE012092B310800FE072B31178A8
S3150000D43001F00F03062B29D8C90941EA430300EB83
S3150000D440031494F82D30C3F3800353800020F8BDF5
S3150000D450E2B18368127883F89820F7E70025EEB2E8
S3150000D46046F080012046FFF704FF0135204631468D
S3150000D470FFF7FFFE072DF2D12046FFF732FDE5E765
S3150000D48022B100201070F8BD0320F8BD0120F8BDC0
S3150000D490F8B50E461746054620BB134C134B84F8C9
S3150000D4A0020104F58272E261FF22A360012183F882
S3150000D4B0802020462A46FFF7F1FE0D4BA0686360E8
S3150000D4C0C3F3072280F89C20C3F307421B0E80F8A3
S3150000D4D0B02080F8B4302046FFF703FD3C602846B4
S3150000D4E02660F8BD0620F8BD80BAFF1F0020074061
S3150000D4F000B8FF1F2DE9F04F87B0002800F04781E4
S3150000D5000468A36893F880905FFA89F919F0080F08
S3150000D51000F0098193F890200821D2B283F8801098
S3150000D520C2F3C000636815095FFA80FA23F4FF733B
S3150000D5304AEA450823F001034FEA081643EA451173
S3150000D540A319C2F3800241EA001093F82D3040EA95
S3150000D550C2005B06076840F1E680C7F3830BBBF1A8
S3150000D5600D00D0F1000B5BEB000BBBF1000F01D0FF
S3150000D57084F80321C7F30947BAF1000F4CD0A2196A
S3150000D58002F12801936A3B44936291F805E0CEF3D9
S3150000D590C00C8CF0010C6CF3C30E04EB08125FFA9E
S3150000D5A08EFE506ACEF3001C8CF0010C6CF3041E48
S3150000D5B0C31A81F805E004D08988C1F30901B9428C
S3150000D5C023D92644B36A0493136A039396F82D303D
S3150000D5D06FF3861386F82D30B38DC3F309039F428C
S3150000D5E040F09080002D40F08D8094F8033104EBDC
S3150000D5F0C303598A536A994240F2848020682946B7
S3150000D6002A462B46FFF7C2FB8DE0204645F08001F7
S3150000D610126AFFF773FD86E01DB917B904950395E5
S3150000D62070E0A01990F82D20C2F34013B3B9C2F3ED
S3150000D630001241EAC2014A6804EB0811D1F820E061
S3150000D640816A7144914203D1002384F8003105E0D8
S3150000D650BB42F9D0985CC8540133F9E7A21904EB30
S3150000D6600818936A3B449362D8F82420BDB9BBF1ED
S3150000D670000F14D0802120468DE80C00FFF7D6FD60
S3150000D68094F82D1041F0080184F82D1094F83D10FF
S3150000D69041F0080184F83D109DE80C000AE0A1194C
S3150000D6A091F82D00C0F3C00E8EF0010E6EF3C3008C
S3150000D6B081F82D00A11928314879C0F3001E8EF09B
S3150000D6C0010E6EF304104871D8F8240030B1D31A55
S3150000D6D004D08A88C2F30902BA420CD92644B26A37
S3150000D6E00492D8F82020039296F82D206FF3861224
S3150000D6F086F82D2006E020462946D8F82020FFF798
S3150000D7003DFD10E045EACA158DF815B08DF81450A8
S3150000D710206803A9FFF786FAA36893F8942002F01D
S3150000D720DF0283F8942019F0010F11D0A2680123BB
S3150000D73084F8013182F880300023102203938DF89B
S3150000D74014208DF815302068049303A9FFF76AFAB0
S3150000D75019F0800F13D0A368802283F8802094F8F4
S3150000D7603D305A0703D494F82D305B0707D5802146
S3150000D7702046FFF75EFC20460021FFF75AFCA3680F
S3150000D78093F85C2102F0FF010AB183F85C1107B03F
S3150000D790BDE8F08F084BD3F8882042F47002C3F836
S3150000D7A08820064B4CF22052DA814DF62812DA8197
S3150000D7B04FF4E9721A80704700ED00E00020054042
S3150000D7C0554A137813F0C00F75D15379580665D4AE
S3150000D7D01378590731D4137B13F0030305D04F494F
S3150000D7E0012B08BF4FF4004100E04D494A4A5378E7
S3150000D7F013F0300F134613D0107B00F003000128FE
S3150000D8000ED0137803F03803302B11D0382B02D109
S3150000D8104FF4C0630EE013782022C3F3C20303E083
S3150000D8201B780122C3F3C20302FA03F39BB201E0A1
S3150000D8304FF4A063B1FBF3F301E04FF40043364A23
S3150000D840D27802F0E002602A1ED008D8202A15D02D
S3150000D850402A16D0002A53D14FF420721CE0A02A89
S3150000D86015D004D8802A4BD14FF4377214E0C02A61
S3150000D87010D0E02A44D140F671320DE04FF4A06298
S3150000D8800AE04FF4F06207E04FF4206204E04FF440
S3150000D890B76201E040F69502534331E01179204B1F
S3150000D8A001F01F010131B3FBF1F1537903F01F03BE
S3150000D8B018334B4324E0137803F0C003402B0CD1FC
S3150000D8C05378DB071AD5137A0122C3F3420302FA0F
S3150000D8D003F3144AB2FBF3F312E0137803F0C00328
S3150000D8E0802B17D1137B13F0030305D0012B0B4BB1
S3150000D8F008BF4FF4004303E0094B01E04FF4004337
S3150000D90041F2440208498A58120F0132B3FBF2F37E
S3150000D910064A1360704700BF00400640006CDC02F8
S3150000D92000127A0000093D00007004400000FF1F4D
S3150000D930034B04481B68834208BF03F10800704785
S3150000D9400C00FF1FF928FF1F074B10B59C68FFF757
S3150000D950EFFF032102460823204601F03EFA034B5F
S3150000D96001221A7010BD00BF14B6FF1FF828FF1F52
S3150000D97008B5FFF7DDFF014B186008BD0C00FF1F5F
S3150000D980024B0821186805F09BB800BF0C00FF1F6A
S3150000D990013908290DD8DFE801F0050C0A0C0C0A3C
S3150000D9A00C0C0A00044B1B7E1BB1FFF7CDBF0520F4
S3150000D9B070470120704700BF14B6FF1F012901D12F
S3150000D9C0FFF7C2BF01207047012901D1FFF7BCBF95
S3150000D9D001207047034B044AD8680221402301F016
S3150000D9E00CBA00BF14B6FF1F4929FF1F023908B53C
S3150000D9F0072905D8DFE801F006130404130404130D
S3150000DA00012008BD03F0BCFA064B074AD86801217D
S3150000DA10402301F0E2F9BDE80840FFF7DBBF05202F
S3150000DA2008BD00BF14B6FF1F0929FF1F012901D138
S3150000DA30FFF7D0BF0120704709B9FFF7CBBF012020
S3150000DA4070470000034B04481B68834208BF03F17C
S3150000DA50080070477C00FF1F8929FF1F074B10B580
S3150000DA601C69FFF7EFFF052102460823204601F057
S3150000DA70B4F9034B01221A7010BD00BF14B6FF1F84
S3150000DA809929FF1F08B5FFF7DDFF014B186008BD98
S3150000DA907C00FF1F024B0821186805F011B800BF73
S3150000DAA07C00FF1F013908290DD8DFE801F0050CBD
S3150000DAB00A0C0C0A0C0C0A00044B1B7E1BB1FFF768
S3150000DAC0CDBF052070470120704700BF14B6FF1F69
S3150000DAD0012901D1FFF7C2BF01207047032901D1F7
S3150000DAE0FFF7BCBF01207047034B044A5868042166
S3150000DAF0072301F072B900BF14B6FF1F9A29FF1F52
S3150000DB00013908290DD8DFE801F0050C0A0C0C0ACA
S3150000DB100C0C0A00044B1B7E1BB1FFF7E5BF05206A
S3150000DB2070470120704700BF14B6FF1F012901D1BD
S3150000DB30FFF7DABF01207047022901D1FFF7D4BFF2
S3150000DB4001207047034B04481B68834208BF581CDA
S3150000DB50704700BFE000FF1FA229FF1F074B10B54B
S3150000DB605C69FFF7EFFF062102460123204601F01C
S3150000DB7034F9034B01221A7010BD00BF14B6FF1F03
S3150000DB80A129FF1F08B5FFF7DDFF014B186008BD8F
S3150000DB90E000FF1F024B0121186804F091BF00BF8F
S3150000DBA0E000FF1F013908290DD8DFE801F0050C58
S3150000DBB00A0C0C0A0C0C0A00044B1B7E1BB1FFF767
S3150000DBC0CDBF052070470120704700BF14B6FF1F68
S3150000DBD0012901D1FFF7C2BF01207047042901D1F5
S3150000DBE0FFF7BCBF01207047087A20B9034B0B60D2
S3150000DBF08D234B6070470520704700BF4301FF1F10
S3150000DC00024B0B6012234B6000207047D001FF1FB0
S3150000DC1005207047087A022803D10F4B0B60792341
S3150000DC200EE0012803D10D4B0B603F2308E00328CB
S3150000DC3001D10B4B02E0042805D10A4B0B601723D8
S3150000DC404B600020704720B9074B0B601F234B60C9
S3150000DC5070470520704700BF1802FF1F0401FF1F11
S3150000DC600102FF1F2003FF1FE201FF1F052070476F
S3150000DC70887A20B90B4B0B6004234B6070470A89E6
S3150000DC8040F209439A420BD1022809D8064B53F8B1
S3150000DC9020300B60054B53F820304B600020704756
S3150000DCA0052070470E03FF1F1403FF1FC802FF1F46
S3150000DCB0012810B50E4B05D193F8402142F002021F
S3150000DCC083F84021A62110FB01F15C1800225A546A
S3150000DCD0084B84F891209022FF2102FB003004F0CB
S3150000DCE05BFF03200449BDE8104002F039BC00BFC9
S3150000DCF03503FF1FA429FF1F443A01002DE9F84F01
S3150000DD00A626664B664F10FB06F64FF0900808FBFA
S3150000DD100038BC19BB5D94F89250052B79D8DFE822
S3150000DD2003F003111A222B5D012803D15D4B1B7CE6
S3150000DD30002B6ED028465C49022202F0D9F9012355
S3150000DD40054606E028465949022202F0D1F9022387
S3150000DD500546BB559EE028465549022202F0C8F901
S3150000DD6003230546F5E7284604F19301132202F042
S3150000DD70BFF904230546ECE794F89110DFF834B1B7
S3150000DD80C1F19009B9F1080FA8BF4FF0080958462C
S3150000DD9001F124025FFA89FA00F8012B4144524648
S3150000DDA004F0F1FE284659460AF1010202F0A0F9F4
S3150000DDB094F8913099445FFA89F9B9F18F0F0546C5
S3150000DDC002D884F8919065E0002384F89130601CB5
S3150000DDD04146902204F0D7FE0523BAE794F8913025
S3150000DDE0611C882B28BF8823902218F80360C85C22
S3150000DDF08642994608EB03070ED10133DBB2902B1E
S3150000DE0002F1FF3228BF002312F0FF02EDD184F8A1
S3150000DE1091206FF063053DE0C3F19006581E082E71
S3150000DE20D4BF801908301A46C0B21E46864209D8A9
S3150000DE3018F806C011F806E0F44518BF3346013657
S3150000DE40F6B2F3E7DFF86C8002F12401C2F10102B9
S3150000DE5013444046DEB2324600F8011B394604F050
S3150000DE6092FE04EB090032463946013004F08BFE7F
S3150000DE702846721C414602F03BF994F891301E4444
S3150000DE80F6B28F2E88BF0023054694BF84F89160B2
S3150000DE9084F891302846BDE8F88F00BFA429FF1FFB
S3150000DEA03503FF1FB827FF1F8504FF1F8304FF1FCD
S3150000DEB08104FF1FC42AFF1F014902F02BB900BFCE
S3150000DEC0F72DFF1F0C4B4FF4877202FB0033012224
S3150000DED01A7100229A715A719A70084A642100B226
S3150000DEE0D97002EB400112F8102083F809214A7814
S3150000DEF083F80A21704700BFCD2AFF1F8704FF1F42
S3150000DF00F8B5704F4FF487764643BC190546A3789B
S3150000DF1094F80901E11D112B00F2D180DFE803F02E
S3150000DF20091317293438414B4F586367767E82961A
S3150000DF30A8BB654B0022DA701A7102221A70FFF72D
S3150000DF40BBFF0123B9E002F001F90223B5E0084660
S3150000DF5003F000FA5D490546042204F10A0004F0C4
S3150000DF6003FE20B9002D14BF032300236AE000231B
S3150000DF7068E0554B0022DA7001221A7102221A70EB
S3150000DF80FFF79AFF042398E002F0E0F8052394E0F7
S3150000DF90084603F0DFF910B1A37A637016E0032395
S3150000DFA050E0494B0022DA7002221A711A70FFF70C
S3150000DFB083FF072381E002F0C9F808237DE00846C5
S3150000DFC003F0C8F910B1A37ABB551DE0062339E06A
S3150000DFD03D4B0022DA7003221A7102221A70FFF7F3
S3150000DFE06BFF0A2369E002F0B1F80B2365E00846EF
S3150000DFF003F0B0F940B104F20B1004F10A01022259
S3150000E00004F0C1FD0C231DE009231BE02E4B012269
S3150000E010DA701A70FFF750FF0D234EE002F096F803
S3150000E0200E234AE0084603F095F950B10135284B16
S3150000E03094F80B21E9B204F10A0003EB811103F015
S3150000E04049F90F23A3706FF06200F8BD94F80D3103
S3150000E05053B11D4B0222DA7001221A70FFF72CFF12
S3150000E060002384F80D3101E06FF06200102324E0F4
S3150000E0702279A37993420AD0134B03211A71022203
S3150000E080D9701A70FFF718FF2379A37101E06FF0BA
S3150000E0906200112311E0E278637993420AD00A4BB9
S3150000E0A004211A710222D9701A70FFF705FFE3786E
S3150000E0B0637101E06FF062000C23A370F8BD6FF08E
S3150000E0C06300F8BDCD2AFF1FF72DFF1F6528FF1F30
S3150000E0D007B5FF1F10B9054B83F860004FF487732F
S3150000E0E05843034B00221A54704700BFB827FF1F3E
S3150000E0F0CD2AFF1F1FB5104B104C1A6842F48062E0
S3150000E1001A600F4B1A6822F4E0621A6001A803F045
S3150000E1104FFA204601A903F0E1F9236A23F04003F0
S3150000E1202362204603F06AFA064B08221A60002290
S3150000E1301A715A7104B010BD3880044000B0034013
S3150000E14000A00440FC2EFF1F10B50748074A002117
S3150000E15003F09CFA044C0021204603F0BFFA0306A4
S3150000E160F8D5206910BD00BF00B00340FC2EFF1F8C
S3150000E1700E4B1A6842F4007213B51A60D3F8D02F0A
S3150000E1800B4C22F4E06242F48072C3F8D02F0123D4
S3150000E1908DF8043020460023022101AA8DF80530AF
S3150000E1A004F000F80423636002B010BD3880044018
S3150000E1B000F00F40064B1A6842F480621A60012292
S3150000E1C04FF0030362F30A23024A9381704700BFAC
S3150000E1D03880044000A00440064B1A6842F480626E
S3150000E1E01A6001224FF0030362F30A23024A1381E5
S3150000E1F0704700BF3880044000A004400D4B1A68E9
S3150000E20042F4805213B51A600B4B0C4CDA6922F4B7
S3150000E210E06242F48072DA61094B20461B88ADF851
S3150000E2200430072101AA03F0BDFF8023636002B01A
S3150000E23010BD00BF3880044000C00440C0F00F404D
S3150000E240283A01002DE9FF414E8804460D469046C6
S3150000E250006806210DF103021F46FEF7FDFD9DF83D
S3150000E2600330022B3DD8310AEB880293012902D1F3
S3150000E270206809212AE00229F0B204D18DF80C00A9
S3150000E2800A21206822E0032907D1AB888DF80E0009
S3150000E290ADF80C3020680B2118E0212905D1AB8898
S3150000E2A08DF80C3020680C2110E0222905D1AB88AE
S3150000E2B08DF80C3020680D2108E023290AD18DF84D
S3150000E2C00C00AB8820688DF80D300E2101AA00F0F5
S3150000E2D031FB00E00520019BC8F80030029B3B6043
S3150000E2E000E0052004B0BDE8F08137B504460D46D0
S3150000E2F0006806210DF10702FEF7AEFD9DF8073016
S3150000E300032B0AD0013B012B17D86B888DF80730F9
S3150000E310072120680DEB01020CE02068072100228E
S3150000E320FEF7BBFD50B9012320688DF807300621A2
S3150000E3300DF10702FEF7B1FD00E0052003B030BD88
S3150000E34037B50D460621002304460DEB0102006891
S3150000E3508DF80730FEF780FD9DF80630012B01D9B8
S3150000E360052037E06B78032B04BF01238DF80730B7
S3150000E3702B7813F01F0309D16B88012BF0D120688D
S3150000E38010210DF1070200F0D5FA23E0022BE7D1A8
S3150000E3906B88002BE4D1AB8813F00F0210D19DF8E7
S3150000E3A00710DB0931B143EA02012068C9B2FEF762
S3150000E3B031FD05E043EA02012068C9B2FEF73BFDE4
S3150000E3C09DF8073020682A1D0BB1052100E00621C3
S3150000E3D000F070FA03B030BDF7B505460C46174697
S3150000E3E0006806210DF107021E46FEF735FD9DF871
S3150000E3F0073063B9A38828682C46082124F8103F03
S3150000E4002246FEF729FD02233C60336000E005202A
S3150000E41003B0F0BD2DE9F7430446884691460068EF
S3150000E42006210DF103021D46FEF716FD9DF8033089
S3150000E430012B30D898F8006016F01F0604F110077B
S3150000E44009D1206804213A46FEF706FD238A03F027
S3150000E4500303238203E0012E04D10020208202233D
S3150000E4602B6015E0022E12D1B8F804308DF8043076
S3150000E47020680023052101AAADF80630FEF7ECFC62
S3150000E480BDF8063003F0030323822E6000E005206A
S3150000E490C9F8007000E0052003B0BDE8F08337B589
S3150000E4A005460C46006806210DF10702FEF7D4FC6E
S3150000E4B09DF807308BB9A288A37828682C4643EAD2
S3150000E4C0022324F8103F0421224600F0F3F92868BD
S3150000E4D00821224600F02EFA00E0052003B030BDE8
S3150000E4E0F7B504460D461646006806210DF10702EB
S3150000E4F01F46FEF7B1FC9DF8073063B901233B6068
S3150000E50004F1100333602A792282206812211A4608
S3150000E51000F010FA00E0052003B0F0BD73B5044624
S3150000E5201546006806210DF107021E46FEF794FC0B
S3150000E5309DF80730012B88BF052008D8012304F178
S3150000E540100233602A602068112100F0F3F902B04E
S3150000E55070BD37B504460D46006806210DF1070269
S3150000E560FEF77AFC9DF80730012B88BF05201ED8E0
S3150000E570002320688DF8073006210DF10702FEF70B
S3150000E5808CFC6B8843B9012320688DF8073006217F
S3150000E5900DF10702FEF781FC023503212A462068A9
S3150000E5A000F088F9206807212A4600F0C3F903B075
S3150000E5B030BD2DE9F041052A05460C46069F079E0B
S3150000E5C012D10A7812F0600F07D0120605D4CA8855
S3150000E5D01AB1191C18BF012100E001212846C90102
S3150000E5E0BDE8F041FEF716BCCB8832689A4288BF78
S3150000E5F0336000213A683368FEF7C8FB014650B91C
S3150000E60094F90030002B06DA28460A460B46BDE888
S3150000E610F041FEF7C1BB0846BDE8F0812DE9F041A7
S3150000E6204B688AB04FF00008013306460F46144681
S3150000E630CDF81080CDF8148001D10520C6E0002A5F
S3150000E640FBD0062102F108050DF10F02FEF704FCCE
S3150000E650397A002976D07B68082BEED13B68002BEF
S3150000E660EBD05A8862819A885978A281DA881B7819
S3150000E670E28113F0600F617223720BD1554B53F890
S3150000E6802170002F55D004AA2046294605ABB8476D
S3150000E69002464FE003F020014AB3180627D459B1C9
S3150000E6A001210892304606AACDF81C808DF8241068
S3150000E6B0069500F0FFF80DE05F063AD500230793B4
S3150000E6C00892012330460F2106AA8DF824300695BC
S3150000E6D000F030F9089B0593079B0493024648BB5C
S3150000E6E011463046049AE389FEF756FB6EE001F0C8
S3150000E6F0FF0059B1002301210892304606AA07936C
S3150000E7008DF82410069500F0D5F80CE05C0610D5BF
S3150000E71007900123089230460F2106AA8DF824306F
S3150000E720069500F007F9089B0593079B049302469C
S3150000E73000E0052204AB009305AB01933046294661
S3150000E740002341E09DF80F30032B09D1627A214B5B
S3150000E750204653F82260294604AA05ABB04735E0A7
S3150000E7607B68002B3FF469AFE289002A3FF465AF6E
S3150000E770227A10063FF561AF02F0200000F0FF0498
S3150000E78058B13A6807928DF824103046012106AA3E
S3150000E7900695089300F08EF80CE052060CD53A6800
S3150000E7A0079230460F2106AA8DF824400695089355
S3150000E7B000F0C0F8024600E0052204AB009305AB6A
S3150000E7C00193304629460123FFF7F3FE0AB0BDE860
S3150000E7D0F08100BF483A01007FB5134B0293012335
S3150000E7E08DF8043004AC002303918DF803308025A6
S3150000E7F04023694602AA06468DF8025024F8103DC9
S3150000E800FEF7CEFA68B98DF802006946304602AACC
S3150000E810FEF7C6FA044618B130462946FEF7DDFA79
S3150000E820204604B070BD00BF1DE6000010B50446CA
S3150000E83002F030FE084B1A6812B19A7CA24203D04D
S3150000E84002F032FE042010BD00241C605C609C7443
S3150000E85002F02AFE204610BDC4BBFF1F38B5054690
S3150000E8600C4602F017FE074B1A6812B19A7CAA42B0
S3150000E87003D002F019FE042038BD236002F014FE16
S3150000E880002038BDC4BBFF1F38B505460C4602F054
S3150000E89001FE074A136813B1927CAA4203D002F024
S3150000E8A003FE042038BD236002F0FEFD002038BDC3
S3150000E8B0C4BBFF1F2DE9F04104460F4616467AB346
S3150000E8C002F0E8FD194B1A689442984602D002F00D
S3150000E8D0EBFD25E002F0E8FD00250124D8F8043020
S3150000E8E0197AEAB291421ED91B680C2101FB023348
S3150000E8F09A681279012A01D1002201E072B9012237
S3150000E9000B49586801EB02123946D2F808C0324664
S3150000E910E047052808D0002808BF00240135DDE7B8
S3150000E9200420BDE8F0812046BDE8F081C4BBFF1F8E
S3150000E9307C3A0100F8B5104D04460E46174602F023
S3150000E940A9FD2B689C4203D002F0AEFD0420F8BD61
S3150000E95002F0AAFD012E08D129462046FFF73CFF0A
S3150000E960204602212A46FFF7A5FF6B6820465B6812
S3150000E97031463A469847F8BDC4BBFF1F2DE9F04122
S3150000E98005460E461746002A50D000294ED04B6841
S3150000E990002B4BD0274C02F07DFD2368A04663B1C7
S3150000E9A0A37CAB4204D102F07FFD0120BDE8F081DB
S3150000E9B002F07AFD0220BDE8F081A57402F074FD34
S3150000E9C0666028461C492246FEF788F9064640B18D
S3150000E9D02068FEF76DF92846FFF728FF3046BDE8A8
S3150000E9E0F0810446D8F80430197AE2B2914217D978
S3150000E9F019680C26564331448B681B79012B03D1C9
S3150000EA0028460A1D00F0B6F9D8F8043019683144D2
S3150000EA108B681B7913B928460A1D98470134E1E72C
S3150000EA20044B1B683B600020BDE8F0810420BDE874
S3150000EA30F08100BFC4BBFF1F35E9000073B501A913
S3150000EA400646FFF70BFF28BB0446019B5A68107A5F
S3150000EA50E1B2884215D913680C254D432B449A68B8
S3150000EA601279012A02D1586800F0AAF9019B5B6865
S3150000EA701B681D44AB681B790BB96868984701345D
S3150000EA80E3E71868FEF714F9044610B93046FFF7B5
S3150000EA90CDFE204602B070BD10B510460C464AB1F8
S3150000EAA00023537453683BB11B682BB101212246E6
S3150000EAB0984710BD032010BD012010BD10B51046AB
S3150000EAC00C464AB10023937453683BB11B682BB1C3
S3150000EAD002212246984710BD032010BD012010BD1B
S3150000EAE038B58368054673B100240120AB681A79EE
S3150000EAF0944207DA9B68286813F82410FEF76DF92C
S3150000EB000134F3E738BD012038BD00007FB5426807
S3150000EB10037B926851799942044601D201204BE069
S3150000EB201268002AFAD003F10053013B02EBC30638
S3150000EB3012F833500023AB42F0DA0C2159437068C7
S3150000EB404218415C032915D1157A0023AB4208DA35
S3150000EB50190150684618405CA17B884202D00133F7
S3150000EB60F4E70026D3786373002ED7D0A66000257D
S3150000EB70012001E00133DEE733799D421CDA0023F0
S3150000EB808DF80430B368206803EB850213F825304E
S3150000EB908DF802305188ADF8001052788DF80320B8
S3150000EBA0DB0914BF054B064B0293694602AA039480
S3150000EBB00135FEF7F5F8DFE704B070BD99EA00000D
S3150000EBC0BDEA00007FB504461546002A00F0CA805B
S3150000EBD0002800F0C7800139052900F2C580DFE86A
S3150000EBE001F0600308192F490023037343748374EB
S3150000EBF0BAE04368002B00F0B780037B12789A4294
S3150000EC0000F0B2800BB1FFF76BFF2B782373002364
S3150000EC10A37311E04368002B00F0A6801588437BA0
S3150000EC20B3EB152F40F0A080837BEDB2AB4200F032
S3150000EC309B80FFF755FFA5732046FFF767FF96E019
S3150000EC404368002B00F090808368002B00F08C80D6
S3150000EC5000260120A3681A79964280F288809B6874
S3150000EC602A7813F82610914202D12068FEF7D2F8CE
S3150000EC700136EFE74368002B76D08368002B73D00C
S3150000EC8000260120A3681A79964270DA9B682A78D2
S3150000EC9013F82610914202D12068FEF7CCF801360F
S3150000ECA0F0E71368187800F01F0001285CD1197985
S3150000ECB0627B91425BD15A78013A0A2A56D8DFE83C
S3150000ECC002F006121555555555551F3D47005A88F1
S3150000ECD0120A8DF80C205B888DF80D30636820468B
S3150000ECE01B6803211BE004F10F0601E004F1100686
S3150000ECF0636820461B680421324698476E6036E0FA
S3150000ED005A88297B120A8DF80C205B888DF80D3005
S3150000ED10AA68636851B11B6802922046092101AABC
S3150000ED209847019B6B60029BAB6020E0696801918C
S3150000ED3002921B682046062101AA11E05B881B0A85
S3150000ED40E3732A68636820461B680721023207E0DE
S3150000ED505B88237463681B682046082104F110024F
S3150000ED60984704E0032002E0012000E0052004B0FB
S3150000ED7070BD00002DE9F04100230F469046142592
S3150000ED800E4E5D43AC5934B974192146FFF77CFD2C
S3150000ED9038B1BDE8F0810133052BF0D10220BDE882
S3150000EDA0F08173593BB1FF232073A3736760C8F8E2
S3150000EDB00040BDE8F0810320BDE8F081D8BBFF1F0D
S3150000EDC010B5044638B1FFF78BFE00232373A373F7
S3150000EDD02360636010BD032010BD10B5044640B12A
S3150000EDE0407C40B92068FDF7D1FF28B90123637440
S3150000EDF010BD032010BD022010BD10B5044640B161
S3150000EE00807C40B92068FDF7C7FF28B90123A374A9
S3150000EE1010BD032010BD022010BD83880268591C56
S3150000EE208180D05C704738B50546FFF7F6FF04468B
S3150000EE302846FFF7F2FF44EA002080B238BD08B545
S3150000EE40FFF7F1FF00B208BD08B5FFF7E6FF003097
S3150000EE5018BF012008BD10B50446FFF7DEFFFF28E6
S3150000EE6004D12046BDE81040FFF7DDBF10BD38B520
S3150000EE7004460D46FFF7EFFF2880A3882268184452
S3150000EE80A080D01838BD000002289ABF024B53F864
S3150000EE9020000020704700BF9C3A0100F8B50446E8
S3150000EEA0FFF7C1FF2046FFF7D6FFFF2806463ED8EC
S3150000EEB00025EBB2B342204605F101050BD2FFF760
S3150000EEC0ACFF2046FFF7A9FF2046FFF7A6FF204626
S3150000EED0FFF7A3FFEDE7FFF7BEFFFF28054628D89B
S3150000EEE00026F1B2A942204605D200F0FFF901360C
S3150000EEF00028F6D022E0FFF7AEFF431E9BB2FE2BA2
S3150000EF00064618D80027F9B2B14208D22046F2B216
S3150000EF10EBB200F01BF801370028F4D00EE0084BE6
S3150000EF20187850B9074B1E70074B1D70F8BD0920A5
S3150000EF30F8BD0C20F8BD0A20F8BD0020F8BD00BFC2
S3150000EF40042FFF1FE2B0FF1F01B5FF1F2DE9F04F91
S3150000EF5089B00C460DF11201994605461746B0F8E0
S3150000EF6004B0FFF784FF82462846FFF76DFF05A928
S3150000EF7080462846FFF77BFF0DF116012846FFF76E
S3150000EF8076FF2846FFF767FFBDF812104B1E022BCF
S3150000EF9000F2FA80042840F0F980824B1A7862B9B0
S3150000EFA0814E46F834A006EBC406B171A6F804B04B
S3150000EFB0B8F1000F01D07D4B1C707D497D4A0F7062
S3150000EFC082F8009000262846FFF745FF0428814670
S3150000EFD000F2E4800027FBB24B4580F0D98028463A
S3150000EFE0FFF71BFF03902846FFF717FF2846FFF79A
S3150000EFF032FF4028824600F2C1804FF000085FFAD7
S3150000F00088F3534580F0B88066490A786AB9039A4E
S3150000F0104FF4C0745443062202FB03434FF4C0640A
S3150000F020654A04FB0634144400E006AC2846FFF7A4
S3150000F030F4FE2028834636D002D840B9207098E0E6
S3150000F040222847D03DD3232800F084808FE0012179
S3150000F050C0F3C10221701AB1022A04D9032A01D0D1
S3150000F060002100E002211BF00100617007D0022A96
S3150000F070284602D1FFF7D7FE01E0FFF7CEFE0BF0E0
S3150000F0800202A08002F0FF0012B12846FFF7C5FE7B
S3150000F0900BF00403E07003F0FF0013B12846FFF7FE
S3150000F0A0BCFEA07065E02846FFF7B7FE034628467B
S3150000F0B00193FFF7C9FE03222270019B0133A3705F
S3150000F0C051E02846FFF7A9FE39490B78834248D814
S3150000F0D0082054E02846FFF7A0FE034620464FF0DE
S3150000F0E0020C00F801CB002103220193CDF808C0E1
S3150000F0F003F052FD019BDDF808C00C2B28D8DFE891
S3150000F10003F007090C0F111416181A1D1F222400EC
S3150000F110012300E0042363702BE084F801C028E09B
S3150000F120012313E084F803C023E004230EE0082340
S3150000F1300CE0012305E084F802C01AE0042300E095
S3150000F1400823A37015E0102300E02023E37010E0ED
S3150000F150022014E02846FFF760FE16490B7883422A
S3150000F16003D904232370607003E00D2007E0032019
S3150000F17005E008F1010842E7002000E0062001371B
S3150000F18000283FF428AF0AE00B2008E0042006E040
S3150000F1900136042E7FF417AF002000E0052009B0E9
S3150000F1A0BDE8F08F042FFF1F901EFF1FE0B0FF1F6A
S3150000F1B006AFFF1F05AFFF1F9006FF1F2DE9F8439F
S3150000F1C0960806F00308B60806F0020381460C46C8
S3150000F1D002F0030703F0FF0513B1FFF71EFE054615
S3150000F1E016F0010F4FF0000603D04846FFF715FE54
S3150000F1F000E03046E070277084F80180A570A671A3
S3150000F2000020BDE8F88338B50C461546FFF705FE25
S3150000F210A5F14002012360702270A371002038BD61
S3150000F22070B50C460546FFF70AFE06462846FFF768
S3150000F23006FE022360802680A371002070BD70B593
S3150000F2400C460546FFF7FBFD06462846FFF7F7FD89
S3150000F250032360802680A371002070BD13B50C4681
S3150000F2600DF10601FFF703FE0523A371BDF8063075
S3150000F27020600020A38002B010BD38B505460C46BC
S3150000F280FFF7CBFD4228024607D8402812D228466F
S3150000F2902146BDE83840FFF791BF442816D00FD36A
S3150000F2A0452819D046281FD128462146BDE83840B2
S3150000F2B0FFF7D4BF28462146BDE83840FFF7A3BF75
S3150000F2C028462146BDE83840FFF7AABF2846214612
S3150000F2D0BDE83840FFF7B3BF2846FFF7B0FD04236B
S3150000F2E02080A371002038BD072038BD7FB50446B5
S3150000F2F00D46FFF7A9FD2046FFF7A6FD0DF1060115
S3150000F3002046FFF7B4FD2046FFF7A5FD0C4BA2886B
S3150000F3101B7806462BB90B4B23F8252003EB8505F6
S3150000F32068800025ABB2B34207D2204602A9FFF798
S3150000F330A4FF01350028F5D000E0002004B070BD20
S3150000F340042FFF1FF4B0FF1F184A41F23C0310B50B
S3150000F350D15841F40001D150154B012400214FF042
S3150000F360FF321960C3F81021C3F81811C3F81C4105
S3150000F370D3F8181141F00401C3F81811D3F8181185
S3150000F3802143C3F81811C3F80021C3F80C41C3F890
S3150000F390084100F0D9FA074BC000B0FBF3F0064B6A
S3150000F3A0002808BF2046186010BD00BF007004404A
S3150000F3B00070034040420F0008AFFF1F10B5074B17
S3150000F3C0D3F81441D3F80421D3F804319A42F6D382
S3150000F3D000201043C043E14310BD00BF007003404E
S3150000F3E038B50446FFF7EAFF084B1B68A4FB034544
S3150000F3F0E20842EA4572EB08841841EB0305FFF781
S3150000F400DDFFA94208BFA042F9D338BD08AFFF1FF0
S3150000F410013938B51446082929D8DFE801F0051462
S3150000F4202144442A442850005368013B033348D8FA
S3150000F430254B18688369002B43DD90F84630012B75
S3150000F4403FD1183009E053685A1E033239D81E4A94
S3150000F4501068C36101230373143000F021FD30E00E
S3150000F460194B186800212030242203F095FB012057
S3150000F47038BD9378144D3BB9D3782BB91078012851
S3150000F48002D12B68587338BD28686268214620303F
S3150000F49003F079FB28686268C261012404731430A2
S3150000F4A000F0FEFCE3E7084C20680021143000F071
S3150000F4B0EBFC20680021183000F0E6FCD7E70520B9
S3150000F4C038BD002038BD00BF0CAFFF1F012938B57D
S3150000F4D00C460DD1074D2A68242382F84610906801
S3150000F4E002212032FFF789FC2B6883F8474038BD9C
S3150000F4F0002038BD0CAFFF1F51B9064B1B68022117
S3150000F50083F84820986803F120022423FFF775BC8E
S3150000F510002070470CAFFF1F014B1860002070479A
S3150000F5200CAFFF1F024B186000238360184670471C
S3150000F5300CAFFF1F05207047087A20B9034B0B60FC
S3150000F5404C234B6070470520704700BF6805FF1FBE
S3150000F55005207047024B0B6012234B60002070475A
S3150000F5603C06FF1F087A20B9034B0B6029234B602A
S3150000F57070470520704700BFCC04FF1F887A0E4BEA
S3150000F58010B520B91A685B680A604B6010BD9B68AD
S3150000F5900C891A89944201D1032801D9052010BD8E
S3150000F5A01A685B6800B252F8202053F820300A60CF
S3150000F5B04B60002010BD00BFF005FF1F10B50369AA
S3150000F5C000219C680A460B46A04710BD00207047E4
S3150000F5D02020704738B5084D05F114042046002157
S3150000F5E000F052FC05F11800002100F04DFC204609
S3150000F5F000F056FC002038BD3CAFFF1F08B50020C8
S3150000F600FFF71CFA98B90A48FFF78CFF094A41F23E
S3150000F6103403D15849030AD507494FF40010C1F8FD
S3150000F6208400C1F88401D15821F48021D15008BD4D
S3150000F6303CAFFF1F0070044000E100E0154B41F2B3
S3150000F64048020021995041F204020120995841F4E0
S3150000F650E021995041F23402995841F480219950A1
S3150000F6601A6842F000421A601A6822F440221A60B0
S3150000F67003F52C33032283F8442193F8402142F00A
S3150000F680800283F8402193F8402142F0200283F85B
S3150000F690402170470070044070B5164C164D00218D
S3150000F6A05022204603F078FAFFF7C8FF134B144A9E
S3150000F6B01A6000202946224684F84C0084F84D0042
S3150000F6C0A0602060FFF75AF9064688B92B682046E5
S3150000F6D05B68A360FFF720FF0A4B302283F83523CF
S3150000F6E04FF400125A602068FDF7DEFA304670BD0E
S3150000F6F0012070BD3CAFFF1FB404FF1F10AFFF1FFA
S3150000F700F005FF1F00E100E0034B93F84D0000B148
S3150000F710187B00F0010070473CAFFF1F2DE9F8434E
S3150000F72016468946002946D0002A44D00022326077
S3150000F7301BB1012B39D1022700E00127FFF7E4FFB7
S3150000F740002839D01D4DAB7B33B1A868022105F1E5
S3150000F75020022423FFF751FB184C4FF0010804F157
S3150000F76014004FF0FF3185F80E8000F08FFB95F8FE
S3150000F7702030BB4208D047451AD1022B0CBF4FF0B0
S3150000F780FF304046BDE8F88394F8232094F82230F1
S3150000F79043EA0223E269043A9A4209D32434C9F8B7
S3150000F7A0004000203360BDE8F8830120BDE8F883FF
S3150000F7B04046BDE8F8830420BDE8F8833CAFFF1F50
S3150000F7C02DE9F0410F4615461C46FFF79DFF002820
S3150000F7D03AD0202D3BD824B1012C3BD14FF0040860
S3150000F7E001E04FF0030800F061FB1C4B5E7B1C46FA
S3150000F7F03EB100225A7300F061FB4FF0FF30BDE8C6
S3150000F800F08100F05BFB84F8208084F8216084F8A6
S3150000F810225084F8236037B12DB104F12400394613
S3150000F8202A4603F0B0F994F846100C4D01290BD185
S3150000F830A86805F120022423FFF7CFFA05F1180086
S3150000F8404FF0FF3100F022FB0020BDE8F0810420DC
S3150000F850BDE8F0810120BDE8F08100BF3CAFFF1F8D
S3150000F860013910B511291BD8DFE801F0091A1A1A57
S3150000F8701A1A0E1C40474E555C631A1A2C33314B2C
S3150000F880002283F84D200BE052B12E4B012183F864
S3150000F8904D10117883F84E1098681178FFF716FE10
S3150000F8A0002010BD274B93F84D100029F8D0108882
S3150000F8B0040AF5D1C2B22146986883F84F20FFF7B3
S3150000F8C01BFEEDE7002AEBD01E4B93F84E3013706B
S3150000F8D0E6E7002AE4D01388190A31D1194890F8CE
S3150000F8E04F0023F0FF0303431380D9E7002AD7D044
S3150000F8F01146BDE81040FFF72DBE002AD0D01146B4
S3150000F900BDE81040FFF72EBE002AC9D01146BDE85B
S3150000F9101040FFF733BE002AC2D01146BDE81040A2
S3150000F920FFF708BE002ABBD01146BDE81040FFF71E
S3150000F93003BE002AB4D01146BDE81040FFF708BE4A
S3150000F940052010BD3CAFFF1F054A41F24403D358C2
S3150000F950044AC3F3036310680133B0FBF3F0704746
S3150000F960007004400000FF1F08B5FFF7EDFC002201
S3150000F97005480649134602F08BFF05480021BDE8FD
S3150000F9800840FFF789BE00BF0060064014AFFF1FA6
S3150000F990CC3A0100014B1870704700BF7806FF1F74
S3150000F9A0014B5880704700BF7806FF1F10B586B020
S3150000F9B00A4B0490059106A900241B7841F8184DBE
S3150000F9C007488DF8043069468DF8054002948DF895
S3150000F9D00C4002F0C3FE204606B010BD7806FF1F9D
S3150000F9E00060064010B586B00B4B0490059106A941
S3150000F9F000241B788DF8043041F8184D0123694620
S3150000FA0006488DF8053002948DF80C4002F0A6FEEB
S3150000FA10204606B010BD00BF7806FF1F00600640F6
S3150000FA2037B5044601A80D4601F065FC01A821463C
S3150000FA30042201F063FC01A82946628801F05EFCFD
S3150000FA4001A80DF1060101F071FCBDF8060003B036
S3150000FA5030BD0000034B1B78012B01D1FFF7C2BF5D
S3150000FA60012070478CAFFF1F73B506464FF47A70BE
S3150000FA700D46FFF7B5FC80240DF107000121FFF7C5
S3150000FA80E9FF9DF807305A2B03D101203370286017
S3150000FA9007E04FF4FA70FFF7A3FC013CECD12C60B1
S3150000FAA0204602B070BD0000034B1B78012B01D12C
S3150000FAB0FFF77CBF012070478CAFFF1F1FB5A02347
S3150000FAC002228DF804308DF807200023029003915E
S3150000FAD00C2201A904488DF805308DF80630FFF791
S3150000FAE06FFE05B05DF804FBCC3A01001B4B00220B
S3150000FAF073B55A611A6104461E4648BB1848184D2C
S3150000FB0001A9FFF7B1FF012809D1019B012B06D1FD
S3150000FB10681C0521FFF79EFF041C18BF0124698895
S3150000FB201048C9B2FFF796FF002818BF01245A23D0
S3150000FB30012C8DF800304FF47A700CBFA223A1235C
S3150000FB408DF80130FFF74CFC68460221FFF7ACFF49
S3150000FB502046317FFFF7B2FF02B070BD90AFFF1FA6
S3150000FB60B0AFFF1FB6AFFF1F2DE9F041AD4E3368B2
S3150000FB70022B8EB0344600F0A780032B00F0E18004
S3150000FB80012B00F03E81A848311D06F10802002332
S3150000FB90FFF7C4FD0546002840F06781B368002BD7
S3150000FBA000F0638176683778C12F0DD13079FFF781
S3150000FBB0F1FEB068FFF7F4FE9C4B01221A7028464E
S3150000FBC03178FFF77BFF50E1032F0BD104F10C00D6
S3150000FBD02946142202F0E0FFB3682361736863616B
S3150000FBE0277701E0102F01D102230FE0082F01D063
S3150000FBF0042F0CD18E480021142202F0CDFFB368E9
S3150000FC0023617368636104232377032323605A23E4
S3150000FC10A2688DF81030A42361688DF81130ADF814
S3150000FC2012201AB10DF1160002F0ADFF0DF116010A
S3150000FC3004A8FFF7F5FEBDF81210ADF81400063162
S3150000FC4004A8FFF731FF002840F0DE80212601A836
S3150000FC5002A9FFF709FF012840F0D6800299012981
S3150000FC6040F0D2809DF804305A2B21D10DF10500C9
S3150000FC70FFF7F0FE002840F0C7809DF80570A12F21
S3150000FC8040F0C2806B4C03A92046FFF7EDFE012829
S3150000FC9040F0BA80DDF80C80B8F1010F40F0B48076
S3150000FCA0601C0521FFF7D6FE002840F0AD80ADE0D0
S3150000FCB0013E16F0FF06CAD15B485F493246002373
S3150000FCC0FFF77EFD0546D0E03669002E00F08A80FB
S3150000FCD004A80621D4F81480202E34BF35462025EA
S3150000FCE0FFF7B8FE38B904A82946FFF7B3FE071C8C
S3150000FCF018BF012700E001275A238DF80C300FB1F9
S3150000FD00A22300E0A12303A802218DF80D30FFF7FE
S3150000FD10CBFE37B104A9002201234348FFF750FD6B
S3150000FD2063E0761B404804A92A460123FFF748FDF5
S3150000FD30002E5BD0002859D1454426616561022317
S3150000FD405CE035690DB9002050E000230293364887
S3150000FD50D6F8148001A902AA0123FFF7DFFC0646A4
S3150000FD60002843D1029A002AEDD05A23AA4228BF7E
S3150000FD702A468DF8103001990292A5230DF116003E
S3150000FD808DF81130ADF8122002F0FDFE0DF11601CE
S3150000FD9004A8FFF745FEBDF81210ADF814000631B1
S3150000FDA004A8FFF781FE08B1012618E0212768465E
S3150000FDB003A9FFF759FE01284ED1039901294BD11A
S3150000FDC00DF10100FFF746FE002845D19DF80030F1
S3150000FDD05A2B04D09DF80160A13E18BF0126029B54
S3150000FDE0ED1A01D1304601E026B10120FFF77EFE73
S3150000FDF0002303E043446361256103232360002558
S3150000FE0033E00025356030E001252EE06688F6B245
S3150000FE10A01D3146FFF71EFE80B1A2238DF80530E6
S3150000FE2045460DE090AFFF1FCC3A01008CAFFF1F97
S3150000FE309CAFFF1FB0AFFF1FB6AFFF1F8DF8057059
S3150000FE404FF47A70FFF7CCFA01A80221FFF72CFED7
S3150000FE50002D3FF431AF08E09DF800305A2BA3D0B7
S3150000FE60013F17F0FF07A2D19EE728460EB0BDE876
S3150000FE70F08100BF08B5034B00221A60FFF774FE3D
S3150000FE80FCE700BF90AFFF1F0160704772B60368C2
S3150000FE900133036062B60368002BFCD10120704772
S3150000FEA072B60368013B036062B6704772B6024BD6
S3150000FEB01A6801321A607047F0AFFF1F054B1A68C7
S3150000FEC0012A03D800221A6062B670471A68013AFE
S3150000FED01A607047F0AFFF1F38B5144A144B1288EA
S3150000FEE01B88144C144D1A4492B2110A6270134ABC
S3150000FEF0217012881249D21A0968402AA8BF4022E6
S3150000FF002A701944A01CD2B202F03DFE0D4A2B788D
S3150000FF1014615021023311710021517153610A4855
S3150000FF200A49BDE8384002F0EDBC00BF22B0FF1F11
S3150000FF302CB0FF1F34B0FF1F90B0FF1F76B0FF1F1D
S3150000FF4028B0FF1F78B0FF1F00700640F8AFFF1FF4
S3150000FF50F8B5234B234E1B7832603546224C13B13D
S3150000FF60012B21D039E0214F3A780AB123702BE0DA
S3150000FF701F4D2878FEF788FF2B781E4A016811610D
S3150000FF80002B4FF0500047F6C0734FF0010508BF35
S3150000FF9040231071184919485571536102F0B2FC9B
S3150000FFA0257030603D70F8BD154B22B9154A1178A1
S3150000FFB01A880A441A801A88134B1B889A422CBF47
S3150000FFC000230123237023B9104B1B683BB19847CC
S3150000FFD0F8BDFFF781FF2860F8BD00232370F8BD48
S3150000FFE02FB0FF1FF4AFFF1F2EB0FF1F21B0FF1F62
S3150000FFF020B0FF1F78B0FF1FF8AFFF1F007006404C
S315000100002CB0FF1F90B0FF1F76B0FF1F30B0FF1F4F
S3150001001002480349034A002302F03ABC0070064035
S31500010020F8AFFF1F51FF0000F8B5234F3D78034697
S31500010030002D3DD12148224C03702248D1F1010601
S315000100400170214838BF00260260002E1F480CBFF0
S315000100504022002202801E48057042709BB1012B8E
S315000100601FD10846FEF710FF1A4B02681A601A4B99
S31500010070002E1D8047F6C072184B18BF40221A8009
S31500010080FFF72AFF0CE0164A1370164A5021106139
S3150001009011715371144815490223536102F032FC60
S315000100A020602068D0F1010338BF00233B70F8BD02
S315000100B040F24C40F8BD00BF2EB0FF1F2FB0FF1F0E
S315000100C0F4AFFF1F20B0FF1F30B0FF1F22B0FF1F8C
S315000100D024B0FF1F28B0FF1F2CB0FF1F76B0FF1FF3
S315000100E021B0FF1F78B0FF1F00700640F8AFFF1F59
S315000100F0054B196105491871002058715A6148620A
S315000101001A46034802F0FEBBBCB0FF1F94B0FF1FA6
S315000101100060064038B50A4C0A4D20710022627112
S3150001012021610B4609786A6203311846616101F063
S3150001013001F9294622460448BDE8384002F0E2BBEF
S31500010140BCB0FF1F94B0FF1F00600640064A116154
S315000101504FF48171516105491071012304485371AE
S315000101604B6202F0CFBB00BFBCB0FF1F94B0FF1FB4
S3150001017000600640114B1A68013230B51A60104A08
S31500010180104B10681968884285B015461C460DD17A
S315000101900D4908680130086001A802F083F80B4890
S315000101A002F070F800F034F900F036FC2A68084BCA
S315000101B022600122C3F80C2105B030BDD8B0FF1F63
S315000101C050B6FF1FD4B0FF1FDCB0FF1F0060064012
S315000101D00070034013B5134C02A9002301F8043D36
S315000101E0204602F021FC022001F056FC0E4B0F4A7C
S315000101F0A0FB03010023FCF723FAC4F80001D4F89D
S31500010200083143F00203C4F80831094B4FF4803238
S315000102105A60D4F8083143F00103C4F8083102B03A
S3150001022010BD00BF00700340A086010040420F00D0
S3150001023000E100E038B5354CAA232370344B1B6925
S3150001024058071AD441F24403324A3349D15002F5D0
S3150001025081521C32136843F0005313602F4B196906
S31500010260C90511D4196921F4705141F4C0511961BC
S31500010270196941F48071196106E0204602F0FCFB20
S31500010280E378802BFCD1DDE718692449214D20F460
S315000102900070186122484FF4004404605B69214CE8
S315000102A0DB0744BF0B680B601368A17823F000538A
S315000102B01360E278607801F06FFC1B4B22791978A4
S315000102C0D20001F0C70102F038020A431A70002178
S315000102D004F10802E07901F0EFFC144801F0ECFAB0
S315000102E0134B144A1A6041F2040400202B59124997
S315000102F023F010032B5101F0FDFA2B5923F0E003F3
S315000103002B512B5943F480532B5138BD00E0074044
S3150001031040F00F40007004400000230100D003406C
S3150001032040B6FF1F7C06FF1F004006408806FF1FE0
S315000103300000FF1F000E2707006CDC02044B102291
S3150001034083F8182383F8192383F83523704700BFF0
S3150001035000E100E082B000230193019B3D2B02D80E
S31500010360019B0133F8E702B0704700002DE9FF4118
S31500010370244B254CDA68254822F4E06242F4807267
S31500010380DA609A6822F4E06242F480729A6002218D
S315000103902388ADF8043001AA01F004FF14260127D1
S315000103A0A0461A4C04AA002322F8083D2046032140
S315000103B001F0F8FE2569B8F80030ADF80C3020469A
S315000103C0032103AA01F0EEFE15F0080F254615D10B
S315000103D004230FB9A36000E06360FFF7BBFF013E92
S315000103E087F00107DDD10824AC60FFF7B3FF0423D2
S315000103F06B60FFF7AFFF6C60FFF7ACFF04B0BDE8C1
S31500010400F08100BF00C004402A3A0100C0F00F404D
S315000104101FB5104B1A6842F480521A601A6842F4EA
S3150001042080521A60FFF7A2FF0B4B40F223729A81AA
S3150001043001A81A8101F036FF084B0293022001F050
S315000104402BFB01A90246064801F082FF05B05DF8C3
S3150001045004FB00BF3880044000C00440A0860100B0
S31500010460006006401FB5104B196841F40061196020
S31500010470196841F40061196002240C4B4FF0230204
S3150001048064F30A229A8501A81A8501F00BFF084B2D
S315000104900293204601F000FB01A90246054801F03E
S315000104A057FF04B010BD00BF3880044000B00440BF
S315000104B040420F000070064008B5FFF7A9FFBDE8EE
S315000104C00840FFF7CFBF08B5FFF738FFFDF750FE2D
S315000104D0FDF782FEFDF76EFEFDF70CFEFFF7ECFF62
S315000104E0FDF78CFE00F0B4F8FFF774FEBDE8084096
S315000104F0FFF78EBD70B50B4D0B4B044605EBC406DD
S3150001050018700A48B3888380094B1A78094B21462B
S315000105101B78FEF71BFDB07955F83410BDE8704025
S3150001052000F01EB8901EFF1FE1B0FF1F9004FF1FD1
S31500010530E2B0FF1F01B5FF1F30280BDB392804DDB0
S315000105404138192806D8044B01E0044B303833F8FA
S3150001055010007047002070470C3B0100F83A01007B
S3150001056002282DE9F84388460ED0032804D0012835
S315000105701DD10026002711E091F90200FFF7DCFFEB
S3150001058080B20709060701E00026002798F9010055
S31500010590FFF7D2FF8003064347EAE07798F90000A8
S315000105A0FFF7CAFF002180B23043394301E0002042
S315000105B0002101221B4E0240524286F89B204B0825
S315000105C04FEA300202F00102524286F89C2082086C
S315000105D042EA81728B0806F1180706F1980C00268B
S315000105E04FF0010909FA06F903EAE97102EA09007D
S315000105F007EB060850EA010906F101060CBF0021C6
S315000106006FF00001052E88F89010E9D154091037D2
S3150001061044EAC3645D09674522462B46DFD1BDE83E
S31500010620F88300BFA429FF1F084B002283F89D20F1
S3150001063083F8AD2083F8BD20421E022A04D803EBBD
S315000106400013FF2283F88D20704700BFA429FF1FE6
S315000106501A4B1A6842F4805270B51A60184B194C3D
S315000106609A6922F4E0628AB042F480629A6104A82F
S3150001067001F074FC04A9204601F052FB0025062373
S31500010680012602208DF80C308DF80D608DF80E5084
S315000106908DF80F5001F000FA45F6C0530093019012
S315000106A02B46204603A9324601F078FC236823F045
S315000106B0180343F0080323600AB070BD3880044074
S315000106C000C004400080034010B5074CC0F164032C
S315000106D0DBB220460621002201F02AFDA36D43F07C
S315000106E08003A36510BD00BF0080034010B590B123
S315000106F00023094AD1188978814211460BD001336A
S31500010700062BF6D10023CA1894780CB9907010BD47
S315000107100133062BF7D110BDEBB0FF1F58B10023F3
S31500010720054A1A449178814202D100239370704799
S315000107300133062BF4D17047EBB0FF1F024B1A7839
S3150001074010431870704700BFEBB0FF1F024B1A78B9
S3150001075022EA000018707047EBB0FF1F28B1034B67
S315000107601A78824201D002B91870704700B5FF1F8E
S3150001077028B1034B1A78824204BF00221A707047CF
S3150001078000B5FF1F70B5234C2378012B2ED002D361
S31500010790022B1CD03BE0204BE0781A787AB9012570
S315000107A01D70FFF7CBFF63782BB1022B2DD1A078FB
S315000107B0FFF7D4FF29E0A078FFF798FF25E0002591
S315000107C01D70FFF7C3FF667866B1022E05E0E0787B
S315000107D0FFF7BCFF65782DB1022D18D1A078FFF780
S315000107E0C7FF14E0A078FFF799FF10E0E078FFF764
S315000107F0A5FF65782DB1022D09D1A078FFF7AEFFCF
S3150001080005E0A078FFF772FF01E0284670BD0020E1
S3150001081070BD00BFF9B4FF1FE3B0FF1F034B9B7907
S315000108200BB9FFF7AFBF0020704700BFF9B4FF1F38
S3150001083008B5FFF7F3FFA8B90B4A138801339BB23A
S3150001084013800A4A11780A4A02EB810252889A42B7
S3150001085002D1084B187008BD07480849BDE8084091
S31500010860FEF70BBD08BD00BF04B5FF1F02B5FF1F94
S31500010870F4B0FF1FF0B4FF1F9004FF1FF9B4FF1F70
S31500010880014B01221A70704707B6FF1F0020012194
S31500010890014AFFF7C9BB00BF8108010010B50E4C24
S315000108A02378BBB1FDF76CF8FDF7F4F8FDF772F9A3
S315000108B00A4800F0BEFD0A490A48402202F063F9DF
S315000108C000F048FCFDF754F8FDF7DCF8FDF75AF99E
S315000108D00023237010BD00BFF828FF1F4827FF1F04
S315000108E05427FF1F07B5FF1F10B5FFF7A3FC1C4CCC
S315000108F0FFF7E9FD002001461A4AFFF795FBD4E907
S31500010900002315A1D1E900018B4208BF82420CD117
S31500010910237A012B09D100220023C4E90023FFF722
S3150001092023F8BDE81040FFF7A5BA00F075F80E48A8
S3150001093000F024FDFFF7B2FF00F03AF90B4C2378E3
S3150001094033B90B4B1B781BB100F0C0F9012323709F
S31500010950FFF7A4FF30BFF1E79A1F52949ECD043BE7
S3150001096000FF00208D0801004827FF1F06B5FF1F65
S3150001097007B6FF1FAFF300802DE9F843224B9146DE
S315000109801A6801321A600123204CDFF88880277823
S315000109901F4E98F8000007EB870706EB870573B132
S315000109A000EB800306EB8303D9F10102197C38BF02
S315000109B000221A7419B112B9DB6803B198472B7C6E
S315000109C01BB96B6816F827009847AB6816F827001D
S315000109D0984700F16403012B94BF002301230BB157
S315000109E001222A74633004D0227888F80020511C31
S315000109F021702278042A02D9044A00211170002BA1
S31500010A00C2D0BDE8F88300BF0CB6FF1F08B6FF1FB2
S31500010A10B827FF1F10B6FF1F0F4B104A70B50024F1
S31500010A201C700F4B0F4E1C700F4D104B30461C7433
S31500010A3083F8244083F8384083F84C4083F86040BB
S31500010A402946234601F024FF304629462346012242
S31500010A50BDE87040FFF790BF10B6FF1F790901008E
S31500010A6008B6FF1F0060064094B0FF1FB827FF1F9E
S31500010A7070B514462AB9012911D0082940F08180A0
S31500010A802FE0013911297CD8DFE801F0097B7B7B56
S31500010A907B7B0D2B5D62676C71767B7B27503B4BB5
S31500010AA00020187670BD394D01232B7613786B76AD
S31500010AB01178E868FCF7BAFF2178A868FCF77EFF91
S31500010AC021786868FDF732F821782869FDF700F882
S31500010AD068692178FDF77CF833E02C4B5B7E137057
S31500010AE02FE02A4D2B7E002B4BD02688340A042C6E
S31500010AF047D8F6B22B1921463246E8689E76FCF7AE
S31500010B009BFF21463246A868FCF75EFF2146324626
S31500010B106868FDF711F8214632462869FCF7DEFFC1
S31500010B20686921463246FDF759F80AE013881A0A20
S31500010B30042A28D815490A4423F0FF03927E134359
S31500010B402380002070BD1146BDE87040FDF758B8FE
S31500010B501146BDE87040FDF747B81146BDE8704043
S31500010B60FDF786B81146BDE87040FDF751B811464C
S31500010B70BDE87040FDF74EB81146BDE87040FDF77F
S31500010B8075B8012070BD052070BD00BF14B6FF1FEA
S31500010B90044B1B7A012B0CBF034B044B1868FCF763
S31500010BA0A9BC00BF00FF00203CAFFF1F14B6FF1F0A
S31500010BB038B5134C134DFCF703FE13494FF4E020EF
S31500010BC000F098FE2246002029462076FDF7D6FE43
S31500010BD02B685A68E2601A69A260DA6962609A6AE9
S31500010BE05B6B6361094B2261302283F835234FF435
S31500010BF000125A602068BDE83840FCF755B800BFBE
S31500010C0014B6FF1F1C28FF1F006CDC0200E100E088
S31500010C100C4B5A780C4B052A11D8DFE802F0030376
S31500010C200303060A01225A70704740225A700022B5
S31500010C3003E06FF03F025A707F229A7070470122DB
S31500010C401A7070474929FF1F0929FF1F000000007C
S31500010C500BA3D3E900230649C1E90023054B064A44
S31500010C605B780B72054BDA60FEE700BFAFF30080DD
S31500010C7000FF00204929FF1F0400FA0500ED00E0EE
S31500010C809A1F52949ECD043B064B074A5B788021FE
S31500010C900BB9916000E051600033044A18BF01238B
S31500010CA0137170474929FF1FC0F00F40CD2AFF1F5E
S31500010CB0044B1A69044BC2F3C00282F001025A7056
S31500010CC0704700BF40F00F400929FF1F2DE9F74F7C
S31500010CD02A4DDFF8C4B02A4C00264FF0010A2846F7
S31500010CE08BF800A0AE80FEF7D9F8AB8863701B0ABB
S31500010CF007462070A370E67000283CD1214EDFF82C
S31500010D0090803378032258F8331001A801F03BFF95
S31500010D1033781D4E8BF8007008EBC303326893F8E5
S31500010D2006902B68336030462A60B780FEF7B6F826
S31500010D30B38863701B0A2070A37084F803A0D0B92E
S31500010D400546124B1B78ECB2A34210D908EBC4033B
S31500010D509B794B4509D10E4B01A853F834104A46ED
S31500010D6001F002FF08B9204603E00135E9E7094B26
S31500010D701878FFF7BFFB03B0BDE8F08FA004FF1F93
S31500010D800929FF1FE1B0FF1F9004FF1FE2B0FF1FFB
S31500010D90901EFF1FE0B0FF1F042FFF1F10B5044B6D
S31500010DA05C782046FFF790FC024BDC7010BD00BF5B
S31500010DB04929FF1FCD2AFF1F08B5FDF7C5F9044BC9
S31500010DC0020A18705A70020C000E9A70D87008BD8B
S31500010DD00929FF1F0C4B5B78032B13D8DFE803F0BF
S31500010DE00205090D0020014605E0002101200A4601
S31500010DF006E000200221024602E001200221002233
S31500010E00FFF712B9704700BF4929FF1F10B50E4BF6
S31500010E105A785B883F2A01D901220CE018B10B49A7
S31500010E204020096803E00A49096847F6C0709C1822
S31500010E30844203DD0222074B1A7010BD064819448D
S31500010E40BDE8104001F09FBE4929FF1F9804FF1F0E
S31500010E509004FF1F0929FF1F0A29FF1F10B50E4B1A
S31500010E605A785B883C2A01D901220CE018B10B495A
S31500010E700868402103E00A49086847F6C0719C18D2
S31500010E808C4203DD0222074B1A7010BD1844064935
S31500010E90BDE8104001F077BE4929FF1F9804FF1FE6
S31500010EA0A004FF1F0929FF1F4D29FF1F0A4A0B4BEB
S31500010EB012785A700A4A1269C2F3C00282F001021C
S31500010EC09A70084A1178D97092F80E1192F81C227C
S31500010ED019715A71704700BF2EB0FF1F0929FF1FF4
S31500010EE040F00F40CD2AFF1F144A154B1168597067
S31500010EF01168090A997011681268120E1A71114A5D
S31500010F0012685A71090CD970110A9971110C120ED5
S31500010F101A720D4AD97112685A72110A9972110C14
S31500010F20120E1A73094AD97212685A73110A997301
S31500010F30110C120ED9731A74704700BF50B6FF1FF9
S31500010F400929FF1F0CB6FF1FD8B0FF1FDCB0FF1F1A
S31500010F50084B5B78022B03D9074B01221A707047A5
S31500010F60064A4FF4877101FB0323012283F80D2101
S31500010F70704700BF4929FF1F0929FF1FCD2AFF1FFF
S31500010F8008B52648402101F09BFD254B1B78122B05
S31500010F9043D8DFE803F00A0E104242424214181AFF
S31500010FA01E22262A2C31363A3E00BDE80840FFF7BC
S31500010FB02FBEFFF74DFEBDE80840FFF765BEBDE851
S31500010FC00840FFF775BE002012E0BDE80840FFF7B4
S31500010FD07DBEBDE80840FFF7E1BEBDE80840FFF76A
S31500010FE0EBBEBDE80840FFF7F5BE012005E0012094
S31500010FF0BDE80840FFF732BF0020BDE80840FFF713
S3150001100005BFBDE80840FFF751BFBDE80840FFF73F
S315000110106BBFBDE80840FFF79BBF08BD0929FF1F4D
S315000110204929FF1FF7B502AB03E903009DF802103A
S315000110309DF801409DF8033029B133B9D4F101027D
S3150001104038BF002202E00A4600E0002212F0010643
S315000110502B4805D002781AB12A4A15780135157040
S31500011060294A69B1274D2F78042F09D100272F70FE
S31500011070CF0744BF012555718D0744BFFF2151712B
S3150001108013F0300F1AD021490D780135EDB2322D0A
S3150001109001D00D702DE000250D70D90605D51C492E
S315000110A00D78092D9CBF01350D709B0621D5184B76
S315000110B0197801291DD9013919701AE0CBB15F07D9
S315000110C004D5134909784942A2F801101D0703D531
S315000110D00F490978A2F80110D90704D50C490978F6
S315000110E04942A2F803109B0703D5094B1B78A2F8C6
S315000110F00330137806701C43147003B0F0BD00BFB3
S3150001110034B6FF1F38B6FF1F9A29FF1F35B6FF1FDA
S315000111106428FF1F30B500220C49104600230C4CF1
S315000111201444E45C3CB106245C430D190C5DAD78B6
S31500011130032C08BF28460133402BF0D14032B2F5CB
S31500011140807F01F5C071E9D130BD00BF9006FF1F58
S3150001115007B5FF1F2DE9F04F514885B0072101F072
S31500011160AFFC504B1C78C4B1FFF762FB4E494C48AB
S31500011170072201F008FD4D494D48082201F003FD03
S315000111804C494D48082201F0FEFC4C484C490122CD
S3150001119005B0BDE8F04F01F0F6BCFFF7BBFF07460F
S315000111A0FFF742FA4FF4C0637B4301930094A146D3
S315000111B02646019B434D1D44062303FB04554FF070
S315000111C00008414B234413F80830002B49D02B78F3
S315000111D0A9882868029002AA022B9180687895F85E
S315000111E003C08B461FFA81FA2CD0042B37D0012B72
S315000111F037D12F4A1268117801284CEA010C82F87E
S3150001120000C00BD002D3022814D02AE0052E28D81C
S31500011210731C164486F802A0DEB222E0B9F1030F70
S315000112201FD8254A126809F1010322F819B05FFA9D
S3150001123083F916E0009AA2B9204A0093126882F84F
S3150001124000A00EE08DF808308DF809008DF80BC06E
S31500011250ADF80C1092E80300FFF7E4FE01E0FFF79A
S3150001126049F908F10108B8F1400F05F10605A8D1C1
S315000112704034B4F5807F9CD10D4A1449144B47B1D3
S315000112800878B84205D126B910681D7804782C4330
S31500011290047012680F7012781A7005B0BDE8F08FED
S315000112A09A29FF1FF0B4FF1FE4B0FF1FEBB0FF1F29
S315000112B00C00FF1FF1B4FF1F7C00FF1FE000FF1FA2
S315000112C000B5FF1F9006FF1F07B5FF1F37B6FF1FAB
S315000112D036B6FF1F30B50023DCB294420AD2E508C8
S315000112E004F00704455D45FA04F404F00104CC5406
S315000112F00133F1E730BD002303807047038870B5E1
S315000113000024944210D00D5D082683EA05256B0062
S315000113102D0444BF83F4815383F00103013E01D0C0
S315000113201D46F4E70134ECE7038070BD03880B80AA
S315000113307047000038B5064D044600232B80284629
S31500011340E11C2278FFF7DAFF2B88A4F8013038BDBB
S315000113503AB6FF1F38B5084C0546002323802046C0
S31500011360E91C2A78FFF7CAFFB5F801002388C31ADA
S315000113705842584138BD00BF3AB6FF1FF7B58468D9
S3150001138005466978AB6803EB01139C4204F110042E
S3150001139021D254F8082C130C03F1804303F58E2354
S315000113A091B21868012202FA01F101431960002382
S315000113B054F8106C54F8041C184662F30A2026F8F7
S315000113C0210054F80C0C8DF800206A468DF8013086
S315000113D000F0E8FED5E76C6829786B6803EB01132A
S315000113E09C4204F1100422D254F8082C130C03F188
S315000113F0804303F58E2391B21868012202FA01F1A6
S315000114000143002619600227334667F3010354F8A6
S31500011410100C54F8041C62F30A2302AA20F82130A6
S3150001142054F80C0C22F8046D00F0BCFED4E703B0AE
S31500011430F0BD2DE9F3418368477800F10C0103EB18
S315000114400717BB4222D2DA685C68012595406560C0
S31500011450426890F800C002EB0C1C62450BD256683C
S31500011460D6F81080D66828FA06F808F0010601F8C1
S31500011470016B1032F1E7A56000220192019A632AFD
S3150001148002D8019A0132F8E71033DAE702B0BDE873
S31500011490F0810000034A137803B972B60133137061
S315000114A0704700BF3CBCFF1F044B1A780AB1013AD2
S315000114B01A701B7803B962B6704700BF3CBCFF1FA8
S315000114C008B50348034A044B442101F0DDFA00BF85
S315000114D0B03B01004B3B0100143C010038B541B162
S315000114E02E4B98420BD0A3F5A033984209D0FFF7B3
S315000114F0E7FF2B482B4A2C4B4B2101F0C5FA002361
S3150001150000E00123294A52F82320130C03F18043FA
S3150001151003F58E2392B21C68012505FA02F22243D5
S315000115201A600B794A789B0002F0030203F00C0360
S3150001153013434A79042A01D043F01003CC7864019D
S3150001154004F060042343CC790CB143F0800383603B
S31500011550C368042A18BF02F0030223F00F0318BF61
S3150001156013438A790AB143F004038A780AB143F036
S315000115700803C360026A0B7822F0030203F0030337
S31500011580134303620B7A1BB1436A43F0080302E07B
S31500011590436A23F00803436238BD00BF00B003402D
S315000115A0B03B0100403B01003B3C0100A83B010070
S315000115B008B528B909480A4A0A4B872101F064FA95
S315000115C001220023032182700271042203704170FB
S315000115D0C17042718371C371037208BDB03B0100D2
S315000115E0903B01003B3C01000346006A5B6A00F048
S315000115F080005B0648BF40F040007047F8B5066AB8
S3150001160016F04006044604D0036A23F04003036241
S315000116100126636A43F0C003636223681A0606D48F
S315000116202046FFF7E1FF4106F7D5012500E0002539
S315000116301EB1236A43F0400323622046FFF7D4FF1D
S31500011640430620D4FDB9E36CA76C666C206CE16B94
S31500011650A26B3B44334403440B4413445B0843F4F9
S315000116600043E362E36EA76E666E206EE16DA26DC6
S315000116703B44334403440B4413445B0843F40043A3
S3150001168023632846F8BD0120F8BD0000012910B5E5
S3150001169005D90E480E4A0F4B4FF4A67105E032B933
S315000116A00A480B4A0C4B40F24D1101F0EDF9136853
S315000116B0547903F01F030CB143F0200312790AB1E8
S315000116C043F0400340F8213010BD00BFB03B01009C
S315000116D05D3B01004A3C01003B3C0100012908B584
S315000116E006D90648064A074B4FF4B17101F0CCF909
S315000116F050F8210000F0800008BD00BFB03B01009A
S31500011700743B01004A3C0100074B9A79D20702D487
S31500011710064B18687047187A054B1B68C0F34200E0
S3150001172023FA00F0704700BF004006406C28FF1FF7
S315000117307028FF1F08B50F4B1B7B03F00303012B1A
S315000117400DD004D30C48022B18BF002008BD0B4B4B
S31500011750186868B90A480B4A0B4BD62106E00B4BB1
