S010000075686B2D6C6566742E73726563F4
S113000000060020E9040000450500004905000041
S113001000000000000000000000000000000000DC
S11300200000000000000000000000004D0500007A
S1130030000000000000000051050000550500000C
S11300404105000041050000410500004105000094
S11300504105000041050000410500004105000084
S113006059050000410500005D0500004105000040
S11300706105000041050000410500004105000044
S11300804105000041050000410500004105000054
S11300904105000041050000410500004105000044
S11300A04105000041050000410500004105000034
S11300B04105000041050000410500004105000024
S11303C06B6366670000000000000000000000008E
S11303D002102C010000000000000000FFFF0000DC
S1130400FFFFFFFFFFFFFFFFFFFFFFFFFEDBFFFF1D
S113041010B5064C2378002B07D1054B002B02D0D6
S1130420044800E000BF0123237010BD98FFFF1FA4
S113043000000000480E000008B5084B002B03D054
S11304400748084900E000BF07480368002B03D0B1
S1130450064B002B00D0984708BDC04600000000A2
S1130460480E00009CFFFF1F94FFFF1F00000000C8
S1130470164B002B00D1144B9D46402292029A1A2F
S1130480924600218B460F461348144A121A00F074
S1130490C9FC0F4B002B00D098470E4B002B00D00B
S11304A098470020002104000D000D48002802D0C8
S11304B00C4800E000BF00F08FFC2000290000F091
S11304C0BBFA00F073FCC0460000080000060020E0
S11304D0000000000000000098FFFF1F90000020B3
S11304E0000000000000000072B60C480C490160D6
S11304F00C4880470C490D4A0D4B9B1A03DD043B05
S1130500C858D050FBDC0B490B4A521A03DD0020BB
S11305108850043AFCDA62B60848804708ED00E0E7
S113052000000000890D0000700E000000FEFF1F97
S113053098FFFF1F98FFFF1F900000207104000028
S1130540084800470848004708480047084800474B
S1130550084800470848004708480047084800473B
S11305600848004741050000450500004905000012
S11305704D0500005105000055050000050A000066
S11305804105000041050000002934D00123002268
S113059010B488422CD301242407A14204D28142FE
S11305A002D209011B01F8E7E400A14204D281420E
S11305B002D249005B00F8E7884201D3401A1A438B
S11305C04C08A04202D3001B5C0822438C08A042C2
S11305D002D3001B9C082243CC08A04202D3001B78
S11305E0DC082243002803D01B0901D00909E3E7F2
S11305F0101C10BC7047002801D00020C04307B471
S1130600024802A14018029003BDC046D900000070
S11306100029F0D003B5FFF7B9FF0EBC4243891A95
S11306201847C046002941D010B4041C4C40A446CD
S113063001230022002900D54942002800D5404268
S113064088422CD301242407A14204D2814202D23D
S113065009011B01F8E7E400A14204D2814202D25D
S113066049005B00F8E7884201D3401A1A434C085A
S1130670A04202D3001B5C0822438C08A04202D390
S1130680001B9C082243CC08A04202D3001BDC08B8
S11306902243002803D01B0901D00909E3E7101CF9
S11306A06446002C00D5404210BC7047002806D098
S11306B003DB0020C043400801E08020000607B4AB
S11306C0024802A14018029003BDC0461900000070
S11306D00029EBD003B5FFF7A7FF0EBC4243891AEC
S11306E01847C0467047C046F0B585B06F460F370F
S11306F000233B703B78051C0133DBB23B70C678AA
S113070083790C1CF6B25A0602D58023DB011E4302
S1130710AB79DA0602D580235B011E438022231DB8
S1130720D2010193324011D0AB7940221343AB7113
S113073002220023EB70EA7022789A4200D19FE0F3
S11307402022236123702271A3692DE0F30405D4D0
S11307500223EB7001231E4215D12FE0A979102347
S11307601943A971EA700222EA70A26923711A423C
S113077006D0E369002B03D0281C0199226A98470C
S11307807306E5D47CE0AB7818229343AB702B79E5
S1130790DBB23B70E368002B72D03A4A202322611B
S11307A000222270A26923711A4269D0E369002BE6
S11307B066D0226A281C0199984761E0720612D516
S11307C0A269237023711A4206D0E369002B03D077
S11307D0281C0199226A984773072AD5AB781022FE
S11307E01343AB702DE0320627D5730729D4A368D1
S11307F0002B02D0E368002B0AD104232371E369A0
S1130800002B03D0281C0199226A984700236361B6
S11308102A79E368D2B2002B32D0A368591CA160B4
S11308201A70E368013BE360636901336361E36861
S113083026E0AB7818229343AB702B79DBB23B7084
S11308401EE0A368002B02D0E368002B0AD1022328
S11308502371E369002B03D0281C0199226A98476D
S113086000236361E368002BE3D0A3685A1CA260F1
S11308701B782B71E368013BE360636901336361B7
S113088005B0F0BD4E040000084B02221878104059
S113089004D19A791207920F012A05D15A780123BB
S11308A01A40034B9200D0587047C046004006409F
S11308B0380E000010B5084CA3791B079B0F09D014
S11308C00020012B07D1FFF7DFFF237A1B075B0F03
S11308D0D84000E0014810BD00400640006CDC0236
S11308E038B5304B1C78012C3AD0002C02D0022CA5
S11308F043D056E02C4D2D4B07221A70281C211C86
S1130900052200F08FFA281C2949E2B20919097B53
S1130910D3084D1EA94107252A40C31891400A1C3B
S1130920197801340A431A70232CEDD100231A1CC0
S1130930815C0824090259404B000D0401D51D496E
S11309404B40013C002C01D0191CF5E70132052A6B
S1130950EED119499AB20A80120A4371827120E0D9
S1130960124A0021117059788022144B92010029F7
S113097001D19A6015E05A6013E00C4A0021104D31
S11309801170A8685B786421CB1A84B2DBB2201C96
S11309905843FFF747FE80B2A04201D3601C80B2E7
S11309A0A86138BD20000020B8FFFF1F8800002088
S11309B000FEFF1F211000001E00002040F00F4029
S11309C0009003400B7810B50C1C042B0AD0202B8C
S11309D00ED0022B0FD1FFF783FF074B6360074B49
S11309E01B7807E0FFF77CFF054B6360642301E09D
S11309F000234B60A36010BDB8FFFF1F88000020D8
S1130A002000002007B5084B08481968C378DA06A7
S1130A1002D483789A0602D50448054B00E0054BBE
S1130A201B68984707BDC04684000020006006404C
S1130A308C000020B4FFFF1FF0B5B84AB84E8023E5
S1130A405B02B350B74B8020997900211972187654
S1130A505C780120844320435870197059788DB014
S1130A609A791207920F0092FAD1AC4980235B0263
S1130A7073503168AC4BAD4C0B403360AC49AD4B5B
S1130A80802019602368C000AB4F034323607B6858
S1130A90AA4980256D000B402B437B60A84BAC46D4
S1130AA002259D605A692A435A615D602568624641
S1130AB0054325607D6B0D4015437D638025AD01A5
S1130AC09D605A692A435A615D6023689D4D1843AD
S1130AD020607B69194080239B0019439A4B7961FC
S1130AE0F0589A490140802040040143F150984B4A
S1130AF080211868890401431960009B00992B60C8
S1130B00944BD967DA6FC0218A43DA67FFF7D2FEC4
S1130B10824AB158B658202201962E682B68090FD4
S1130B2093432B600131FFF72FFD019B5903490FBC
S1130B300131FFF729FD07231E40F0408649FFF7E6
S1130B4023FD864A01383B1C904214D8A8606A6988
S1130B503C218A436A6168693C217A4A0842FAD195
S1130B60516924200143516169693C221142FBD03F
S1130B70744A002191612A6818218A4308210A4392
S1130B802A6021688022D200114321602168402715
S1130B900A432260724A734C1A829A81724B03ADE3
S1130BA01A6800263A431A6010232370A37802229D
S1130BB0934380221343A37062796F231340311C43
S1130BC063712422281C00F02DF9684B684AEB61FC
S1130BD0684B2E621D60684B20261A60674B80228A
S1130BE052001A60AB6929783343AB6100291AD1EA
S1130BF0A3787022BB43A370A37904A89343A37181
S1130C00142200F00FF9A27950231A43A271A27999
S1130C101A43A2711222E270A2781743A770A27934
S1130C209A431643A671564B9868021C59780901D9
S1130C3041188A421BD29168394D0C0C6419012564
S1130C4089B22F1C26688F40391C31432160D46837
S1130C501668A10071188026AE400E805168A54028
S1130C608D602C1C4D6910322C434C61DEE75868B2
S1130C70021C1978090141188A421AD29168284F36
S1130C8001250C0CE41989B22F1C26688F40391CED
S1130C9031432160D4681668A10071188126AE40E2
S1130CA00E805168A5404E691032AE434E61E0E7B4
S1130CB030BF344A1278002AFAD159789A68090167
S1130CC051181E1C01910C3601998A42F0D2D76842
S1130CD054680125BD4065601F7859683F01CF19EC
S1130CE00097301C009F061CB9420BD24E68CF6897
S1130CF036691031FE40B446674601263E40067010
S1130D000130EFE7A560002103910399632902D81C
S1130D1003990131F8E71032D6E7C04644100000C9
S1130D200070044000400640FFFFF3FF3880044099
S1130D30006CDC0230FFFF1F00A00440FFF8FFFF3F
S1130D4040F00F400090034004100000FFFFFFFC40
S1130D503C80044008900340C05D0000FFFF000099
S1130D60030200000060064034800440C50900000E
S1130D70E906000084000020B4FFFF1F00E100E04A
S1130D8000FEFF1F1C000020064B08229978114228
S1130D9002D099780A439A70034A882300215B01A0
S1130DA0D150704700D0074000700440084B10B584
S1130DB0041C002B02D0002100E000BF054B186882
S1130DC0836A002B00D09847201C00F033F8C046FB
S1130DD000000000440E000070B50E4B0E4D0024C0
S1130DE0ED1AAD101E1CAC4204D0A300F358984772
S1130DF00134F8E700F028F8084B094D0024ED1AF7
S1130E00AD101E1CAC4204D0A300F3589847013423
S1130E10F8E770BD680E0000680E0000680E000060
S1130E206C0E0000031C8218934202D01970013327
S1130E30FAE77047FEE7C04680841E0000127A007D
S1130E404300000034FFFF1FF8B5C046F8BC08BCDF
S1130E509E467047F8B5C046F8BC08BC9E4670472D
S10B0E6010F6FF7F0100000001
S1070E683904000045
S1070E6C1104000069
S1130E7007050000C0FEFF1F70FEFF1F00000000FA
S1130E80000000000000000000000000000000005E
S1130E90000000000000000000000000000000004E
S1130EA0000000000000000000000000000000003E
S1130EB0000000000000000000000000000000002E
S1130EC0000000000000000000000000000000001E
S1130ED0000000000000000000000000000000000E
S1130EE000A0044040F00F400A0038100700000042
S1130EF000A0044040F00F400A0038100A0000002F
S1130F000090044000F00F40090038100500000074
S1130F100090044000F00F40090038100700000062
S1130F200090044000F00F40090038100400000055
S1130F3000A0044040F00F400A0038100B000000ED
S1130F400090044000F00F40090038100600000033
S1130F500090044000F00F40090038100800000021
S1130F6000A0044040F00F400A00381000000000C8
S1130F7000A0044040F00F400A00381006000000B2
S1130F800090044000F00F400900381003000000F6
S1130F900090044000F00F40090038100C000000DD
S1130FA000127A00000000000000000000000000B1
S1130FB0000000000000000000000000000000002D
S1130FC000000000400E00000000000000000000CF
S1130FD0000000000000000000000000000000000D
S1130FE000000000000000000000000000000000FD
S1130FF000000000000000000000000000000000ED
S10B10000000000000000000E4
S90304E90F
