S010000075686B2D6C6566742E73726563F4
S113000000060020E9040000450500004905000041
S113001000000000000000000000000000000000DC
S11300200000000000000000000000004D0500007A
S1130030000000000000000051050000550500000C
S11300404105000041050000410500004105000094
S11300504105000041050000410500004105000084
S113006059050000410500005D0500004105000040
S11300706105000041050000410500004105000044
S11300804105000041050000410500004105000054
S11300904105000041050000410500004105000044
S11300A04105000041050000410500004105000034
S11300B0990E0000410500004105000041050000C3
S11303C06B6366670000000000000000000000008E
S11303D002106400000000000000000001FF0000A3
S1130400FFFFFFFFFFFFFFFFFFFFFFFFFEDBFFFF1D
S113041010B5064C2378002B07D1054B002B02D0D6
S1130420044800E000BF0123237010BDA0FFFF1F9C
S113043000000000DC0F000008B5084B002B03D0BF
S11304400748084900E000BF07480368002B03D0B1
S1130450064B002B00D0984708BDC04600000000A2
S1130460DC0F0000A4FFFF1F9CFFFF1F0000000023
S1130470164B002B00D1144B9D46402292029A1A2F
S1130480924600218B460F461348144A121A00F074
S113049092FD0F4B002B00D098470E4B002B00D041
S11304A098470020002104000D000D48002802D0C8
S11304B00C4800E000BF00F04FFD2000290000F0D0
S11304C093FB00F033FDC046000008000006002046
S11304D00000000000000000A0FFFF1F1C0200201D
S11304E0000000000000000072B60C480C490160D6
S11304F00C4880470C490D4A0D4B9B1A03DD043B05
S1130500C858D050FBDC0B490B4A521A03DD0020BB
S11305108850043AFCDA62B60848804708ED00E0E7
S113052000000000090F00000410000000FEFF1F7F
S1130530A0FFFF1FA0FFFF1F1C020020710400008A
S1130540084800470848004708480047084800474B
S1130550084800470848004708480047084800473B
S11305600848004741050000450500004905000012
S11305704D0500005105000055050000B50B0000B5
S11305809D0B00004105000002B471464908490072
S1130590095C49008E4402BC7047C046002934D02F
S11305A00123002210B488422CD301242407A14241
S11305B004D2814202D209011B01F8E7E400A142FE
S11305C004D2814202D249005B00F8E7884201D399
S11305D0401A1A434C08A04202D3001B5C08224371
S11305E08C08A04202D3001B9C082243CC08A042E2
S11305F002D3001BDC082243002803D01B0901D0CE
S11306000909E3E7101C10BC7047002801D0002042
S1130610C04307B4024802A14018029003BDC0467B
S1130620D90000000029F0D003B5FFF7B9FF0EBCD4
S11306304243891A1847C046002941D010B4041C0B
S11306404C40A44601230022002900D54942002839
S113065000D5404288422CD301242407A14204D26D
S1130660814202D209011B01F8E7E400A14204D24D
S1130670814202D249005B00F8E7884201D3401A64
S11306801A434C08A04202D3001B5C0822438C0886
S1130690A04202D3001B9C082243CC08A04202D3F0
S11306A0001BDC082243002803D01B0901D00909E0
S11306B0E3E7101C6446002C00D5404210BC704790
S11306C0002806D003DB0020C043400801E080205E
S11306D0000607B4024802A14018029003BDC046B8
S11306E0190000000029EBD003B5FFF7A7FF0EBCEB
S11306F04243891A1847C0467047C046F0B585B0D2
S11307006F460F3700233B703B78051C0133DBB287
S11307103B70614B0C1C1A6801321A60C6788379ED
S1130720F6B25A0602D58023DB011E43AB79DA0602
S113073002D580235B011E438022231DD201019335
S1130740324011D0AB7940221343AB710222002313
S1130750EB70EA7022789A4200D19BE02022236158
S113076023702271A3692DE0F30405D40223EB70F6
S113077001231E4215D12FE0A97910231943A97131
S1130780EA700222EA70A26923711A4206D0E36970
S1130790002B03D0281C0199226A98477306E5D4DC
S11307A078E0AB7818229343AB702B79DBB23B70C3
S11307B0E368002B6ED0394A202322610022227084
S11307C0A26923711A4265D0E369002B62D0226AC0
S11307D0281C019998475DE0720612D5A26923701E
S11307E023711A4206D0E369002B03D0281C019917
S11307F0226A9847730726D5AB7810221343AB704F
S113080029E0320623D504231E4224D12E79226AFC
S1130810F6B216702371E369002B03D0281C0199EA
S1130820226A984700236361E368002B32D0A368EF
S11308305A1CA2601E70E368013BE36063690133E4
S11308406361E36826E0AB7818229343AB702B799D
S1130850DBB23B701EE0A368002B02D0E368002BE0
S11308600AD102232371E369002B03D0281C0199C8
S1130870226A984700236361E368002BE3D0A368EE
S11308805A1CA2601B782B71E368013BE360636927
S11308900133636105B0F0BDC8FFFF1F4E040000C3
S11308A00C4A70B513884118151C88420FD0027881
S11308B0082412025A405300160401D5064A534034
S11308C0013C002C01D01A1CF5E70130EDE72B8028
S11308D070BDC046E800002021100000084B022231
S11308E01878104004D19A791207920F012A05D181
S11308F05A7801231A40034B9200D0587047C046DF
S113090000400640CC0F000010B5084CA3791B072B
S11309109B0F09D00020012B07D1FFF7DFFF237ABB
S11309201B075B0FD84000E0014810BD00400640A3
S1130930006CDC02F8B52F4B80221868D2001043FB
S113094018601868002102431A602B4A2B4B0126B9
S11309501A829A812A4B082259709970D9701E7094
S113096019729A80274B40271A68274C3A431A6019
S113097010232370A3780222934380221343A3708D
S11309806279224D6F23134063712422281C00F0E6
S113099012FB1F4B1F4AEB611F4B2B621F4B1D6049
S11309A01F4B1A6080221F4BB2401A60297800291D
S11309B01FD1A3787022BB43A370A379281D93434E
S11309C0A371142200F0F7FA0723AB612E70A27909
S11309D050231A43A271A2791A43A2711222E2701F
S11309E0A2781743A770A2799A43131C20221343B9
S11309F0A371F8BD388004400302000000A0044045
S1130A00D4FFFF1F3480044000600640F80100203A
S1130A10290A0000FD060000C0FFFF1FBCFFFF1FE6
S1130A20E000002000E100E070B50B780D1C504997
S1130A30504A097813705170022B08D0042B4FD000
S1130A40012B00D093E04C4B00221A708FE04B4BEB
S1130A504B4CDA78002A08D0012A31D1E01C00215D
S1130A60052200F0A8FA002316E01879032827D8F5
S1130A70FFF78AFD0209090CE01C4249042200F038
S1130A8091FA04231BE00123E37018E02323E370AD
S1130A9000232371022312E03B48D9B2C018007B23
S1130AA0CA08461EB041072631408840A218011CDE
S1130AB0D07801330143D170232BEDD1052323706A
S1130AC0324E0023E01C21783380FFF7E9FE3378AF
S1130AD06C6063707378A37023780333AB6046E073
S1130AE02548264C0278531CA154DBB221780370AC
S1130AF0033B99423BD1254E0025E01C3580FFF78E
S1130B00CFFEA378617832881B020B439A4202D04D
S1130B101B4B1D702BE0E378032B09D0042B13D05F
S1130B20022B24D11A4B281C1B681B6898471EE013
S1130B30134B80221D702179164B9201002901D19B
S1130B409A6014E05A6012E00D4B134E1D70B068A9
S1130B5023796421CB1A85B2DBB2281C5843FFF7F2
S1130B606BFD80B2A84201D3681C80B2B06170BD35
S1130B70C0FFFF1FCCFFFF1FF4000020F500002082
S1130B80DEFFFF1FE0FEFF1F70FEFF1FE8000020D6
S1130B901C00001C40F00F400090034008B5034BBC
S1130BA003481B680021984708BDC046C4FFFF1FC7
S1130BB00060074007B5084B08481968C378DA068F
S1130BC002D483789A0602D50448054B00E0054B0D
S1130BD01B68984707BDC046BCFFFF1F0060064066
S1130BE0E4000020E0000020F0B5974A974C8023F1
S1130BF05B02A350964B80209979002119721876D4
S1130C005D7801208543284358701970597885B060
S1130C1098790007800F0190FAD18B4880235B02FA
S1130C20235022688B4BFF25134023608A4A8B4B49
S1130C30C4261A608A4BC22292009958B600A9436E
S1130C404025294399509F59864D80212F40C9033F
S1130C500F439F519E58802735402943995082491C
S1130C6080260B68F600814A33430B605368804D3D
S1130C707F002B403B4353607E4B02279F605869A3
S1130C80384358615F600F68802037430F60576BAB
S1130C9040002F40074357638027BF019F60586976
S1130CA0384358615F600B681E430E6053691D40F2
S1130CB080239B001D43704B5561E1586F4A704D72
S1130CC00A40802149040A43E2506E4B802219688D
S1130CD092040A431A6001996B4B2960D967DA6F51
S1130CE0C0218A43DA67FFF70FFE574AA158A65876
S1130CF02C682B6820229343090F2B600131FFF7E6
S1130D004DFC7103490F0131FFF748FC07231C40D8
S1130D10E0405E49FFF742FC5D4A01382B1C9042DB
S1130D2014D8A8606A693C218A436A6158693C21E5
S1130D30534A0842FAD15169242001435161596947
S1130D403C221142FBD04E4A002191611A681821BD
S1130D508A4308210A431A60FFF7ECFD4D4B98685B
S1130D60021C5978090141188A421BD29168374DF7
S1130D700C0C6419012589B22F1C26688F40391C7C
S1130D8031432160D4681668A10071188026AE40F2
S1130D900E805168A5408D602C1C4D6910322C4387
S1130DA04C61DEE75868021C1978090141188A422F
S1130DB01AD29168254F01250C0CE41989B22F1C15
S1130DC026688F40391C31432160D4681668A1001D
S1130DD071188126AE400E805168A5404E691032CC
S1130DE0AE434E61E0E730BF59789A680901511863
S1130DF01E1C01910C3601988242F4D2D7685468C3
S1130E000125BD4065601F7859683F01CF190097DF
S1130E10301C009F061CB9420BD24E68CF6836695D
S1130E201031FE40B446674601263E40067001304C
S1130E30EFE7A560002103910399632902D8039980
S1130E400131F8E71032D6E7441000000070044086
S1130E5000400640FFFFF3FF006CDC0238FFFF1F79
S1130E6000E100E0FFFF00FF3880044000A00440E0
S1130E70FFF8FFFF40F00F4004100000FFFFFFFCED
S1130E80009003403C80044008900340C05D000093
S1130E90FFFF000070FEFF1F38B58022124B920145
S1130EA0DA60124B124D1A68124C01321A602A6829
S1130EB023689A420FD1104B1A6801321A600F4B03
S1130EC07F2299780A409A700D4B40211A688A4310
S1130ED01A60FFF72FFD2D680A4B25601A688021E0
S1130EE00A431A6038BDC04640F00F40EC000020B1
S1130EF0C8FFFF1FF0000020D0FFFF1F0060064066
S1130F003480044000000440064B082299781142C2
S1130F1002D099780A439A70034A882300215B011E
S1130F20D150704700D0074000700440084B10B502
S1130F30041C002B02D0002100E000BF054B186800
S1130F40836A002B00D09847201C00F03DF8C0466F
S1130F5000000000D80F000070B50E4B0E4D0024A9
S1130F60ED1AAD101E1CAC4204D0A300F3589847F0
S1130F700134F8E700F032F8084B094D0024ED1A6B
S1130F80AD101E1CAC4204D0A300F35898470134A2
S1130F90F8E770BDFC0F0000FC0F0000FC0F000020
S1130FA00010000010B50023934203D0CC5CC4545D
S1130FB00133F9E710BD031C8218934202D0197063
S1130FC00133FAE770470000FEE7C04680841E0044
S1130FD000127A00430000003CFFFF1FF8B5C04632
S1130FE0F8BC08BC9E467047F8B5C046F8BC08BCBF
S1070FF09E4670475E
S10B0FF47CF4FF7F0100000002
S1070FFC39040000B0
S107100011040000D3
S113100400A0044040F00F400A0038100B00000018
S11310140090044000F00F4009003810060000005E
S11310240090044000F00F4009003810080000004C
S113103400A0044040F00F400A00381000000000F3
S113104400A0044040F00F400A00381006000000DD
S11310540090044000F00F40090038100300000021
S11310640090044000F00F40090038100C00000008
S11310740705000000FEFF1FE8FEFF1F000000003C
S11310840000000000000000000000000000000058
S11310940000000000000000000000000000000048
S11310A40000000000000000000000000000000038
S11310B40000000000000000000000000000000028
S11310C40000000000000000000000000000000018
S11310D40000000000000000000000000000000008
S11310E453594E430000000000A0044040F00F4058
S11310F40A0038100700000000A0044040F00F402C
S11311040A0038100A0000000090044000F00F4068
S113111409003810050000000090044000F00F405E
S113112409003810070000000090044000F00F404C
S1131134090038100400000000127A0000000000C6
S11311440000000000000000000000000000000097
S1131154000000000000000000000000D40F0000A4
S11311640000000000000000000000000000000077
S11311740000000000000000000000000000000067
S11311840000000000000000000000000000000057
S11311940000000000000000000000000000000047
S90304E90F
